:100000000C9410010C9438010C9438010C943801B4
:100010000C9438010C9438010C9438010C9438017C
:100020000C9438010C9438010C94D2010C944402C5
:100030000C9438010C9438010C9438010C9438015C
:100040000C9438010C9438010C9438010C9438014C
:100050000C9438010C9438010C9438010C94E20D86
:100060000C9438010C9438010C9438010C9438012C
:100070000C9438010C9438010C9438010C9438011C
:100080000C9438010C9438010C9438010C9438010C
:100090000C94C8060C9438010C9438010C94380167
:1000A0000C9438010C94A1060C943801900C930C1C
:1000B000820C860C8A0CB40CB40CB40C970C9B0C00
:1000C0009F0CA50CA90CB40CAF0C036EDB363D9A4B
:1000D0009999993DABAAAA2A3E000000803F072CBF
:1000E0007AA5BA6CC590DA3B9365FC8BBC53F810CB
:1000F000FD3C5692834DBD879D3AB63DCBC9BF5B53
:10010000BE73DA0FC93F05A84CCDB2D44EB938360C
:10011000A9020C50B9918688083CA6AAAA2ABE005A
:100120000000803F080B00020202010009040000E9
:100130000102020000052400100105240101010450
:10014000240206052406000107058103100040096A
:10015000040100020A000000070502024000000737
:100160000583024000000403090412010002EF02AB
:10017000014041233780000101020301417264758F
:10018000696E6F204C4C430041726475696E6F203C
:100190004D6963726F000000000200090F00000348
:1001A0000401000C0000000000000000000000003E
:1001B000000000000000000000240027002A002D9D
:1001C000003000000000002300260029002C002F32
:1001D0000000000000250028002B002E0031000444
:1001E00004040404030405020202020403020202DE
:1001F00002060606060606040402020204040408B7
:10020000020110408040102040804080080204011C
:100210008040201002011080102040402000C710B4
:1002200011241FBECFEFDAE0DEBFCDBF11E0A0E0AA
:10023000B1E0E0EBFCE202C005900D92A035B10701
:10024000D9F727E0A0E5B1E001C01D92A037B207C1
:10025000E1F711E0C0E1D1E004C02197FE010E9466
:100260004416CF30D107C9F70E942C0E0C945616B5
:100270000C9400000E945116CF92DF92EF92FF92F1
:100280000F931F93CF93DF931F92CDB7DEB7182F35
:10029000062FE42E862F880F8E5F99830E946606B4
:1002A00083E00E946606F12EC12E9981D92E8C2DF5
:1002B0008F19801798F4F601E7FE02C0849101C0FF
:1002C00080810E946606182F80E00E9466068123C6
:1002D000FFEFCF1ADF0A8111EACF01C081E00F9052
:1002E000DF91CF911F910F91FF90EF90DF90CF9012
:1002F0000895DF92EF92FF920F931F93CF93DF93B6
:10030000D82E8A017B01E40EF51EEB01CE15DF0528
:1003100071F0D7FE03C0FE01849101C088810E9464
:10032000660621968111F2CF8FEF9FEF01C0C801C1
:10033000DF91CF911F910F91FF90EF90DF90089583
:100340000F931F93CF93DF931F92CDB7DEB782E059
:10035000898342E450E064E271E080E80E94790120
:100360000E94940DDC0112960D911C9113970115BA
:10037000110569F0D801ED91FC910280F381E02D27
:10038000BE016F5F7F4FC801099597FF07C0898144
:100390000F90DF91CF911F910F910895F801008583
:1003A0001185E5CF1F920F920FB60F9211248F93F4
:1003B0009F938091E1009091E100937F9093E10001
:1003C00083FF0FC01092E90091E09093EB00109230
:1003D000EC0092E39093ED001092C80198E09093A6
:1003E000F00082FF20C093E09093E9009091F2002A
:1003F000992319F09AE39093E8009091540199237E
:1004000039F090915401915090935401992389F1BE
:100410009091C701992339F09091C7019150909321
:10042000C701992341F184FF10C08091E2008E7EC4
:1004300081608093E2008091E1008F7E8093E100F3
:10044000809155018E7E806111C080FF16C0809121
:10045000E2008E7E80618093E2008091E1008E7EDA
:100460008093E100809155018E7E816080935501DB
:1004700004C05D98CDCF2898D6CF9F918F910F90D3
:100480000FBE0F901F9018951F920F920FB60F92EC
:100490001124CF92DF92EF92FF920F931F932F932D
:1004A0003F934F935F936F937F938F939F93AF93FC
:1004B000BF93EF93FF93CF93DF93CDB7DEB76C97E6
:1004C000DEBFCDBF1092E9008091E80083FFEDC14F
:1004D00068E0CE0145960E94940682EF8093E80082
:1004E0008D8987FF05C09091E80090FFFCCF03C085
:1004F0009EEF9093E800982F907609F0C6C09E89F1
:100500002F89188D91110CC0803829F480917901C0
:100510008093F10002C01092F1001092F10048C1E6
:10052000422F50E0512B913051F4811141C14130A3
:10053000510509F03DC1809179018D7F0BC0933049
:1005400061F4811135C14130510509F031C180910B
:1005500079018260809379012BC1953041F48091BB
:10056000E80080FFFCCF20682093E30021C1963093
:1005700009F05FC0EB8CFC8C1092E90010925301E3
:1005800010925201123091F51092510110925001C7
:100590000E94A00199E0BE016F5F7F4FDB01E92F50
:1005A0001D92EA95E9F799831A8391E09E8390EA78
:1005B00098879AEF99872091520130915301275FD4
:1005C0003F4F3C832B838D831092E900109253019F
:1005D00010925201F0925101E092500149E050E036
:1005E00080E00E9479010E94A001E2C0F0925101D6
:1005F000E09250010E94940DDC011296ED90FC9067
:100600001397E114F10409F4C0C0D701ED91FC91F6
:100610000480F581E02DBE016B5E7F4FC701099517
:10062000009719F00CF0C4C0C7C0F701E084F18452
:10063000E8CF973009F4C0C0983021F481E080936E
:10064000F100B6C0993009F0B3C0837009F0B4C0AE
:10065000EDE0F1E081E021E036E39081992361F063
:100660008093E9002093EB0091919093EC003093FC
:10067000ED008F5F873089F78EE78093EA00109254
:10068000EA008F898093C80193C08B8D9C8D109256
:10069000E9001092530110925201909351018093FE
:1006A0005001898D811156C08E899D89913A59F4E6
:1006B000813209F081C047E050E064E071E080E001
:1006C0000E94790175C0913209F076C0833289F4B5
:1006D000888D90E0982F88272F89822BA0E0B0E0AA
:1006E0008093000190930101A0930201B093030154
:1006F0005FC0803269F48091E80082FFFCCF67E040
:1007000084E091E00E9494068BEF8093E80006C09D
:10071000823209F04DC08F8980930B01809178015E
:10072000882319F0EEEFFAE002C0E0E0F8E08091F3
:10073000040190910501A0910601B0910701803B51
:100740009440A105B10509F07BC080910B0180FFA9
:1007500093C076C00E94940DDC0112960D911C91FD
:1007600013970115110541F1D801ED91FC9101900C
:10077000F081E02DBE016B5E7F4FC80109958111AC
:1007800017C0F80100851185ECCF113009F44EC077
:10079000133091F48F89882309F445C0823081F4A5
:1007A00040E86DE088E891E00E943C01882321F058
:1007B0008EEF8093E80079C081E28093EB0075C0F2
:1007C000813029F440E86BE08CE791E0EDCF833095
:1007D00099F70E94940DDC011296ED90FC9013970E
:1007E0008E010F5F1F4F6801E114F10479F0D7010A
:1007F000ED91FC910680F781E02DB801C7010995C4
:10080000080F111DF701E084F184EECFD8011C928E
:10081000F60101900020E9F73197BF016C197D09BD
:1008200040E0C601C1CF66E671E002C06AE671E051
:100830006115710509F2FB01449150E080E840CF59
:100840000FB6F894A895809160008861809360004D
:10085000109260000FBEA895EE3F2AE0F20739F033
:100860008091FE0A9091FF0A91838083A1CF10921C
:10087000FF0A1092FE0A9CCFEE3F8AE0F80731F0A3
:10088000808191819093FF0A8093FE0A87E797E722
:10089000918380839BE088E10FB6F894A8958093BC
:1008A00060000FBE9093600083CF6C960FB6F894F3
:1008B000DEBF0FBECDBFDF91CF91FF91EF91BF9112
:1008C000AF919F918F917F916F915F914F913F91E8
:1008D0002F911F910F91FF90EF90DF90CF900F908D
:1008E0000FBE0F901F901895CF92DF92EF92FF925C
:1008F0000F931F93CF93DF936C017A018B01C0E0BC
:10090000D0E0CE15DF0589F0D8016D918D01D601BB
:10091000ED91FC910190F081E02DC6010995892BA4
:1009200011F47E0102C02196ECCFC701DF91CF9177
:100930001F910F91FF90EF90DF90CF900895CF938C
:10094000DF931F92CDB7DEB76983DC01ED91FC9197
:100950000280F381E02D41E050E0BE016F5F7F4FE8
:1009600009950F90DF91CF91089583E08093E9007E
:100970008091F200882319F08AE38093E8000895BB
:10098000FC018485958597FD0BC09FB7F89482E0A4
:100990008093E9008091F2009FBF90E00196089556
:1009A0009FB7F89482E08093E9008091F2009FBFA6
:1009B00090E008950895E091770180917601E8171D
:1009C00030F4F0E0EA5AFE4F808190E008958FEF16
:1009D0009FEF08959091770180917601981750F4D8
:1009E000E92FF0E0EA5AFE4F208130E09F5F9093BC
:1009F000770102C02FEF3FEFC90108958091760182
:100A000090E020917701821B91090895089580E07C
:100A100090E0089585ED8093BC008091BC0084FD3A
:100A2000FCCF1092EF0108954091A001262F30E0F5
:100A3000240F311D21323105DCF42091EF012430E7
:100A4000C9F4FC0180E090E0861758F43091A001D1
:100A50002191DC01A258BE4FA30FB11D2C9301962A
:100A6000F3CF8091A001680F6093A00180E008950A
:100A700081E0089582E00895CF92DF92EF92FF9295
:100A80000F931F93CF93DF937C01262F972F8A011B
:100A90008091F001882391F0C62FD72F6E01C40EEC
:100AA000D51ECC15DD0571F06991D701ED91FC9152
:100AB0000190F081E02DC7010995F3CF642F822FBB
:100AC0000E941405C801DF91CF911F910F91FF90F3
:100AD000EF90DF90CF900895CF93DF931F92CDB723
:100AE000DEB769832091F0012223D1F02091130217
:100AF000203240F021E030E0FC013383228380E0AB
:100B000090E015C08091F101E82FF0E0EE50FE4F2B
:100B1000998190838F5F8093F1018093130205C0C8
:100B200061E0CE0101960E94140581E090E00F90F3
:100B3000DF91CF9108958F929F92AF92BF92CF9203
:100B4000DF92EF92FF920F931F93CF93DF935C019D
:100B50006B017A0180910B01882309F45BC08091BD
:100B6000C801882309F456C08091550180FF05C053
:100B70008091E00082608093E000E70110E00AEFDE
:100B800083E0882E9AE3992E2097D9F10E94830D55
:100B900081110AC0015009F43DC061E070E080E0BD
:100BA00090E00E94A80DF0CF282F30E0C217D307A5
:100BB0000CF48C2F4FB7F8948092E9009091E800E4
:100BC00095FF1DC0282F30E0C21BD30BF601982FD4
:100BD000915020F081918093F100FACFC20ED31E84
:100BE000112319F09092E80009C08091E80085FD7A
:100BF00006C09092E80011E0209709F010E04FBF86
:100C0000C3CF1111C3CF5D9A84E6809354011E14A3
:100C10001F0444F081E090E0F5019383828380E03B
:100C200090E001C0C701DF91CF911F910F91FF901C
:100C3000EF90DF90CF90BF90AF909F908F900895EE
:100C40000E94830D90E008950F931F93CF93DF933D
:100C50001F92CDB7DEB78C01FC018485958597FF87
:100C60000EC0CE0101960E94590D019719F42981F9
:100C700030E002C02FEF3FEFF80135872487F801FD
:100C8000848595850F90DF91CF911F910F910895E5
:100C9000CF93DF931F92CDB7DEB7FC018485958596
:100CA00097FD05C02FEF3FEF358724870BC0CE019E
:100CB00001960E94590D019719F4898190E002C0B4
:100CC0008FEF9FEF0F90DF91CF91089540915201E8
:100CD0005091530120915001309151014217530717
:100CE000B4F49091E8009570E1F39091E80092FDE2
:100CF00019C08093F10080915201909153010196A7
:100D00008F739927892B19F48EEF8093E8008091D7
:100D10005201909153010196909353018093520197
:100D200081E0089580E00895615030F02091F10055
:100D3000FC0120830196F8CF289A84E68093C701AE
:100D400008951F920F920FB60F9211242F933F9385
:100D50004F935F936F937F938F939F93AF93BF93C3
:100D6000EF93FF93E091C501F091C6010995FF91C2
:100D7000EF91BF91AF919F918F917F916F915F9113
:100D80004F913F912F910F900FBE0F901F9018958C
:100D90001F920F920FB60F9211242F933F934F93F0
:100DA0005F936F937F938F939F93AF93BF93EF93D3
:100DB000FF938091B900887F803609F49CC068F564
:100DC000883209F45BC090F4803109F454C038F4DF
:100DD000882309F4F6C0883009F44DC0F6C0883184
:100DE00009F44CC0803209F45DC0EFC0803409F4CE
:100DF00068C048F4803309F455C0883309F0E5C071
:100E00008093ED01D8C0803509F44FC0883509F4CE
:100E10005DC0883409F0D9C0D6C0883909F4C7C08C
:100E2000A8F4883709F467C038F4883609F463C039
:100E3000803709F460C0C9C0883809F4B8C0803967
:100E400009F45FC0803809F0C0C05BC0803B09F482
:100E500086C038F4803A09F466C0883A09F47FC045
:100E6000B4C0803C09F4A7C0883C09F4A4C0883B06
:100E700009F48AC0AAC08091CA0110C09091EC0107
:100E80008091EB01981770F5E091EC0181E08E0FF5
:100E90008093EC01F0E0E553FE4F80818093BB002E
:100EA00085EC86C08093ED018EC0E091EC0181E07D
:100EB0008E0F8093EC018091BB00F0E0E553FE4F74
:100EC00080839091EC018091EB016EC0E091EC0188
:100ED00081E08E0F8093EC018091BB00F0E0E55340
:100EE000FE4F80838091EE0181116DC081E080937F
:100EF000C90184EA61C083E08093EF011092C401CC
:100F0000CFCF8091C401803208F051C0E091C4017C
:100F100081E08E0F8093C4018091BB00F0E0EC551E
:100F2000FE4F8083BDCF85EC8093BC001092EF0113
:100F30008091C401803230F4E091C401F0E0EC55BE
:100F4000FE4F10826091C40170E0E091A201F09127
:100F5000A30184EA91E009951092C40136C084E0AF
:100F60008093EF011092A1011092A001E0919E01E7
:100F7000F0919F0109958091A001811105C081E048
:100F80008093A00110927E01E091A10181E08E0F7B
:100F90008093A101F0E0E258FE4F80818093BB0076
:100FA0009091A1018091A001981708F479CF85E86C
:100FB0008093BC000AC085EC8093BC001092EF01C6
:100FC00004C01092ED010E940A05FF91EF91BF91BC
:100FD000AF919F918F917F916F915F914F913F91D1
:100FE0002F910F900FBE0F901F901895FC0161304C
:100FF000710549F06230710551F0672B61F4808111
:101000009181A2810BC083819481A58107C08681D3
:101010009781A08503C081859285A385BC018A2F15
:1010200008952F923F924F925F926F927F928F928C
:101030009F92AF92BF92CF92DF92EF92FF920F9367
:101040001F93CF93DF9300D000D0CDB7DEB71C0144
:10105000D52EC62E922F253608F094E6211101C018
:1010600090E029E8220E311C00E010E0E92FF0E0CA
:10107000FA83E98324E6422E512C612C712CF10174
:10108000E190F1901F01473A34F04B834B352CF03F
:10109000FAE5FB8302C026EA2B832B81F70123A309
:1010A00034A13C83A22F220FBB0BA31BB10937FD38
:1010B000B395B7FD07C0812C912C90E8A92E9FE332
:1010C000B92E06C0812C912C80E8A82E8FEBB82E6B
:1010D000B7FF03C0B195A195B10929813A810E945A
:1010E0004A16A30192010E948E12CA01B9010E9400
:1010F0002514A50194010E9474150E94ED13611539
:10110000710541F4EB81FC81EF1721F0C501B401B9
:101110000E94ED13F70165A30F5F1F4F0330110508
:1011200039F00130110511F44D2DA9CF4C2DA7CF69
:101130000F900F900F900F90DF91CF911F910F9113
:10114000FF90EF90DF90CF90BF90AF909F908F90E7
:101150007F906F905F904F903F902F9008958F9267
:101160009F92AF92BF92CF92DF92EF92FF92CF9376
:10117000DF937C01DC01CD91DC91288539854A859E
:101180005B8563307105E4F46C897D898E899F8964
:101190000E94EA1221EE3EE245E652E40E947415F6
:1011A0004B015C0120E030E0A9010E947113181688
:1011B0002CF1A501940160E070E080E09FE344C061
:1011C0006C897D898E899F890E94EA1221EE3EE218
:1011D00045E652E40E9474154B015C0120E030E0CA
:1011E000A9010E946F1587FD1BC020E030E040E0A0
:1011F0005FE3C501B4010E94EA1228C02885398541
:101200004A855B856C897D898E899F890E94EA1257
:1012100021EE3EE245E652E40E947415905810C05B
:10122000288539854A855B856C897D898E899F896A
:101230000E94EA1221EE3EE245E652E40E94741555
:1012400020E030E040E05FE30E94E9120E94ED13ED
:10125000C62FD7011296ED91FC9113972085318509
:101260004285538564897589868997890E94EA1227
:1012700021EE3EE245E652E40E9474154B015C010A
:1012800020E030E0A9010E946F1520E030E040E04E
:101290005FE387FD05C0C501B4010E94EA1204C0E6
:1012A000C501B4010E94E9120E94ED13D62FD701A7
:1012B0001496ED91FC9115972085318542855385D3
:1012C00064897589868997890E94EA1221EE3EE237
:1012D00045E652E40E9474156B017C0120E030E089
:1012E000A9010E946F1520E030E040E05FE387FD38
:1012F00005C0C701B6010E94EA1204C0C701B601C9
:101300000E94E9120E94ED13862FBE01DF91CF915A
:10131000FF90EF90DF90CF90BF90AF909F908F9015
:101320000895CF92DF92EF92FF921F93CF93DF93B6
:10133000EC01673A2CF0162F6B351CF01AE501C052
:1013400016EA2AA1210F273A24F02B351CF02AE5B2
:1013500001C026EA822F220F990BAA0BBB0B9C011E
:10136000AD01265A3F4F4F4F5F4FA8E4B1E00E94B6
:10137000AD1224EB30E040E050E00E948E12690193
:101380007A018FE8C80ED11CE11CF11C6D8DEFA114
:10139000F8A5808191E09093F00180931202109261
:1013A000F1011092130284E0689FB00111246A5F7A
:1013B0007F4F84E692E00E946C0580E090E00E94FE
:1013C000460C80E090E00E94460CC6010E94460C4C
:1013D0008D2D90E00E94460C81E00E94E90B1CA339
:1013E000DF91CF911F91FF90EF90DF90CF90089504
:1013F0008F929F92AF92BF92CF92DF92EF92FF9225
:101400000F931F93CF93DF93EC016A017B0120E0E0
:1014100030E0A901C701B6010E94711387FF04C023
:10142000C701B601905802C0C701B601A88CB98C9B
:101430000A8D1B8D9501A8010E946F15181624F0C6
:101440004601FE2DEF2D03C04501F02FE12FC40111
:10145000AF2FBE2F8C879D87AE87BF879501A801D0
:10146000B4018F2F9E2F0E947B130E9456136C8B0A
:101470007D8B8E8B9F8B0E9476139501A8010E9415
:101480007415688B798B8A8B9B8BDF91CF911F9121
:101490000F91FF90EF90DF90CF90BF90AF909F9013
:1014A0008F9008954F925F926F927F928F929F924A
:1014B000AF92BF92DF92EF92FF920F931F93CF9361
:1014C000DF937C01D22EEC01C358DF4F8A819B81D0
:1014D0000E94F809EA81FB8184889588A688B788EC
:1014E0000C811D81F801848A958AA68AB78A408C6E
:1014F000518C628C738CC501B4010E94E115A3016B
:1015000092010E947415F801648775878687978712
:10151000C501B4010E947613A30192010E947415C3
:10152000F801608B718B828B938BF701E957FF4F2A
:101530006081062E000C770BCE010E94AF08AB0134
:10154000682F2D2DC7010E941108DF91CF911F91A7
:101550000F91FF90EF90DF90BF90AF909F908F9092
:101560007F906F905F904F9008958F929F92AF926F
:10157000BF92CF92DF92EF92FF920F931F93CF9380
:10158000DF93EC014A015B0168017901488F598FB3
:101590006A8F7B8F0C8B1D8B2E8B3F8B0887198757
:1015A0002A873B87C901B8010E94E115A501940172
:1015B0000E9474156C877D878E879F8768837983E7
:1015C0008A839B83C701B6010E947613A50194010B
:1015D0000E947415688B798B8A8B9B8B6C837D83BF
:1015E0008E839F83DF91CF911F910F91FF90EF909A
:1015F000DF90CF90BF90AF909F908F9008952F92E3
:101600003F924F925F926F927F928F929F92AF9292
:10161000BF92CF92DF92EF92FF920F931F93CF93DF
:10162000DF931F92CDB7DEB77C013B01690149838F
:101630004C0182E0880E911C4E895F89688D798DFE
:1016400000E010E09801C4010E94B50AF70114A25D
:1016500015A216A217A210A68BA19CA192A781A7E2
:10166000C78E212C312C88E4482E82E4582E20A2EB
:1016700031A242A253A2168E5701FBE2AF0EB11C5B
:101680004A8D5B8D6C8D7D8D00E010E09801C50169
:101690000E94B50AF701E35BFF4F1082319610827A
:1016A00031961082319610823196108231968BA13C
:1016B0009CA1918380833A97D08231962082318297
:1016C0004282538232971082670194E5C90ED11C81
:1016D0004E8D5F8D68A179A100E010E09801C601F0
:1016E0000E94B50AF60112A213A214A215A216A214
:1016F0008BA19CA190A787A39981958F268E378E69
:1017000040A251A2148E2701FDE74F0E511CF20199
:1017100091828082B382A282D582C482F70123ADF6
:1017200034AD45AD56AD628D738D848D958D0E941F
:10173000EA12F2016683778380879187F7017182CD
:101740006082E757FF4F918280823296B182A082F9
:101750003296D182C08236978AA180833196808367
:101760000F90DF91CF911F910F91FF90EF90DF903D
:10177000CF90BF90AF909F908F907F906F905F9031
:101780004F903F902F9008953FB7F89480910207B3
:1017900090910307A0910407B091050726B5A89B77
:1017A00005C02F3F19F00196A11DB11D3FBFBA2FF3
:1017B000A92F982F8827820F911DA11DB11DBC0153
:1017C000CD0142E0660F771F881F991F4A95D1F718
:1017D0000895382F2091130290911202213208F0BF
:1017E00049C08091EF018111FCCF42E04093EF01AD
:1017F0003093EE013FEF3093ED011092EC01209316
:10180000EB01A2EFB1E04BEC51E0FA013E2F341BAB
:10181000321718F43D913193F9CF1092CA012091FB
:10182000CA01990F922B9093CA019091C9019130EE
:1018300061F41092C9019091CA019093BB009091FC
:10184000BC0093FDF8CF95EC01C095EE9093BC00E1
:101850009091EF019230E1F39091ED019F3F79F08B
:101860008091ED01803241F08091ED01803331F0C3
:1018700084E005C081E003C082E001C083E01092F3
:10188000F101109213021092F0010895682F84E67E
:1018900092E00C946C05CF93C62F9091B80421E090
:1018A0002093F001909312021092F1011092130212
:1018B000682F84E692E00E946C056C2F84E692E02B
:1018C0000E946C0581E0CF910C94E90B90E0FC0143
:1018D000EA56FE4F4491FC01E250FE4F2491FC0178
:1018E000E152FE4F8491882309F44CC04423E1F176
:1018F00050E0FA013197EF30F105B0F5EA5AFF4FA9
:101900000C944416909180009F7707C090918000BE
:101910009F7D03C090918000977F9093800024C0AA
:1019200094B59F7702C094B59F7D94BD1DC09091E2
:1019300090009F7707C0909190009F7D03C0909189
:101940009000977F909390000FC09091C0009F7778
:1019500003C09091C0009F7D9093C00005C09091FE
:10196000C200977F9093C200E82FF0E0EE0FFF1FB8
:10197000EF52FE4FA591B4918FB7F894EC912E2BB6
:101980002C938FBF08954F925F926F927F928F92A8
:101990009F92AF92BF92CF92DF92EF92FF920F93FE
:1019A0001F93CF93DF93CDB7DEB76C970FB6F89444
:1019B000DEBF0FBECDBF6C014A015B017C018DE72C
:1019C000E80EF11CD7018D919C91119712960D9004
:1019D000BC91A02D50962D913D914D915C915397C6
:1019E000FC01608D718D828D938D0E94EA12AB0196
:1019F000BC0100E010E09801CE0101960E94B50AFA
:101A0000B501A401CE0101960E94F8098D889E8837
:101A1000AF88B88CD7010D911C91F801848A958A02
:101A2000A68AB78A408C518C628C738CC501B40134
:101A30000E94E115A30192010E947415D8011C9621
:101A40006D937D938D939C931F97C501B4010E9464
:101A50007613A30192010E947415F801608B718BBB
:101A6000828B938BF601E957FF4F6081062E000CA5
:101A7000770BC7010E94AF08AB01682F25E0C601B4
:101A80000E9411086C960FB6F894DEBF0FBECDBF52
:101A9000DF91CF911F910F91FF90EF90DF90CF904A
:101AA000BF90AF909F908F907F906F905F904F907E
:101AB0000895FC018091C801811103C08FEF9FEF51
:101AC00008959FB7F89482E08093E9002091F20096
:101AD00030E01216130614F421E030E02115310530
:101AE00059F0289A84E68093C7018091F1008083A1
:101AF0008091F200882319F09FBFC90108958BE6F9
:101B00008093E800F9CF2FB7F89483E08093E90041
:101B10009091E800892F807295FF04C09091F200A7
:101B200080E4891B2FBF089580910A0781110DC0A1
:101B300082E08093060784E08093070710920907EC
:101B40001092080781E080930A0786E097E00895E5
:101B50008F929F92AF92BF92CF92DF92EF92FF92BD
:101B60006B017C010E94C40B4B015C01C114D104C8
:101B7000E104F104F1F00E94C40BDC01CB018819EF
:101B80009909AA09BB09883E9340A105B10570F3E4
:101B900021E0C21AD108E108F10888EE880E83E03E
:101BA000981EA11CB11CC114D104E104F10419F761
:101BB000DDCFFF90EF90DF90CF90BF90AF909F90E0
:101BC0008F9008951F920F920FB60F9211242F93AA
:101BD0003F938F939F93AF93BF938091FE06909115
:101BE000FF06A0910007B09101073091FD0623E0A8
:101BF000230F2D3720F40196A11DB11D05C026E845
:101C0000230F0296A11DB11D2093FD068093FE06B1
:101C10009093FF06A0930007B093010780910207FD
:101C200090910307A0910407B09105070196A11DAB
:101C3000B11D8093020790930307A0930407B0930C
:101C40000507BF91AF919F918F913F912F910F9079
:101C50000FBE0F901F901895CF93DF93CDB7DEB7CF
:101C600068970FB6F894DEBF0FBECDBF789484B5E9
:101C7000826084BD84B5816084BD85B5826085BD88
:101C800085B5816085BD80916E00816080936E0016
:101C90001092810080918100826080938100809108
:101CA00081008160809381008091800081608093B9
:101CB00080008091910082608093910080919100DA
:101CC000816080939100809190008160809390006A
:101CD0008091C10084608093C1008091C1008260C6
:101CE0008093C1008091C10081608093C100809188
:101CF000C30081608093C3008091C00082608093A4
:101D0000C0008091C20081608093C20080917A00FF
:101D1000846080937A0080917A00826080937A0058
:101D200080917A00816080937A0080917A00806847
:101D300080937A001092C801109279011092550197
:101D40008091D70081608093D70080EA8093D8008B
:101D500089B5806189BD89B5826089BD09B400FEFD
:101D6000FDCF61E070E080E090E00E94A80D8091DE
:101D7000D8008F7C80618093D8008091E000807FC4
:101D80008093E0008091E1008E7E8093E1008DE001
:101D90008093E200559A209A5D982898EEEFFFE72D
:101DA000859194918B3F9C4D19F481E0809378014B
:101DB0008FEF9FEF90932102809320028CE0E3E16C
:101DC000F1E0DE011D9601900D928A95E1F765EF35
:101DD000E62E66E0F62E00E010E0B801CE010D968A
:101DE0000E94F607D7012D913D917D01F901E7573A
:101DF000FF4F0190F081E02D62A3F901E557FF4FFD
:101E00000190F081E02D72A3F901E357FF4F01909B
:101E1000F081E02D82A30F5F1F4F04301105E9F61A
:101E20008CE0E0E7F2E0DE01119601900D928A95D8
:101E3000E1F755EFE52E56E0F52E00E010E0B80191
:101E4000CE0101960E94F607AB01682F24E6F70148
:101E5000819191917F010E9411080F5F1F4F043003
:101E6000110569F745EFE42E46E0F42ED7010D91F8
:101E70001D917D015801B9E8AB0EB11C01571F4FF0
:101E8000F501C190D1905F01D60193966C91939723
:101E90005C966C93062E000C770B880B990B0E94B6
:101EA0002514F6016087718782879387A016B10693
:101EB00039F7FDEFEF16F6E0FF06C1F61092770155
:101EC000109276011092F101109213021092EF011C
:101ED00011E01093EE011092C90182E00E94660C9D
:101EE00083E00E94660C8091B9008E7F8093B900D8
:101EF0008091B9008D7F8093B90088E48093B80009
:101F000085E48093BC0060E080E00E944B0C8091EF
:101F1000B8041093F001809312021092F101109214
:101F2000130260E084E692E00E946C0581E00E946A
:101F3000E90B8091B8049091EF019111FCCF91E0F1
:101F40009093EF019093EE012FEF2093ED0110920B
:101F5000EC011092EB019093CA019091CA01880F95
:101F6000892B8093CA018091C901813061F410925C
:101F7000C9018091CA018093BB008091BC0083FDA0
:101F8000F8CF85EC01C085EE8093BC008091EF0115
:101F90008130E1F38091EC01811103C08091EC016B
:101FA00001C081E0ABECB1E026E531E0F9019E2F04
:101FB000921B981718F49D919193F9CF1092770185
:101FC0008093760184E692E00E94EA04182F682F3D
:101FD0006F76606180E00E944B0C67E88EEF0E9494
:101FE0004B0C612F80E00E944B0C65E070E080E0BC
:101FF00090E00E94A80D612F616A80E00E944B0C66
:1020000035EFE32E36E0F32ED7018D919D917D01C2
:102010006C01B9E8CB0ED11C8C0101571F4FF601A2
:10202000819191916F01DC0193966C910E949109CD
:10203000C016D106A1F7BDEFEB16B6E0FB0621F7FF
:1020400060ED77E080E090E00E94A80D25E040E0A0
:1020500050E060E470EC8BE093E00E94520A25E0CF
:1020600040E050E060E470E489E294E00E94520AAB
:1020700040E050E060E870EC8AE993E00E94C30C15
:1020800040E050E060E870EC8CE792E00E94C30C06
:1020900095E6E92EF12C2BEFA22E29EFB22E65EF5B
:1020A00076E0FB0181919191BF01DC01A757BF4F01
:1020B00081579F4F2D913D91F90144A123A14213D6
:1020C00004C0A817B907B1F750C0F1E0EF1AF10842
:1020D00009F450C085EFC82E86E0D82EF601019194
:1020E00011916F014801F9E88F0E911C01571F4FA4
:1020F000D401ED91FD914D0183A164A1681302C04B
:1021000015A226C095A1690F673A24F06B351CF023
:102110006AE501C066EA062E000C770B191644F436
:10212000282F082E000C330B2617370754F00DC04C
:10213000992359F0282F082E000C330B62177307D0
:1021400024F4682F880F770B15A2CF010E94910904
:102150008016910669F6BDEFCB16B6E0DB0609F0F6
:10216000BDCFC5010197F1F79ACF26E06D3F720709
:1021700009F097CF60E070E0CB010E94A80D00E06D
:1021800010E001151105E9F30E940000FACF0F934A
:102190001F93CF93DF93CDB7DEB7EC970FB6F894CC
:1021A000DEBF0FBECDBFE4E1F2E01382128288EE03
:1021B00093E0A0E0B0E084839583A683B78323E215
:1021C00031E0318320832FEF3FEF35872487E4E62A
:1021D000F2E01382128284839583A683B78385E31A
:1021E00091E091838083E0E4F7E000E010E020ECF0
:1021F00030E4008311832283338346E656E666EAA1
:1022000070E4448355836683778386E696E6AEE082
:10221000B1E480879187A287B387048715872687D3
:102220003787408B518B628B738B848B958BA68BFE
:10223000B78B008F118F228F338F448F558F668F0E
:10224000778F80A391A3A2A3B3A304A315A326A36E
:1022500037A340A751A762A773A784A795A7A6A7EE
:10226000B7A7E7E0F2E0E491AAE2B7E01496EC93B6
:102270001497E6E0F2E0E4911596EC93159788EE5A
:1022800091E0FC012491E22FF0E0EE0FFF1FEF52EE
:10229000FE4F2591349117963C932E931697E7EEB7
:1022A000F1E0E491F0E0EE0FFF1FED53FE4F2591BA
:1022B000349119963C932E931897FC018491E82F42
:1022C000F0E0EE0FFF1FEB54FE4F859194911B96AB
:1022D0009C938E931A978DE89FE61D969C938E9300
:1022E0001C9784EF91E053969C938E93529784E2CF
:1022F00090E055969C938E9354978CE0E3E4F1E044
:10230000DE01D19601900D928A95E1F780E3E0E439
:10231000F7E0DE01119601900D928A95E1F708EB46
:1023200014E080E4F801808329A93AA94BA91F93FE
:102330000F9381E08F938DB79EB70C970FB6F894EB
:102340009EBF0FBE8DBFADB7BEB711968CE0FE012C
:10235000319601900D928A95E1F760E070E089EB8B
:1023600094E00E94FF0A2CA93DA94EA91F930F9348
:1023700082E08F93EDB7FEB73C970FB6F894FEBF9F
:102380000FBEEDBFADB7BEB711968CE0FE013D9616
:1023900001900D928A95E1F761E070E088E495E0A4
:1023A0000E94FF0A2FA938AD49AD1F930F9383E018
:1023B0008F938DB79EB70C970FB6F8949EBF0FBE44
:1023C0008DBFADB7BEB711968CE0FE017996019036
:1023D0000D928A95E1F762E070E087ED95E00E944A
:1023E000FF0A0FB6F894DEBF0FBECDBF2AAD3BADDE
:1023F0004CAD1F930F9384E08F938DB79EB70C97CE
:102400000FB6F8949EBF0FBE8DBFADB7BEB7119685
:102410008CE0FE01B59601900D928A95E1F763E09C
:1024200070E086E696E00E94FF0A89EB94E09093C4
:10243000F6068093F50688E495E09093F80680937D
:10244000F70687ED95E09093FA068093F90686E605
:1024500096E09093FC068093FB068FE8E9EBF4E0AE
:10246000A9E2B4E001900D928A95E1F78FE8E8E4E3
:10247000F5E0AAE9B3E001900D928A95E1F78FE8C3
:10248000E7EDF5E0ABE0B3E001900D928A95E1F75E
:102490008FE8E6E6F6E0ACE7B2E001900D928A95AF
:1024A000E1F7EEE1F7E010821182128213821482CA
:1024B0001582168217821086118612861386E0E72F
:1024C000F2E010828DE2818382831382848385838C
:1024D000168287838087118682878387E2E1F7E00F
:1024E00010829CE3918386E48283138294838583A4
:1024F0001682978380871186928783870FB6F89418
:10250000DEBF0FBECDBFEC960FB6F894DEBF0FBE98
:10251000CDBFDF91CF911F910F910895052E97FBAD
:102520001EF400940E94A51257FD07D00E94B81215
:1025300007FC03D04EF40C94A512509540953095AD
:1025400021953F4F4F4F5F4F08959095809570951F
:1025500061957F4F8F4F9F4F08950E94DA12A59F7C
:10256000900DB49F900DA49F800D911D112408958E
:10257000A1E21A2EAA1BBB1BFD010DC0AA1FBB1F87
:10258000EE1FFF1FA217B307E407F50720F0A21BF9
:10259000B30BE40BF50B661F771F881F991F1A9466
:1025A00069F760957095809590959B01AC01BD0190
:1025B000CF010895A29FB001B39FC001A39F700DEA
:1025C000811D1124911DB29F700D811D1124911D3B
:1025D00008955058BB27AA270E9401130C94211577
:1025E0000E94E81438F00E94EF1420F039F49F3F65
:1025F00019F426F40C94AA140EF4E095E7FB0C945D
:10260000A414E92F0E94461558F3BA1762077307FE
:102610008407950720F079F4A6F50C9468150EF45C
:10262000E0950B2EBA2FA02D0B01B90190010C01E2
:10263000CA01A0011124FF27591B99F0593F50F4FA
:10264000503E68F11A16F040A22F232F342F442752
:10265000585FF3CF469537952795A795F04053954A
:10266000C9F77EF41F16BA0B620B730B840BBAF01A
:102670009150A1F0FF0FBB1F661F771F881FC2F785
:102680000EC0BA0F621F731F841F48F48795779599
:102690006795B795F7959E3F08F0B0CF9395880F53
:1026A00008F09927EE0F9795879508959F939F7748
:1026B000EEE389379E0728F4EAECF0E00E94D41498
:1026C0000CC00E9460149058A2EA2AED3FE049EC49
:1026D0005FE30E9401130E9421150F9007FC9058A0
:1026E00008950E94801408F481E008950E94F8146F
:1026F000E3950C9432150E948F130C9421150E94BF
:10270000EF1458F00E94E81440F029F45F3F29F0DC
:102710000C94A41451110C9469150C94AA140E94E1
:10272000461568F39923B1F3552391F3951B550B87
:10273000BB27AA2762177307840738F09F5F5F4F94
:10274000220F331F441FAA1FA9F335D00E2E3AF0D3
:10275000E0E832D091505040E695001CCAF72BD0EB
:10276000FE2F29D0660F771F881FBB1F261737073C
:102770004807AB07B0E809F0BB0B802DBF01FF276E
:1027800093585F4F3AF09E3F510578F00C94A41493
:102790000C9469155F3FE4F3983ED4F386957795E2
:1027A0006795B795F7959F5FC9F7880F911D969527
:1027B000879597F90895E1E0660F771F881FBB1F83
:1027C000621773078407BA0720F0621B730B840B30
:1027D000BA0BEE1F88F7E09508950E94F4136894F1
:1027E000B1110C94691508950E944E1588F09F57F9
:1027F00098F0B92F9927B751B0F0E1F0660F771F25
:10280000881F991F1AF0BA95C9F714C0B13091F01A
:102810000E946815B1E008950C946815672F782F11
:102820008827B85F39F0B93FCCF3869577956795DF
:10283000B395D9F73EF490958095709561957F4F4B
:102840008F4F9F4F0895E89409C097FB3EF49095F1
:102850008095709561957F4F8F4F9F4F9923A9F079
:10286000F92F96E9BB279395F69587957795679508
:10287000B795F111F8CFFAF4BB0F11F460FF1BC04C
:102880006F5F7F4F8F4F9F4F16C0882311F096E9DF
:1028900011C0772321F09EE8872F762F05C066238D
:1028A00071F096E8862F70E060E02AF09A95660F46
:1028B000771F881FDAF7880F9695879597F90895FF
:1028C000DF93CF931F930F938B01EC01EEEDF0E0BC
:1028D0000E94AD140E9421159801AE018B01EC01FC
:1028E00060E070E080E89FE30E94E9120E94EF152B
:1028F0009801AE010F911F91CF91DF910C94871534
:10290000990F0008550FAA0BE0E8FEEF1616170600
:10291000E807F907C0F012161306E407F50798F068
:10292000621B730B840B950B39F40A2661F0232B81
:10293000242B252B21F408950A2609F4A140A695FD
:102940008FEF811D811D089597F99F6780E870E0E2
:1029500060E008959FEF80EC0895DF93CF931F937D
:102960000F93FF92EF92DF927B018C01689406C077
:10297000DA2EEF010E948715FE01E894A5912591BA
:10298000359145915591A6F3EF010E940113FE0187
:102990009701A801DA9469F7DF90EF90FF900F910B
:1029A0001F91CF91DF9108959F938F937F936F93A2
:1029B000FF93EF939B01AC010E947415EF91FF917F
:1029C0000E94AD142F913F914F915F910C9474151B
:1029D00000240A94161617061806090608950024FE
:1029E0000A94121613061406050608950C94AA14E8
:1029F0000E944E15D8F3E894E0E0BB279F57F0F013
:102A00002AED3FE049EC06C0EE0FBB0F661F771FB3
:102A1000881F28F0B23A62077307840728F0B25A79
:102A2000620B730B840BE3959A9572F7803830F440
:102A30009A95BB0F661F771F881FD2F790480C949A
:102A40003116092E0394000C11F4882352F0BB0FA9
:102A500040F4BF2B11F460FF04C06F5F7F4F8F4FB6
:102A60009F4F0895EF93E0FF07C0A2EA2AED3FE0F1
:102A700049EC5FEB0E9401130E9421150F90039413
:102A800001FC9058E6E0F1E00C94D41457FD905806
:102A9000440F551F59F05F3F71F04795880F97FB22
:102AA000991F61F09F3F79F08795089512161306DC
:102AB0001406551FF2CF4695F1DF08C0161617060B
:102AC0001806991FF1CF8695710561050894089540
:102AD000E894BB2766277727CB0197F908950E94D2
:102AE000801408F48FEF08950E9487150C94211527
:102AF0000E94E81438F00E94EF1420F0952311F0A2
:102B00000C94A4140C94AA1411240C9469150E941A
:102B1000461570F3959FC1F3950F50E0551F629FC6
:102B2000F001729FBB27F00DB11D639FAA27F00D26
:102B3000B11DAA1F649F6627B00DA11D661F829F4D
:102B40002227B00DA11D621F739FB00DA11D621F32
:102B5000839FA00D611D221F749F3327A00D611D4F
:102B6000231F849F600D211D822F762F6A2F112431
:102B70009F5750409AF0F1F088234AF0EE0FFF1F64
:102B8000BB1F661F771F881F91505040A9F79E3FBB
:102B9000510580F00C94A4140C9469155F3FE4F384
:102BA000983ED4F3869577956795B795F795E79511
:102BB0009F5FC1F7FE2B880F911D9695879597F91A
:102BC00008959F930E94F8140F9007FCEE5F0C94F9
:102BD000321519F416F40C94AA140C942F160E94B2
:102BE0004E15B8F39923C9F3B6F39F57550B87FFDA
:102BF0000E943D160024A0E640EA900180585695B8
:102C0000979528F4805C660F771F881F20F02617A1
:102C10003707480730F4621B730B840B20293129D6
:102C20004A2BA69517940794202531254A2758F753
:102C3000660F771F881F20F026173707480730F4E4
:102C4000620B730B840B200D311D411DA09581F784
:102C5000B901842F9158880F9695879508959F3FC5
:102C600031F0915020F4879577956795B795880F47
:102C7000911D9695879597F9089591505040660F4C
:102C8000771F881FD2F70895EE0FFF1F0590F4916C
:102C9000E02D09940E94DA12B7FF0895821B930B6E
:102CA000089581E090E0F8940C945616F894FFCFC4
:102CB000FFFFFFFF00E100000000000000C1808175
:102CC0000000000005000000FB0000030005FB0001
:102CD0000000009F049B052006B504C0044806249C
:102CE00006000000006C053C050705DA04FE04EA56
:102CF00004DB0400040801050902060A03070B00AF
:00000001FF
