:100000000C9410010C9438010C9438010C943801B4
:100010000C9438010C9438010C9438010C9438017C
:100020000C9438010C9438010C944D100C94BF10B2
:100030000C9438010C9438010C9438010C9438015C
:100040000C9438010C9438010C9438010C9438014C
:100050000C9438010C9438010C9438010C94031062
:100060000C9438010C9438010C9438010C9438012C
:100070000C9438010C9438010C9438010C9438011C
:100080000C9438010C9438010C9438010C9438010C
:100090000C9482040C9438010C9438010C943801AF
:1000A0000C9438010C945B040C943801470C4A0CF6
:1000B000390C3D0C410C6B0C6B0C6B0C4E0C520C48
:1000C000560C5C0C600C6B0C660C036EDB363D9AB8
:1000D0009999993DABAAAA2A3E000000803F072CBF
:1000E0007AA5BA6CC590DA3B9365FC8BBC53F810CB
:1000F000FD3C5692834DBD879D3AB63DCBC9BF5B53
:10010000BE73DA0FC93F05A84CCDB2D44EB938360C
:10011000A9020C50B9918688083CA6AAAA2ABE005A
:100120000000803F080B00020202010009040000E9
:100130000102020000052400100105240101010450
:10014000240206052406000107058103100040096A
:10015000040100020A000000070502024000000737
:100160000583024000000000000200090F000003A8
:100170000401000C0000000000000000000000006E
:10018000000000000000000000240027002A002DCD
:10019000003000000000002300260029002C002F62
:1001A0000000000000250028002B002E0031000474
:1001B000040404040304050202020204030202020E
:1001C00002060606060606040402020204040408E7
:1001D000020110408040102040804080080204014D
:1001E00080402010020110801020404020040309AC
:1001F0000412010002EF0201404123378000010197
:1002000002030141726475696E6F204C4C430041DA
:10021000726475696E6F204D6963726F0000EF1232
:1002200011241FBECFEFDAE0DEBFCDBF11E0A0E0AA
:10023000B1E0EEEEF4E302C005900D92A835B107EF
:10024000D9F728E0A8E5B1E001C01D92A432B207B9
:10025000E1F711E0C0E1D1E004C02197FE010E9466
:10026000631ACF30D107C9F70E94AA140C94751AEB
:100270000C9400004091E7075091E8072091E507B2
:100280003091E60742175307B4F49091E800957057
:10029000E1F39091E80092FD19C08093F100809104
:1002A000E7079091E80701968F739927892B19F436
:1002B0008EEF8093E8008091E7079091E807019620
:1002C0009093E8078093E70781E0089580E0089520
:1002D000CF92DF92EF92FF920F931F93CF93DF9312
:1002E0006C017A018B01C0E0D0E0CE15DF0589F00A
:1002F000D8016D918D01D601ED91FC910190F081B5
:10030000E02DC6010995892B11F47E0102C02196CA
:10031000ECCFC701DF91CF911F910F91FF90EF902C
:10032000DF90CF900895CF93DF931F92CDB7DEB7C4
:100330006983DC01ED91FC910280F381E02D41E0C5
:1003400050E0BE016F5F7F4F09950F90DF91CF9115
:10035000089583E08093E9008091F200882319F0EA
:100360008AE38093E8000895FC018485958597FDD4
:100370000BC09FB7F89482E08093E9008091F2006F
:100380009FBF90E0019608959FB7F89482E0809314
:10039000E9008091F2009FBF90E008950895E091F8
:1003A0000C0880910B08E81730F4F0E0E551F84FA5
:1003B000808190E008958FEF9FEF089590910C0851
:1003C00080910B08981750F4E92FF0E0E551F84FB1
:1003D000208130E09F5F90930C0802C02FEF3FEF29
:1003E000C901089580910B0890E020910C08821BB0
:1003F00091090895089580E090E0089585ED809337
:10040000BC008091BC0084FDFCCF1092CD0108950A
:1004100040917E01262F30E0240F311D213231051D
:10042000DCF42091CD012430C9F4FC0180E090E09F
:10043000861758F430917E012191DC01A45ABE4FF9
:10044000A30FB11D2C930196F3CF80917E01680F0D
:1004500060937E0180E0089581E0089582E0089530
:10046000CF92DF92EF92FF920F931F93CF93DF9380
:100470007C01262F972F8A018091CE01882391F04D
:10048000C62FD72F6E01C40ED51ECC15DD0571F019
:100490006991D701ED91FC910190F081E02DC701A8
:1004A0000995F3CF642F822F0E940802C801DF91C3
:1004B000CF911F910F91FF90EF90DF90CF90089513
:1004C000CF93DF931F92CDB7DEB769832091CE0122
:1004D0002223D1F02091F101203240F021E030E0E0
:1004E000FC013383228380E090E015C08091CF012E
:1004F000E82FF0E0E053FE4F998190838F5F809367
:10050000CF018093F10105C061E0CE0101960E9408
:10051000080281E090E00F90DF91CF9108958F92D3
:100520009F92AF92BF92CF92DF92EF92FF920F9382
:100530001F93CF93DF935C016B017A0180910B01D4
:10054000882309F45BC08091A601882309F456C072
:100550008091EA0780FF05C08091E000826080936F
:10056000E000E70110E00AEF83E0882E9AE3992E7D
:100570002097D9F10E947D0F81110AC0015009F422
:100580003DC061E070E080E090E00E94C90FF0CFD4
:10059000282F30E0C217D3070CF48C2F4FB7F894F4
:1005A0008092E9009091E80095FF1DC0282F30E06F
:1005B000C21BD30BF601982F915020F081918093AC
:1005C000F100FACFC20ED31E112319F09092E80069
:1005D00009C08091E80085FD06C09092E80011E016
:1005E000209709F010E04FBFC3CF1111C3CF5D9A20
:1005F00084E68093E9071E141F0444F081E090E034
:10060000F5019383828380E090E001C0C701DF9110
:10061000CF911F910F91FF90EF90DF90CF90BF90FF
:10062000AF909F908F9008950E947D0F90E0089565
:10063000CF93DF931F92CDB7DEB7FC0184859585FC
:1006400097FD05C02FEF3FEF358724870BC0CE0104
:1006500001960E94530F019719F4898190E002C01E
:100660008FEF9FEF0F90DF91CF9108950F931F931E
:10067000CF93DF931F92CDB7DEB78C01FC01848549
:10068000958597FF0EC0CE0101960E94530F0197EA
:1006900019F4298130E002C02FEF3FEFF8013587D0
:1006A0002487F801848595850F90DF91CF911F9164
:1006B0000F9108958F929F92AF92BF92CF92DF9247
:1006C000EF92FF920F931F93CF93DF93EC014A01B8
:1006D0005B0168017901488F598F6A8F7B8F0C8B82
:1006E0001D8B2E8B3F8B088719872A873B87C90173
:1006F000B8010E94001AA50194010E9493196C8709
:100700007D878E879F87688379838A839B83C701D0
:10071000B6010E949517A50194010E949319688B58
:10072000798B8A8B9B8B6C837D838E839F83A701C0
:100730009601C701B6010E94081768A379A38AA38E
:100740009BA321EE3EE245E652E40E9493196C8F92
:100750007D8F8E8F9F8FDF91CF911F910F91FF9093
:10076000EF90DF90CF90BF90AF909F908F900895C3
:10077000CF92DF92EF92FF920F931F93CF93DF936D
:100780001F92CDB7DEB7182F062FE42E862F880FC5
:100790008E5F99830E943A0183E00E943A01F12E14
:1007A000C12E9981D92E8C2D8F19801798F4F601BE
:1007B000E7FE02C0849101C080810E943A01182F97
:1007C00080E00E943A018123FFEFCF1ADF0A8111F6
:1007D000EACF01C081E00F90DF91CF911F910F917F
:1007E000FF90EF90DF90CF900895DF92EF92FF920D
:1007F0000F931F93CF93DF93D82E8A017B01E40ED2
:10080000F51EEB01CE15DF0571F0D7FE03C0FE012A
:10081000849101C088810E943A0121968111F2CF12
:100820008FEF9FEF01C0C801DF91CF911F910F9112
:10083000FF90EF90DF9008950F931F93CF93DF9376
:100840001F92CDB7DEB782E0898342E450E064E2D4
:1008500071E080E80E94F5030E94900FDC0112967F
:100860000D911C9113970115110569F0D801ED91B7
:10087000FC910280F381E02DBE016F5F7F4FC801C4
:10088000099597FF07C089810F90DF91CF911F9144
:100890000F910895F80100851185E5CF615030F082
:1008A0002091F100FC0120830196F8CF289A84E67C
:1008B0008093A50108951F920F920FB60F921124F5
:1008C0002F933F934F935F936F937F938F939F9358
:1008D000AF93BF93EF93FF93E091A301F091A40135
:1008E0000995FF91EF91BF91AF919F918F917F916A
:1008F0006F915F914F913F912F910F900FBE0F908D
:100900001F9018951F920F920FB60F9211242F93DC
:100910003F934F935F936F937F938F939F93AF9387
:10092000BF93EF93FF938091B900887F803609F4DD
:100930009CC068F5883209F45BC090F4803109F4FA
:1009400054C038F4882309F4F6C0883009F44DC047
:10095000F6C0883109F44CC0803209F45DC0EFC0A4
:10096000803409F468C048F4803309F455C08833F2
:1009700009F0E5C08093CB01D8C0803509F44FC0A1
:10098000883509F45DC0883409F0D9C0D6C08839EB
:1009900009F4C7C0A8F4883709F467C038F488366A
:1009A00009F463C0803709F460C0C9C0883809F40D
:1009B000B8C0803909F45FC0803809F0C0C05BC09E
:1009C000803B09F486C038F4803A09F466C0883A5E
:1009D00009F47FC0B4C0803C09F4A7C0883C09F486
:1009E000A4C0883B09F48AC0AAC08091A80110C0A5
:1009F0009091CA018091C901981770F5E091CA01E0
:100A000081E08E0F8093CA01F0E0E755FE4F8081B0
:100A10008093BB0085EC86C08093CB018EC0E091B3
:100A2000CA0181E08E0F8093CA018091BB00F0E083
:100A3000E755FE4F80839091CA018091C9016EC035
:100A4000E091CA0181E08E0F8093CA018091BB00C2
:100A5000F0E0E755FE4F80838091CC0181116DC09D
:100A600081E08093A70184EA61C083E08093CD0197
:100A70001092A201CFCF8091A201803208F051C024
:100A8000E091A20181E08E0F8093A2018091BB00D2
:100A9000F0E0EE57FE4F8083BDCF85EC8093BC0025
:100AA0001092CD018091A201803230F4E091A20138
:100AB000F0E0EE57FE4F10826091A20170E0E091ED
:100AC0008001F091810182E891E009951092A201E4
:100AD00036C084E08093CD0110927F0110927E0198
:100AE000E0917C01F0917D01099580917E01811159
:100AF00005C081E080937E0110925C01E0917F014E
:100B000081E08E0F80937F01F0E0E45AFE4F8081F8
:100B10008093BB0090917F0180917E01981708F42B
:100B200079CF85E88093BC000AC085EC8093BC0037
:100B30001092CD0104C01092CB010E94FE01FF91E2
:100B4000EF91BF91AF919F918F917F916F915F9145
:100B50004F913F912F910F900FBE0F901F901895BE
:100B6000FB0123E0E227EE0FFF1FE951FB4F01904D
:100B7000F081E02D26EADC0101900D922A95E1F743
:100B80000895FB0121E0E227EE0FFF1FE951FB4F23
:100B90000190F081E02D26EADC0101900D922A956A
:100BA000E1F70895FC016130710549F0623071058B
:100BB00051F0672B61F480819181A2810BC0838108
:100BC0009481A58107C086819781A08503C0818516
:100BD0009285A385BC018A2F08952F923F924F9250
:100BE0005F926F927F928F929F92AF92BF92CF92BD
:100BF000DF92EF92FF920F931F93CF93DF9300D07A
:100C000000D0CDB7DEB71C01D52EC62E922F2536CB
:100C100008F094E6211101C090E020EA220E311C78
:100C200000E010E0E92FF0E0FA83E98324E6422EA9
:100C3000512C612C712CF101E190F1901F01473A88
:100C400034F04B834B352CF0FAE5FB8302C026EAE7
:100C50002B832B81F70123A734A53C83A22F220FDE
:100C6000BB0BA31BB10937FDB395B7FD07C0812CA2
:100C7000912C90E8A92E9FE3B92E06C0812C912CCF
:100C800080E8A82E8FEBB82EB7FF03C0B195A195D1
:100C9000B10929813A810E94691AA30192010E9437
:100CA000AD16CA01B9010E944418A50194010E9421
:100CB00093190E940C186115710541F4EB81FC81B8
:100CC000EF1721F0C501B4010E940C18F70165A7C8
:100CD0000F5F1F4F0330110539F00130110511F47A
:100CE0004D2DA9CF4C2DA7CF0F900F900F900F90A7
:100CF000DF91CF911F910F91FF90EF90DF90CF90F8
:100D0000BF90AF909F908F907F906F905F904F902B
:100D10003F902F900895BF92CF92DF92EF92FF9273
:100D20000F931F93CF93DF93EC01B62EFC01EB568C
:100D3000FF4F0190F081E02D21EE3EE245E652E4C6
:100D400064897589868997890E9493196B017C0152
:100D500020E030E0A9010E948E1920E030E040E060
:100D60005FE387FD05C0C701B6010E94091704C0F3
:100D7000C701B6010E9408170E940C18162FFE0129
:100D8000E956FF4F0190F081E02D21EE3EE245E66D
:100D900052E464897589868997890E9493196B0149
:100DA0007C0120E030E0A9010E948E1920E030E0B3
:100DB00040E05FE387FD05C0C701B6010E94091747
:100DC00004C0C701B6010E9408170E940C18062F24
:100DD000FE01E756FF4F0190F081E02D21EE3EE24B
:100DE00045E652E464897589868997890E9493193A
:100DF0006B017C0120E030E0A9010E948E1920E007
:100E000030E040E05FE387FD05C0C701B6010E9406
:100E1000091704C0C701B6010E9408170E940C18E8
:100E2000FE01E156FF4F908193300CF411952B2D6C
:100E3000412F502FCE010E94ED05DF91CF911F91E0
:100E40000F91FF90EF90DF90CF90BF9008952F9279
:100E50003F924F925F926F927F928F929F92AF924A
:100E6000BF92CF92DF92EF92FF920F931F93CF9397
:100E7000DF931F92CDB7DEB77C013B016901498347
:100E80004C0182E0880E911C4E895F89688D798DB6
:100E900000E010E09801C4010E945A03F70114A673
:100EA00015A616A617A610AA8AA19BA192AB81AB84
:100EB000C7A2212C312C88E4482E82E4582E20A68B
:100EC00031A642A653A616A25701F3E3AF0EB11CFA
:100ED0004A8D5B8D6C8D7D8D00E010E09801C50121
:100EE0000E945A03F701E35AFF4F10823196108295
:100EF00031961082319610823196108231968AA1F5
:100F00009BA1918380833A97D0823196208231824F
:100F10004282538232971082670194E6C90ED11C37
:100F20004E8D5F8D68A179A100E010E09801C601A7
:100F30000E945A03F60112A613A614A615A616A619
:100F40008AA19BA190AB87A7998195A326A237A2DE
:100F500040A651A614A22701F5E94F0E511CF2013B
:100F600091828082B382A282D582C482E255F10945
:100F70002081318142815381F701628D738D848D8F
:100F8000958D0E940917F201668377838087918788
:100F9000F70171826082E056FF4F91828082329623
:100FA000B182A0823296D182C082359781E080835F
:100FB0000F90DF91CF911F910F91FF90EF90DF90F5
:100FC000CF90BF90AF909F908F907F906F905F90E9
:100FD0004F903F902F900895CF92DF92EF92FF9223
:100FE0001F93CF93DF93EC01673A2CF0162F6B35EC
:100FF0001CF01AE501C016EA2AA5210F273A24F0B1
:101000002B351CF02AE501C026EA822F220F990B0E
:10101000AA0BBB0B9C01AD01265A3F4F4F4F5F4FB0
:10102000A8E4B1E00E94CC1624EB30E040E050E0B0
:101030000E94AD1669017A018FE8C80ED11CE11C2F
:10104000F11C6DA1EFA5F8A9808191E09093CE01EC
:101050008093F0011092CF011092F10184E0689F1B
:10106000B00111246A5F7F4F82E492E00E94600227
:1010700080E090E00E94FD0B80E090E00E94FD0B7C
:10108000C6010E94FD0B8D2D90E00E94FD0B81E0BA
:101090000E94A00B1CA7DF91CF911F91FF90EF90B2
:1010A000DF90CF9008956F927F928F929F92AF9230
:1010B000BF92CF92DF92EF92FF920F931F93CF9345
:1010C000DF934B015C0105E610E09BEF692E99EF81
:1010D000792E87EEE82E84E0F82ED7018D919D9130
:1010E000EC01C056DF4F8A559F4FE991F99134A525
:1010F00023A5321304C0C817D907B9F74BC0015054
:10110000110909F44CC0D701CD91DD917D016E012B
:10111000B0EACB0ED11CCA55DF4FD601ED91FD913F
:101120006D0143A524A5241302C015A626C085A5DC
:10113000280F273A24F02B351CF02AE501C026EAB7
:10114000622F220F770B181644F4842F042E000C04
:10115000990B8617970754F00DC0882359F0842FF8
:10116000042E000C990B6817790724F4642F440FA0
:10117000770B15A6CF010E94EC07CC16DD0669F6A9
:10118000BFEEEB16B4E0FB0609F0BDCFC30101973B
:10119000F1F79FCFE4E0AF3EBE0709F09FCFC50156
:1011A000B401DF91CF911F910F91FF90EF90DF90ED
:1011B000CF90BF90AF909F908F907F906F900C9446
:1011C000C90F8F929F92AF92BF92CF92DF92EF9210
:1011D000FF92CF93DF93EC016A017B014C8B5D8B17
:1011E0006E8B7F8B888C998CAA8CBB8CCB01BA01BF
:1011F0000E94001AA50194010E9493196C877D87B3
:101200008E879F87C701B6010E949517A50194019B
:101210000E949319688B798B8A8B9B8B28853985E3
:101220004A855B85C701B6010E94081768A379A3A8
:101230008AA39BA321EE3EE245E652E40E94931965
:101240006C8F7D8F8E8F9F8FDF91CF91FF90EF906E
:10125000DF90CF90BF90AF909F908F9008954F9266
:101260005F926F927F928F929F92AF92BF92EF9216
:10127000FF920F931F93CF93DF93CDB7DEB7A49761
:101280000FB6F894DEBF0FBECDBF7C014A015B01F3
:10129000DC01ED91FC91119740A051A062A073A0D8
:1012A00012968D919C911397DC0150962D913D9152
:1012B0004D915C915397608D718D828D938D0E94BD
:1012C0000917AB01BC0193018201CE0101960E9476
:1012D0005A03B501A401CE0101960E94E1084D898F
:1012E0005E896F89788DF701808191810E94E10884
:1012F000A4960FB6F894DEBF0FBECDBFDF91CF919D
:101300001F910F91FF90EF90BF90AF909F908F90A3
:101310007F906F905F904F9008958F929F92AF92C1
:10132000BF92CF92DF92EF92FF920F931F93CF93D2
:10133000DF93EC016A017B0120E030E0A901C701E5
:10134000B6010E94901787FF04C0C701B6019058EC
:1013500002C0C701B601A88CB98C0A8D1B8D9501FE
:10136000A8010E948E19181624F04601FE2DEF2DBB
:1013700003C04501F02FE12FC401AF2FBE2F8C8792
:101380009D87AE87BF879501A801B4018F2F9E2F3F
:101390000E949A170E9475176B017C016C8B7D8BE4
:1013A0008E8B9F8B0E9495179501A8010E9493191F
:1013B000688B798B8A8B9B8B288539854A855B85E1
:1013C000C701B6010E94081768A379A38AA39BA34B
:1013D00021EE3EE245E652E40E9493196C8F7D8F28
:1013E0008E8F9F8FDF91CF911F910F91FF90EF9084
:1013F000DF90CF90BF90AF909F908F900895EF9225
:10140000FF920F931F93CF93DF931F92CDB7DEB759
:101410008C017C0185E9E80EF11CD70112968D91B3
:101420009C91139729830E948D09D7011296ED9103
:10143000FC911397448955896689778914968D9113
:101440009C9115970E94E1082981622FC8010F9095
:10145000DF91CF911F910F91FF90EF900C948B062D
:101460003F924F925F926F927F928F929F92AF9234
:10147000BF92CF92DF92EF92FF920F931F93CF9381
:10148000DF93CDB7DEB7A4970FB6F894DEBF0FBEDB
:10149000CDBF6C012A013B01322E7C0185E9E80EAB
:1014A000F11CD701ED91FC91119780A091A0A2A011
:1014B000B3A012968D919C911397DC0150962D91BB
:1014C0003D914D915C915397608D718D828D938D7F
:1014D0000E940917AB01BC0195018401CE01019660
:1014E0000E945A03B301A201CE0101960E948D0908
:1014F0004D895E896F89788DF701808191810E9485
:10150000E108632DC6010E948B06A4960FB6F894DD
:10151000DEBF0FBECDBFDF91CF911F910F91FF9026
:10152000EF90DF90CF90BF90AF909F908F907F9083
:101530006F905F904F903F9008950F931F93CF93BC
:10154000DF938C01EC01CB56DF4FEA81FB814489AC
:101550005589668977898C819D810E94E1080C807C
:10156000DD81C02D20E030E044EB52E46C857D85C8
:101570008E859F850E940817AB01BC01CE010E9499
:101580008D0968E0C801DF91CF911F910F910C94F4
:101590008B064F925F926F927F928F929F92AF9243
:1015A000BF92CF92DF92EF92FF920F931F93CF9350
:1015B000DF93CDB7DEB728970FB6F894DEBF0FBE26
:1015C000CDBF88E0ECE0F1E0DE01119601900D92D4
:1015D0008A95E1F79E012F5F3F4F79014E0139E077
:1015E000830E911CF701019111917F0102301105C9
:1015F0004CF052E9452E5AE0552E56E0652E5FE339
:10160000752E08C042E9442E4AE0542E46E0642E6E
:101610004FEB742EC801880F991F9C0129513B4F35
:10162000690124E140E050E060EF71ECF601808157
:1016300091810E94FF09F2E00F27000F111F09514D
:101640001B4F24E140E050E060EF71E4F80180813D
:1016500091810E94FF0960E070E0CB010E94530875
:1016600024E140E050E060EF71E4F6018081918177
:101670000E94FF0960E070E0CB010E945308F60170
:10168000A080B180B301A201C5018B569F4F0E947B
:101690002F0964E1C5010E948B0660E070E0CB0178
:1016A0000E94530824E140E050E060E070E8F60159
:1016B000808191810E94FF0924E140E050E060E0D8
:1016C00070E8F801808191810E94FF0960E070E07C
:1016D000CB010E945308E814F90409F083CF07EE08
:1016E00014E0F801E190F1908F0140E050E0BA0180
:1016F000C7018B569F4F0E942F0964E1C7010E94CA
:101700008B06F4E00F3E1F0761F760E070E0CB014D
:1017100028960FB6F894DEBF0FBECDBFDF91CF91F4
:101720001F910F91FF90EF90DF90CF90BF90AF90FF
:101730009F908F907F906F905F904F900C94530884
:10174000382F2091F1019091F001213208F049C029
:101750008091CD018111FCCF42E04093CD013093C7
:10176000CC013FEF3093CB011092CA012093C90105
:10177000A0EDB1E049EA51E0FA013E2F341B3217E7
:1017800018F43D913193F9CF1092A8012091A8014E
:10179000990F922B9093A8019091A701913061F439
:1017A0001092A7019091A8019093BB009091BC006A
:1017B00093FDF8CF95EC01C095EE9093BC0090910D
:1017C000CD019230E1F39091CB019F3F79F0809170
:1017D000CB01803241F08091CB01803331F084E045
:1017E00005C081E003C082E001C083E01092CF0118
:1017F0001092F1011092CE010895682F82E492E0D8
:101800000C946002CF93C62F90914E0221E020935A
:10181000CE019093F0011092CF011092F101682F48
:1018200082E492E00E9460026C2F82E492E00E94C7
:10183000600281E0CF910C94A00B90E0FC01EA598A
:10184000FE4F4491FC01E253FE4F2491FC01E1550F
:10185000FE4F8491882309F44CC04423E1F150E009
:10186000FA013197EF30F105B0F5EA5AFF4F0C94C9
:10187000631A909180009F7707C0909180009F7DB0
:1018800003C090918000977F9093800024C094B50E
:101890009F7702C094B59F7D94BD1DC0909190002C
:1018A0009F7707C0909190009F7D03C0909190001A
:1018B000977F909390000FC09091C0009F7703C0D6
:1018C0009091C0009F7D9093C00005C09091C20090
:1018D000977F9093C200E82FF0E0EE0FFF1FEF55C7
:1018E000FE4FA591B4918FB7F894EC912E2B2C93C9
:1018F0008FBF08952F923F924F925F926F927F9287
:101900008F929F92BF92CF92DF92EF92FF920F93AE
:101910001F93CF93DF93CDB7DEB7C855D1400FB635
:10192000F894DEBF0FBECDBFE091EB04F091EC0464
:1019300086EADE01A955BF4F01900D928A95E1F725
:101940004BE0E42EF12C5BE0852E912C63E2662EB9
:10195000712C79E3272E312C412C512CECE0BE2E3A
:10196000E0919D07F0919E07908180919707892BC8
:101970008083E0919907F0919A0790818091970771
:10198000809589238083C4010197F1F7E09199073D
:10199000F0919A07908180919707892B8083C301EA
:1019A0000197F1F7E0919907F0919A079081809162
:1019B0009707809589238083E0919D07F0919E078A
:1019C000908180919707809589238083E0919B0780
:1019D000F0919C07908180919807892309F075C048
:1019E0000E94A40F20919F073091A007890120E059
:1019F00030E00855194E2F4F3F4FDC01CB01800FCF
:101A0000911FA21FB31F8093A1079093A207A093D9
:101A1000A307B093A407E0919B07F0919C079081E6
:101A200080919807892381F40E94A40F0091A10757
:101A30001091A2072091A3073091A407061717075A
:101A40002807390740F741C00E94A40F20919F0743
:101A50003091A007DC01CB01820F931FA11DB11DA6
:101A60008093A1079093A207A093A307B093A40724
:101A7000E0919B07F0919C079081809198078923C2
:101A800081F00E94A40F0091A1071091A20720915C
:101A9000A3073091A407061717072807390740F74F
:101AA00014C00E94A40F20919F073091A007A901A4
:101AB000455051092091A1073091A207FA01E21B7C
:101AC000F30BAF01460F571F02C040E050E0BA01D0
:101AD00080E090E0A20191010E94D7162115310506
:101AE0004105510511F424EF31E03093A60720930E
:101AF000A5078091A7079091A80782179307C0F1C7
:101B0000F1E0EF1AF108A1F1EFEEF4E0DE01A35BE2
:101B1000BE4F8B2D01900D928A95E1F737EEC32EC3
:101B200034E0D32E00E010E0B801CE01835B9E4F7D
:101B30000E94D205AB01682F25E0F60181919191B9
:101B40006F010E94ED050F5F1F4F0430110561F713
:101B500060E070E0CB010E9453080E94C90A0E9415
:101B6000C90A64E670E080E090E00E94C90FF8CEF8
:101B700020E140E050E068EC71ECCE0189559F4FC8
:101B80000E94FF09C955DF4FE881F981C75AD0404B
:101B900082E0E827EE0FFF1FE951FB4F0190F08133
:101BA000E02D86EADE01119601900D928A95E1F70B
:101BB00020E140E050E068EC71E4CE0101960E9423
:101BC000FF09C955DF4F68817981C75AD040CE01DE
:101BD00001960E94B00520E140E050E060EA71EC1F
:101BE000CE0101960E94300AC955DF4F6881798184
:101BF000C75AD040CE0101960E94C10520E140E0C5
:101C000050E060EA71ECCE0101960E94300A6AE071
:101C100070E080E090E00E94530828E040E050E04F
:101C200060E272E4CE0189559F4F0E94FF096AE08D
:101C300070E080E090E00E94530828E040E050E02F
:101C400060EA72E4CE0189559F4F0E94300A6AE033
:101C500070E080E090E00E94530828E040E050E00F
:101C600068EC71ECCE0189559F4F0E94FF096AE034
:101C700070E080E090E00E945308C955DF4F688112
:101C80007981C75AD040CE0101960E94C10528E053
:101C900040E050E068EC71E4CE0101960E94FF093B
:101CA000C955DF4F68817981C75AD040CE0101966E
:101CB0000E94C105CE0101960E949D0A6AE070E073
:101CC00080E090E00E945308C955DF4F6881798118
:101CD000C75AD040CE0101960E94B00528E040E0EE
:101CE00050E068E471E4CE0101960E94FF09C955F5
:101CF000DF4F68817981C75AD040CE0101960E949A
:101D0000C10528E040E050E060EF71E4CE010196AB
:101D10000E94300AC955DF4F68817981C75AD04087
:101D2000CE0101960E94C105CE0101960E949D0A36
:101D3000C955DF4F68817981C75AD040CE010196DD
:101D40000E94B00528E040E050E060EA71ECCE016E
:101D500001960E94FF0928E040E050E060EA71EC43
:101D6000CE0189559F4F0E94FF09C955DF4FE88179
:101D7000F981C75AD04082E0E827EE0FFF1FE951F2
:101D8000FB4F0190F081E02D86EADE011196019073
:101D90000D928A95E1F728E040E050E060EA71ECAE
:101DA000CE0101960E94FF0928E040E050E060E08B
:101DB00070E8CE0189559F4F0E94300A6AE070E0BA
:101DC00080E090E00E945308C955DF4F6881798117
:101DD000C75AD040CE0101960E94C10528E040E0DC
:101DE00050E060EA71E4CE0101960E94FF09C955F6
:101DF000DF4F68817981C75AD040CE0101960E9499
:101E0000B00528E040E050E060EA71ECCE010196B8
:101E10000E94FF0928E040E050E060E070E8CE0159
:101E200089559F4F0E94FF09C955DF4FE881F9810D
:101E3000C75AD04082E0E827EE0FFF1FE951FB4F61
:101E40000190F081E02D86EADE01119601900D925D
:101E50008A95E1F728E040E050E060EF71ECCE01B8
:101E600001960E94FF096AE070E080E090E00E9425
:101E7000530881E0C85ADE4F0FB6F894DEBF0FBE9C
:101E8000CDBFDF91CF911F910F91FF90EF90DF9029
:101E9000CF90BF909F908F907F906F905F904F906A
:101EA0003F902F900895FC018091A601811103C0FD
:101EB0008FEF9FEF08959FB7F89482E08093E90039
:101EC0002091F20030E01216130614F421E030E005
:101ED0002115310559F0289A84E68093A501809157
:101EE000F10080838091F200882319F09FBFC9011F
:101EF00008958BE68093E800F9CF2FB7F89483E03C
:101F00008093E9009091E800892F807295FF04C0CA
:101F10009091F20080E4891B2FBF08950E94701AEF
:101F200080911C0881110DC082E08093180884E024
:101F30008093190810921B0810921A0881E0809370
:101F40001C0888E198E008953FB7F8948091140840
:101F500090911508A0911608B091170826B5A89B76
:101F600005C02F3F19F00196A11DB11D3FBFBA2F2B
:101F7000A92F982F8827820F911DA11DB11DBC018B
:101F8000CD0142E0660F771F881F991F4A95D1F750
:101F900008958F929F92AF92BF92CF92DF92EF926D
:101FA000FF926B017C010E94A40F4B015C01C114E4
:101FB000D104E104F104F1F00E94A40FDC01CB0193
:101FC00088199909AA09BB09883E9340A105B10562
:101FD00070F321E0C21AD108E108F10888EE880EFA
:101FE00083E0981EA11CB11CC114D104E104F104CA
:101FF00019F7DDCFFF90EF90DF90CF90BF90AF90BB
:102000009F908F9008951F920F920FB60F921124F8
:102010002F933F938F939F93AF93BF93809110081B
:1020200090911108A0911208B091130830910F08F7
:1020300023E0230F2D3720F40196A11DB11D05C00B
:1020400026E8230F0296A11DB11D20930F0880934F
:10205000100890931108A0931208B0931308809170
:10206000140890911508A0911608B09117080196D0
:10207000A11DB11D8093140890931508A093160814
:10208000B0931708BF91AF919F918F913F912F917E
:102090000F900FBE0F901F9018951F920F920FB6C2
:1020A0000F9211248F939F938091E1009091E10012
:1020B000937F9093E10083FF0FC01092E90091E0BD
:1020C0009093EB001092EC0092E39093ED0010924D
:1020D000A60198E09093F00082FF20C093E09093D7
:1020E000E9009091F200992319F09AE39093E800A7
:1020F0009091E907992339F09091E90791509093D5
:10210000E907992389F19091A501992339F09091DC
:10211000A50191509093A501992341F184FF10C02E
:102120008091E2008E7E81608093E2008091E100E8
:102130008F7E8093E1008091EA078E7E806111C0DE
:1021400080FF16C08091E2008E7E80618093E20065
:102150008091E1008E7E8093E1008091EA078E7E7F
:1021600081608093EA0704C05D98CDCF2898D6CFD0
:102170009F918F910F900FBE0F901F9018951F92F7
:102180000F920FB60F921124CF92DF92EF92FF922F
:102190000F931F932F933F934F935F936F937F936F
:1021A0008F939F93AF93BF93EF93FF93CF93DF935F
:1021B000CDB7DEB76C97DEBFCDBF1092E90080913E
:1021C000E80083FFEDC168E0CE0145960E944E0411
:1021D00082EF8093E8008D8987FF05C09091E80029
:1021E00090FFFCCF03C09EEF9093E800982F90766D
:1021F00009F0C6C09E892F89188D91110CC08038B6
:1022000029F480910E088093F10002C01092F10031
:102210001092F10048C1422F50E0512B913051F4FF
:10222000811141C14130510509F03DC180910E0835
:102230008D7F0BC0933061F4811135C14130510560
:1022400009F031C180910E08826080930E082BC185
:10225000953041F48091E80080FFFCCF2068209306
:10226000E30021C1963009F05FC0EB8CFC8C10922A
:10227000E9001092E8071092E707123091F51092EA
:10228000E6071092E5070E941C0499E0BE016F5F0B
:102290007F4FDB01E92F1D92EA95E9F799831A83B5
:1022A00091E09E8390EA98879AEF99872091E707BB
:1022B0003091E807275F3F4F3C832B838D8310923B
:1022C000E9001092E8071092E707F092E607E09223
:1022D000E50749E050E080E00E94F5030E941C04FD
:1022E000E2C0F092E607E092E5070E94900FDC0161
:1022F0001296ED90FC901397E114F10409F4C0C01C
:10230000D701ED91FC910480F581E02DBE016B5E5B
:102310007F4FC7010995009719F00CF0C4C0C7C0E2
:10232000F701E084F184E8CF973009F4C0C0983019
:1023300021F481E08093F100B6C0993009F0B3C078
:10234000837009F0B4C0E5E4F1E081E021E036E318
:102350009081992361F08093E9002093EB009191A3
:102360009093EC003093ED008F5F873089F78EE714
:102370008093EA001092EA008F898093A60193C0AF
:102380008B8D9C8D1092E9001092E8071092E70760
:102390009093E6078093E507898D811156C08E8959
:1023A0009D89913A59F4813209F081C047E050E0AB
:1023B00064E071E080E00E94F50375C0913209F09D
:1023C00076C0833289F4888D90E0982F88272F89F2
:1023D000822BA0E0B0E08093000190930101A093D4
:1023E0000201B09303015FC0803269F48091E8007C
:1023F00082FFFCCF67E084E091E00E944E048BEF07
:102400008093E80006C0823209F04DC08F89809326
:102410000B0180910D08882319F0EEEFFAE002C05D
:10242000E0E0F8E08091040190910501A09106019F
:10243000B0910701803B9440A105B10509F07BC034
:1024400080910B0180FF93C076C00E94900FDC0149
:1024500012960D911C9113970115110541F1D801A8
:10246000ED91FC910190F081E02DBE016B5E7F4FFC
:10247000C8010995811117C0F80100851185ECCFBD
:10248000113009F44EC0133091F48F89882309F478
:1024900045C0823081F440E86DE08FE092E00E9418
:1024A000B803882321F08EEF8093E80079C081E2A1
:1024B0008093EB0075C0813029F440E86BE083E045
:1024C00092E0EDCF833099F70E94900FDC011296D5
:1024D000ED90FC9013978E010F5F1F4F6801E11480
:1024E000F10479F0D701ED91FC910680F781E02DA0
:1024F000B801C7010995080F111DF701E084F184A7
:10250000EECFD8011C92F60101900020E9F7319737
:10251000BF016C197D0940E0C601C1CF6DEE71E0CD
:1025200002C061EF71E06115710509F2FB01449190
:1025300050E080E840CF0FB6F894A89580916000F5
:10254000886180936000109260000FBEA895EE3FF6
:102550002AE0F20739F08091FE0A9091FF0A9183F8
:102560008083A1CF1092FF0A1092FE0A9CCFEE3F0B
:102570008AE0F80731F0808191819093FF0A80937F
:10258000FE0A87E797E7918380839BE088E10FB697
:10259000F894A895809360000FBE9093600083CF5D
:1025A0006C960FB6F894DEBF0FBECDBFDF91CF9112
:1025B000FF91EF91BF91AF919F918F917F916F911B
:1025C0005F914F913F912F911F910F91FF90EF904D
:1025D000DF90CF900F900FBE0F901F9018950F9324
:1025E0001F93CF93DF93CDB7DEB7EC970FB6F89478
:1025F000DEBF0FBECDBFE2EFF1E01382128288EEA4
:1026000093E0A0E0B0E084839583A683B78328E1BC
:1026100031E0318320832FEF3FEF35872487E2E4D9
:10262000F2E01382128284839583A683B7838AE2C1
:1026300091E091838083EFEEF4E0108211821282A8
:1026400013821482158216821782108611861286D2
:102650001386E9EDF7E010828EE181838283138295
:102660008483858316828783808711868287838708
:10267000E9EAF7E000E010E020E732E400831183AC
:102680002283338340E050E060E572E44483558365
:102690006683778380E090E0A2EBB2E48087918745
:1026A000A287B3870487158726873787408B518B8E
:1026B000628B738B848B958BA68BB78B008F118F5E
:1026C000228F338F448F558F668F778F80A391A38E
:1026D000A2A3B3A304A315A326A337A340A751A77E
:1026E00062A773A784A795A7A6A7B7A7E7EDF1E010
:1026F000E491A3E9B7E01496EC931497E6EDF1E0CA
:10270000E4911596EC93159788EB91E0FC012491E8
:10271000E22FF0E0EE0FFF1FEF55FE4F25913491B1
:1027200017963C932E931697E7EBF1E0E491F0E0D7
:10273000EE0FFF1FED56FE4F2591349119963C93F5
:102740002E931897FC018491E82FF0E0EE0FFF1F05
:10275000EB57FE4F859194911B969C938E931A97FD
:102760008DE89FE61D969C938E931C9784EF91E0D5
:1027700053969C938E9352978EE190E055969C933E
:102780008E9354978CE0E8E3F1E0DE01D19601905E
:102790000D928A95E1F780E3E9EAF7E0DE01119610
:1027A00001900D928A95E1F70EE412E080E4F801C1
:1027B000808329A93AA94BA91F930F938DB79EB780
:1027C0000C970FB6F8949EBF0FBE8DBFADB7BEB7C6
:1027D00011968CE0FE01319601900D928A95E1F7F9
:1027E00060E070E08FE492E00E9427072CA93DA9E9
:1027F0004EA91F930F93EDB7FEB73C970FB6F89411
:10280000FEBF0FBEEDBFADB7BEB711968CE0FE01A7
:102810003D9601900D928A95E1F761E070E085EFB9
:1028200092E00E9427072FA938AD49AD1F930F935F
:102830008DB79EB70C970FB6F8949EBF0FBE8DBF95
:10284000ADB7BEB711968CE0FE01799601900D925E
:102850008A95E1F762E070E08BE993E00E94270738
:102860000FB6F894DEBF0FBECDBF2AAD3BAD4CAD69
:102870001F930F938DB79EB70C970FB6F8949EBF1A
:102880000FBE8DBFADB7BEB711968CE0FE01B596F9
:1028900001900D928A95E1F763E070E081E494E0A5
:1028A0000E9427078FE492E09093E8048093E70466
:1028B00085EF92E09093EA048093E9048BE993E03A
:1028C0009093EC048093EB0481E494E09093EE0405
:1028D0008093ED0481E08093EE0282E08093940384
:1028E00083E080933A0484E08093E00486EAEFE496
:1028F000F2E0ADEEB6E001900D928A95E1F786EA3E
:10290000E5EFF2E0A7E4B6E001900D928A95E1F7D9
:1029100086EAEBE9F3E0A1EAB5E001900D928A9531
:10292000E1F786EAE1E4F4E0ABEFB4E001900D9268
:102930008A95E1F70FB6F894DEBF0FBECDBFEC96D7
:102940000FB6F894DEBF0FBECDBFDF91CF911F91C0
:102950000F910895CF93DF93CDB7DEB7A4970FB64D
:10296000F894DEBF0FBECDBF789484B5826084BD7D
:1029700084B5816084BD85B5826085BD85B5816083
:1029800085BD80916E00816080936E001092810001
:1029900080918100826080938100809181008160BC
:1029A000809381008091800081608093800080917D
:1029B000910082608093910080919100816080936A
:1029C0009100809190008160809390008091C1007F
:1029D00084608093C1008091C10082608093C100B7
:1029E0008091C10081608093C1008091C3008160AB
:1029F0008093C3008091C00082608093C00080916A
:102A0000C20081608093C20080917A0084608093CC
:102A10007A0080917A00826080937A0080917A00B7
:102A2000816080937A0080917A00806880937A0038
:102A30001092A60110920E081092EA078091D7001A
:102A400081608093D70080EA8093D80089B5806147
:102A500089BD89B5826089BD09B400FEFDCF61E002
:102A600070E080E090E00E94C90F8091D8008F7CD8
:102A700080618093D8008091E000807F8093E000A7
:102A80008091E1008E7E8093E1008DE08093E200F2
:102A9000559A209A5D982898EEEFFFE785919491DA
:102AA0008B3F9C4D19F481E080930D088FEF9FEFD1
:102AB0009093FF018093FE018CE0EBE4F1E0DE01F6
:102AC000599601900D928A95E1F797EEE92E94E0E0
:102AD000F92E670100E010E0B801CE0149960E948E
:102AE000D205F601219131916F01F901E056FF4FB6
:102AF0000190F081E02D62A7F901EE55FF4F0190A2
:102B0000F081E02D72A7F901EC55FF4F0190F081A3
:102B1000E02D82A70F5F1F4F04301105E9F68CE00E
:102B2000EFEEF4E0DE011D9601900D928A95E1F73B
:102B30008CE0FE013D96DE01119601900D928A9582
:102B4000E1F787EEC82E84E0D82E00E010E0B8014F
:102B5000CE0101960E94D205AB01682F22E3F60157
:102B6000819191916F010E94ED050F5F1F4F04301D
:102B7000110569F7A7EEB4E08D919D91FC01E05637
:102B8000FF4F0190F081E02D23A524A3FC01EE5519
:102B9000FF4F0190F081E02D23A524A3FC01EC550B
:102BA000FF4F0190F081E02D83A584A3F4E0AF3EB8
:102BB000BF0711F710920C0810920B081092CF016A
:102BC0001092F1011092CD0111E01093CC011092FE
:102BD000A70182E00E941D0C83E00E941D0C8091E1
:102BE000B9008E7F8093B9008091B9008D7F80936A
:102BF000B90088E48093B80085E48093BC0060E06D
:102C000080E00E94020C80914E021093CE018093CE
:102C1000F0011092CF011092F10160E082E492E0A5
:102C20000E94600281E00E94A00B80914E02909170
:102C3000CD019111FCCF91E09093CD019093CC0107
:102C40002FEF2093CB011092CA011092C9019093EB
:102C5000A8019091A801880F892B8093A8018091E9
:102C6000A701813061F41092A7018091A80180939F
:102C7000BB008091BC0083FDF8CF85EC01C085EEE0
:102C80008093BC008091CD018130E1F38091CA0135
:102C9000811103C08091CA0101C081E0A9EAB1E0BD
:102CA0002BEE37E0F9019E2F921B981718F49D9197
:102CB0009193F9CF10920C0880930B0882E492E074
:102CC0000E94DE01182F682F6F76606180E00E94FD
:102CD000020C67E88EEF0E94020C612F80E00E94D8
:102CE000020C65E070E080E090E00E94C90F612F67
:102CF000616A80E00E94020CF701819191917F014D
:102D00006C01F0EACF0ED11C8C010A551F4FF60161
:102D1000819191916F01FC0163A50E94EC07C0169F
:102D2000D106A9F7FFEEEF16F4E0FF0629F760EDF4
:102D300077E080E090E00E94C90F00E010E00E9480
:102D40007A0C62E370E080E090E00E94C90F011508
:102D50001105A9F30E940000F2CF052E97FB1EF487
:102D600000940E94C41657FD07D00E94D71607FC96
:102D700003D04EF40C94C41650954095309521958F
:102D80003F4F4F4F5F4F0895909580957095619597
:102D90007F4F8F4F9F4F08950E94F916A59F900D6A
:102DA000B49F900DA49F800D911D11240895A1E260
:102DB0001A2EAA1BBB1BFD010DC0AA1FBB1FEE1FB5
:102DC000FF1FA217B307E407F50720F0A21BB30B00
:102DD000E40BF50B661F771F881F991F1A9469F77C
:102DE00060957095809590959B01AC01BD01CF01D8
:102DF0000895A29FB001B39FC001A39F700D811DD4
:102E00001124911DB29F700D811D1124911D0895F3
:102E10005058BB27AA270E9420170C9440190E94E3
:102E2000071938F00E940E1920F039F49F3F19F469
:102E300026F40C94C9180EF4E095E7FB0C94C31823
:102E4000E92F0E94651958F3BA17620773078407C0
:102E5000950720F079F4A6F50C9487190EF4E09507
:102E60000B2EBA2FA02D0B01B90190010C01CA0144
:102E7000A0011124FF27591B99F0593F50F4503EEF
:102E800068F11A16F040A22F232F342F4427585FE1
:102E9000F3CF469537952795A795F0405395C9F7F9
:102EA0007EF41F16BA0B620B730B840BBAF09150B1
:102EB000A1F0FF0FBB1F661F771F881FC2F70EC050
:102EC000BA0F621F731F841F48F487957795679523
:102ED000B795F7959E3F08F0B0CF9395880F08F00F
:102EE0009927EE0F9795879508959F939F77EEE327
:102EF00089379E0728F4EAECF0E00E94F3180CC032
:102F00000E947F189058A2EA2AED3FE049EC5FE367
:102F10000E9420170E9440190F9007FC90580895B6
:102F20000E949F1808F481E008950E941719E39504
:102F30000C9451190E94AE170C9440190E940E195E
:102F400058F00E94071940F029F45F3F29F00C94D3
:102F5000C31851110C9488190C94C9180E94651952
:102F600068F39923B1F3552391F3951B550BBB27B8
:102F7000AA2762177307840738F09F5F5F4F220FFD
:102F8000331F441FAA1FA9F335D00E2E3AF0E0E8F4
:102F900032D091505040E695001CCAF72BD0FE2F3E
:102FA00029D0660F771F881FBB1F261737074807D2
:102FB000AB07B0E809F0BB0B802DBF01FF2793588A
:102FC0005F4F3AF09E3F510578F00C94C3180C9473
:102FD00088195F3FE4F3983ED4F38695779567951B
:102FE000B795F7959F5FC9F7880F911D96958795BF
:102FF00097F90895E1E0660F771F881FBB1F6217DE
:1030000073078407BA0720F0621B730B840BBA0B9B
:10301000EE1F88F7E09508950E9413186894B11187
:103020000C94881908950E946D1988F09F5798F0A4
:10303000B92F9927B751B0F0E1F0660F771F881FBD
:10304000991F1AF0BA95C9F714C0B13091F00E94D7
:103050008719B1E008950C948719672F782F882776
:10306000B85F39F0B93FCCF3869577956795B395FE
:10307000D9F73EF490958095709561957F4F8F4F6D
:103080009F4F0895E89409C097FB3EF49095809572
:10309000709561957F4F8F4F9F4F9923A9F0F92F1E
:1030A00096E9BB279395F695879577956795B7959C
:1030B000F111F8CFFAF4BB0F11F460FF1BC06F5F82
:1030C0007F4F8F4F9F4F16C0882311F096E911C094
:1030D000772321F09EE8872F762F05C0662371F0B5
:1030E00096E8862F70E060E02AF09A95660F771FC9
:1030F000881FDAF7880F9695879597F90895DF93DB
:10310000CF931F930F938B01EC01EEEDF0E00E9443
:10311000CC180E9440199801AE018B01EC0160E0CF
:1031200070E080E89FE30E9408170E940E1A980141
:10313000AE010F911F91CF91DF910C94A619990FB9
:103140000008550FAA0BE0E8FEEF16161706E80771
:10315000F907C0F012161306E407F50798F0621B92
:10316000730B840B950B39F40A2661F0232B242B67
:10317000252B21F408950A2609F4A140A6958FEF86
:10318000811D811D089597F99F6780E870E060E0D8
:1031900008959FEF80EC0895DF93CF931F930F93D3
:1031A000FF92EF92DF927B018C01689406C0DA2EC9
:1031B000EF010E94A619FE01E894A5912591359191
:1031C00045915591A6F3EF010E942017FE0197014A
:1031D000A801DA9469F7DF90EF90FF900F911F91AB
:1031E000CF91DF9108959F938F937F936F93FF9378
:1031F000EF939B01AC010E949319EF91FF910E9404
:10320000CC182F913F914F915F910C94931900240A
:103210000A941616170618060906089500240A943B
:10322000121613061406050608950C94C9180E9478
:103230006D19D8F3E894E0E0BB279F57F0F02AED32
:103240003FE049EC06C0EE0FBB0F661F771F881FDB
:1032500028F0B23A62077307840728F0B25A620B6B
:10326000730B840BE3959A9572F7803830F49A9536
:10327000BB0F661F771F881FD2F790480C94501A17
:10328000092E0394000C11F4882352F0BB0F40F474
:10329000BF2B11F460FF04C06F5F7F4F8F4F9F4FB4
:1032A0000895EF93E0FF07C0A2EA2AED3FE049EC62
:1032B0005FEB0E9420170E9440190F90039401FCBD
:1032C0009058E6E0F1E00C94F31857FD9058440F45
:1032D000551F59F05F3F71F04795880F97FB991F75
:1032E00061F09F3F79F08795089512161306140632
:1032F000551FF2CF4695F1DF08C0161617061806BF
:10330000991FF1CF86957105610508940895E89499
:10331000BB2766277727CB0197F908950E949F184E
:1033200008F48FEF08950E94A6190C9440190E948A
:10333000071938F00E940E1920F0952311F00C9413
:10334000C3180C94C91811240C9488190E9465198B
:1033500070F3959FC1F3950F50E0551F629FF001E8
:10336000729FBB27F00DB11D639FAA27F00DB11D01
:10337000AA1F649F6627B00DA11D661F829F22278A
:10338000B00DA11D621F739FB00DA11D621F839F11
:10339000A00D611D221F749F3327A00D611D231FE7
:1033A000849F600D211D822F762F6A2F11249F5735
:1033B00050409AF0F1F088234AF0EE0FFF1FBB1F38
:1033C000661F771F881F91505040A9F79E3F5105F7
:1033D00080F00C94C3180C9488195F3FE4F3983E76
:1033E000D4F3869577956795B795F795E7959F5FA1
:1033F000C1F7FE2B880F911D9695879597F9089533
:103400009F930E9417190F9007FCEE5F0C945119BF
:1034100019F416F40C94C9180C944E1A0E946D19E4
:10342000B8F39923C9F3B6F39F57550B87FF0E9452
:103430005C1A0024A0E640EA9001805856959795C2
:1034400028F4805C660F771F881F20F02617370747
:10345000480730F4621B730B840B202931294A2B57
:10346000A69517940794202531254A2758F7660F0B
:10347000771F881F20F026173707480730F4620BA4
:10348000730B840B200D311D411DA09581F7B901EF
:10349000842F9158880F9695879508959F3F31F016
:1034A000915020F4879577956795B795880F911D72
:1034B0009695879597F9089591505040660F771F1C
:1034C000881FD2F70895EE0FFF1F0590F491E02DAD
:1034D00009940E94F916B7FF0895821B930B089573
:0E34E00081E090E0F8940C94751AF894FFCFF8
:1034EE00FFFFFFFF00E100000000000000000200EF
:1034FE00010003000000000093018F021403A901D4
:10350E00B401180336030000000060023002FB0114
:10351E00CE01F201DE01CF01000408010509020609
:10352E000A03070B00C1808100000000FB0A0000A7
:08353E00000000000000000085
:00000001FF
