:100000000C9402010C942A010C942A010C942A01EC
:100010000C942A010C942A010C942A010C942A01B4
:100020000C942A010C942A010C94CC090C943E0ADD
:100030000C942A010C942A010C942A010C942A0194
:100040000C942A010C942A010C942A010C942A0184
:100050000C942A010C942A010C942A010C94CF02CE
:100060000C942A010C942A010C942A010C942A0164
:100070000C942A010C942A010C942A010C942A0154
:100080000C942A010C942A010C942A010C942A0144
:100090000C9440030C942A010C942A010C942A011C
:1000A0000C942A010C9419030C942A01150D180DB7
:1000B000070D0B0D0F0D390D390D390D1C0D200DD0
:1000C000240D2A0D2E0D390D340D036EDB363D9AAD
:1000D0009999993DABAAAA2A3E000000803F072CBF
:1000E0007AA5BA6CC590DA3B9365FC8BBC53F810CB
:1000F000FD3C5692834DBD879D3AB63DCBC9BF5B53
:10010000BE73DA0FC93F05A84CCDB2D44EB938360C
:10011000A9020C50B9918688083CA6AAAA2ABE005A
:100120000000803F080B00020202010009040000E9
:100130000102020000052400100105240101010450
:10014000240206052406000107058103100040096A
:10015000040100020A000000070502024000000737
:100160000583024000000403090412010002EF02AB
:10017000014041233780000101020301417264758F
:10018000696E6F204C4C430041726475696E6F203C
:100190004D6963726F0000000000250028002B00ED
:1001A0002E003100040404040403040502020202C8
:1001B0000403020202020606060606060404020200
:1001C00002040404080201104080401020408040D6
:1001D000800802040180402010020110801020409D
:1001E00040200000000200090F0000030401000C81
:1001F00000000000000000000000000000000000FF
:100200000000D71111241FBECFEFDAE0DEBFCDBF53
:1002100011E0A0E0B1E0E2E0FEE202C005900D9244
:10022000A035B107D9F727E0A0E5B1E001C01D92E4
:10023000A63FB207E1F711E0C2E0D1E004C0219788
:10024000FE010E94ED16C130D107C9F70E943C0F94
:100250000C94FF160C9400003FB7F8948091C401F1
:100260009091C501A091C601B091C70126B5A89B88
:1002700005C02F3F19F00196A11DB11D3FBFBA2F38
:10028000A92F982F8827820F911DA11DB11DBC0198
:10029000CD0142E0660F771F881F991F4A95D1F75D
:1002A0000895CF92DF92EF92FF920F931F93CF9317
:1002B000DF936C017A018B01C0E0D0E0CE15DF0541
:1002C00089F0D8016D918D01D601ED91FC910190DD
:1002D000F081E02DC6010995892B11F47E0102C041
:1002E0002196ECCFC701DF91CF911F910F91FF9025
:1002F000EF90DF90CF9008950895E091BE01809136
:10030000BD01E81730F4F0E0E356FE4F808190E045
:1003100008958FEF9FEF08959091BE018091BD01E8
:10032000981750F4E92FF0E0E356FE4F208130E0BB
:100330009F5F9093BE0102C02FEF3FEFC901089568
:100340008091BD0190E02091BE01821B910908952A
:10035000089580E090E0089585ED8093BC00809141
:10036000BC0084FDFCCF1092F80108954091760105
:10037000262F30E0240F311D21323105DCF420918D
:10038000F8012430C9F4FC0180E090E0861758F4AD
:10039000309176012191DC01AC5ABE4FA30FB11D03
:1003A0002C930196F3CF80917601680F60937601CC
:1003B00080E0089581E0089582E00895CF92DF9271
:1003C000EF92FF920F931F93CF93DF937C01262F21
:1003D000972F8A018091F901882391F0C62FD72F9A
:1003E0006E01C40ED51ECC15DD0571F06991D701E3
:1003F000ED91FC910190F081E02DC7010995F3CFBB
:10040000642F822F0E94B601C801DF91CF911F9106
:100410000F91FF90EF90DF90CF900895CF93DF93EF
:100420001F92CDB7DEB769832091F9012223D1F065
:1004300020911C02203240F021E030E0FC013383A7
:10044000228380E090E015C08091FA01E82FF0E06F
:10045000E550FE4F998190838F5F8093FA018093DE
:100460001C0205C061E0CE0101960E94B60181E048
:1004700090E00F90DF91CF910895FC0161307105FC
:1004800049F06230710551F0672B61F480819181F0
:10049000A2810BC083819481A58107C08681978149
:1004A000A08503C081859285A385BC018A2F08950C
:1004B0000E94FA164091CA015091CB012091C801C7
:1004C0003091C90142175307B4F49091E800957038
:1004D000E1F39091E80092FD19C08093F1008091C2
:1004E000CA019091CB0101968F739927892B19F43A
:1004F0008EEF8093E8008091CA019091CB01019624
:100500009093CB018093CA0181E0089580E0089523
:10051000615030F02091F100FC0120830196F8CF6A
:10052000289A84E68093D00108958F929F92AF928B
:10053000BF92CF92DF92EF92FF926B017C010E94FB
:100540002C014B015C01C114D104E104F104F1F070
:100550000E942C01DC01CB0188199909AA09BB0969
:10056000883E9340A105B10570F321E0C21AD1087D
:10057000E108F10888EE880E83E0981EA11CB11CEA
:10058000C114D104E104F10419F7DDCFFF90EF901D
:10059000DF90CF90BF90AF909F908F9008951F9263
:1005A0000F920FB60F9211242F933F938F939F9327
:1005B000AF93BF938091C0019091C101A091C201FE
:1005C000B091C3013091BF0123E0230F2D3720F4F8
:1005D0000196A11DB11D05C026E8230F0296A11D9D
:1005E000B11D2093BF018093C0019093C101A093DE
:1005F000C201B093C3018091C4019091C501A09143
:10060000C601B091C7010196A11DB11D8093C4011F
:100610009093C501A093C601B093C701BF91AF915C
:100620009F918F913F912F910F900FBE0F901F9030
:1006300018951F920F920FB60F9211242F933F938C
:100640004F935F936F937F938F939F93AF93BF93DA
:10065000EF93FF93E0919B01F0919C010995FF912D
:10066000EF91BF91AF919F918F917F916F915F912A
:100670004F913F912F910F900FBE0F901F901895A3
:100680001F920F920FB60F9211242F933F934F9307
:100690005F936F937F938F939F93AF93BF93EF93EA
:1006A000FF938091B900887F803609F49CC068F57B
:1006B000883209F45BC090F4803109F454C038F4F6
:1006C000882309F4F6C0883009F44DC0F6C088319B
:1006D00009F44CC0803209F45DC0EFC0803409F4E5
:1006E00068C048F4803309F455C0883309F0E5C088
:1006F0008093F601D8C0803509F44FC0883509F4DD
:100700005DC0883409F0D9C0D6C0883909F4C7C0A3
:10071000A8F4883709F467C038F4883609F463C050
:10072000803709F460C0C9C0883809F4B8C080397E
:1007300009F45FC0803809F0C0C05BC0803B09F499
:1007400086C038F4803A09F466C0883A09F47FC05C
:10075000B4C0803C09F4A7C0883C09F4A4C0883B1D
:1007600009F48AC0AAC08091D30110C09091F5010C
:100770008091F401981770F5E091F50181E08E0FFA
:100780008093F501F0E0EC52FE4F80818093BB0036
:1007900085EC86C08093F6018EC0E091F50181E082
:1007A0008E0F8093F5018091BB00F0E0EC52FE4F7C
:1007B00080839091F5018091F4016EC0E091F50184
:1007C00081E08E0F8093F5018091BB00F0E0EC5248
:1007D000FE4F80838091F70181116DC081E080938D
:1007E000D20184EA61C083E08093F80110929A01FB
:1007F000CFCF80919A01803208F051C0E0919A01E8
:1008000081E08E0F80939A018091BB00F0E0E65862
:10081000FE4F8083BDCF85EC8093BC001092F80121
:1008200080919A01803230F4E0919A01F0E0E6582C
:10083000FE4F108260919A0170E0E0917801F09192
:1008400079018AE791E0099510929A0136C084E017
:100850008093F8011092770110927601E091740173
:10086000F0917501099580917601811105C081E0B3
:100870008093760110925401E091770181E08E0F10
:1008800080937701F0E0EC5AFE4F80818093BB00AB
:100890009091770180917601981708F479CF85E8D7
:1008A0008093BC000AC085EC8093BC001092F801D4
:1008B00004C01092F6010E94AC01FF91EF91BF912C
:1008C000AF919F918F917F916F915F914F913F91E8
:1008D0002F910F900FBE0F901F9018952F923F925F
:1008E0004F925F926F927F928F929F92AF92BF9240
:1008F000CF92DF92EF92FF920F931F93CF93DF93EC
:1009000000D000D0CDB7DEB71C01D52EC62E922F59
:10091000253608F094E6211101C090E02EE9220E60
:10092000311C00E010E0E92FF0E0FA83E98324E6CF
:10093000422E512C612C712CF101E190F1901F019C
:10094000473A34F04B834B352CF0FAE5FB8302C079
:1009500026EA2B832B81F70123A734A53C83A22F02
:10096000220FBB0BA31BB10937FDB395B7FD07C021
:10097000812C912C90E8A92E9FE3B92E06C0812CE2
:10098000912C80E8A82E8FEBB82EB7FF03C0B1954D
:10099000A195B10929813A810E94F316A301920120
:1009A0000E943713CA01B9010E94CE14A501940117
:1009B0000E941D160E9496146115710541F4EB8189
:1009C000FC81EF1721F0C501B4010E949614F701D4
:1009D00065A70F5F1F4F0330110539F00130110576
:1009E00011F44D2DA9CF4C2DA7CF0F900F900F9044
:1009F0000F90DF91CF911F910F91FF90EF90DF90BB
:100A0000CF90BF90AF909F908F907F906F905F90AE
:100A10004F903F902F900895CF92DF92EF92FF92E8
:100A20001F93CF93DF93EC01673A2CF0162F6B35B1
:100A30001CF01AE501C016EA2AA5210F273A24F076
:100A40002B351CF02AE501C026EA822F220F990BD4
:100A5000AA0BBB0B9C01AD01265A3F4F4F4F5F4F76
:100A6000A8E4B1E00E94561324EB30E040E050E0EF
:100A70000E94371369017A018FE8C80ED11CE11C6E
:100A8000F11C6DA1EFA5F8A9808191E09093F90187
:100A900080931B021092FA0110921C0284E0689F5E
:100AA000B00111246A5F7F4F8DE192E00E940E0237
:100AB00080E090E00E94CB0C80E090E00E94CB0CA4
:100AC000C6010E94CB0C8D2D90E00E94CB0C81E0E2
:100AD0000E946E0C1CA7DF91CF911F91FF90EF90A9
:100AE000DF90CF9008958F929F92AF92BF92CF9256
:100AF000DF92EF92FF92CF93DF93EC016A017B01CB
:100B00004C8B5D8B6E8B7F8B888C998CAA8CBB8C6D
:100B1000CB01BA010E948A16A50194010E941D16FC
:100B20006C877D878E879F87C701B6010E941F143F
:100B3000A50194010E941D16688B798B8A8B9B8B73
:100B4000288539854A855B85C701B6010E949213C5
:100B500068A379A38AA39BA321EE3EE245E652E473
:100B60000E941D166C8F7D8F8E8F9F8FDF91CF918E
:100B7000FF90EF90DF90CF90BF90AF909F908F90BD
:100B800008958F929F92AF92BF92CF92DF92EF9291
:100B9000FF920F931F93CF93DF93EC016A017B01C8
:100BA00020E030E0A901C701B6010E941A1487FFB6
:100BB00004C0C701B601905802C0C701B601A88C95
:100BC000B98C0A8D1B8D9501A8010E941816181664
:100BD00024F04601FE2DEF2D03C04501F02FE12F3B
:100BE000C401AF2FBE2F8C879D87AE87BF8795012D
:100BF000A801B4018F2F9E2F0E9424140E94FF137E
:100C00006B017C016C8B7D8B8E8B9F8B0E941F14E4
:100C10009501A8010E941D16688B798B8A8B9B8B8E
:100C2000288539854A855B85C701B6010E949213E4
:100C300068A379A38AA39BA321EE3EE245E652E492
:100C40000E941D166C8F7D8F8E8F9F8FDF91CF91AD
:100C50001F910F91FF90EF90DF90CF90BF90AF90DA
:100C60009F908F9008950F931F93CF93DF93CDB7ED
:100C7000DEB740E050E060E272E4CE0107960E94E9
:100C8000670E40E050E060E272ECCE018D509E4F66
:100C90000E94670E40E050E060EA71E4CE018555A5
:100CA0009F4F0E94670E40E050E060E272ECCE0180
:100CB00085559F4F0E94840E40E050E060E272EC48
:100CC000CE01815B9E4F0E94840E40E050E060E2C6
:100CD00072E4CE018D509E4F0E94670E0E94480D17
:100CE00040E050E060E772E4CE018D509E4F0E94DC
:100CF000840E0E94480D40E050E060E272ECCE01AC
:100D00008D509E4F0E94670E0E94480D40E050E0BB
:100D100060E272E4CE01815B9E4F0E94670ECC516F
:100D2000DE4FE881F981C45ED140448955896689E6
:100D30007789CA51DE4F88819981C65ED1400E9471
:100D40007305CA51DE4F08811981C65ED14020E08B
:100D500030E040E752E4F801648575858685978523
:100D60000E949213AB01BC01C8010E94C105CE01D3
:100D7000815B9E4F0E94CE0D0E94480D40E050E0E6
:100D8000BA01CE01815B9E4F0E94840E0E94480DE5
:100D900040E050E060EA71ECCE01815B9E4F0E9422
:100DA000670E0E94480D40E050E060E272E4CE0120
:100DB000815B9E4F0E94670E40E050E060E272EC63
:100DC000CE0185559F4F0E94670E40E050E0BA016A
:100DD000CE018D509E4F0E94670E40E050E060E0D3
:100DE00070E8CE0107960E94670E40E050E060E098
:100DF00070E8CE018D509E4F0E94840E0E94480DD7
:100E0000DF91CF911F910F9108958F929F92AF9292
:100E1000BF92CF92DF92EF92FF920F931F93CF93E7
:100E2000DF93EC014A015B0168017901488F598F1A
:100E30006A8F7B8F0C8B1D8B2E8B3F8B08871987BE
:100E40002A873B87C901B8010E948A16A50194012F
:100E50000E941D166C877D878E879F8768837983A4
:100E60008A839B83C701B6010E941F14A5019401C8
:100E70000E941D16688B798B8A8B9B8B6C837D837C
:100E80008E839F83A7019601C701B6010E9492132A
:100E900068A379A38AA39BA321EE3EE245E652E430
:100EA0000E941D166C8F7D8F8E8F9F8FDF91CF914B
:100EB0001F910F91FF90EF90DF90CF90BF90AF9078
:100EC0009F908F9008952F923F924F925F926F92D2
:100ED0007F928F929F92AF92BF92CF92DF92EF92CA
:100EE000FF920F931F93CF93DF93CDB7DEB72D976C
:100EF0000FB6F894DEBF0FBECDBF3C014D87452E27
:100F0000562E89829A82AB82BC82CD82DE82EF82AB
:100F1000F88609871A872B873C872AA03BA049813E
:100F20005A816B817C8100E010E098010E940507E6
:100F3000F30112A613A614A615A616A630AA27A674
:100F40008D8585A3812C912C88E4A82E82E4B82E6F
:100F500086A297A2A0A6B1A614A26301F1E3CF0EC8
:100F6000D11C4D815E816F81788500E010E0980191
:100F7000C6010E940507F301E55AFF4F1082319622
:100F800010823196108231961082319610823196FD
:100F9000318220823A974082319680829182A28269
:100FA000B38232971082730182E6E80EF11C498504
:100FB0005A856B857C8500E010E09801C7010E948E
:100FC0000507F70112A613A614A615A616A630AAA1
:100FD00027A655A286A297A2A0A6B1A614A2830115
:100FE0000D561F4FF80171826082D382C282F58252
:100FF000E482E255F1092081318142815381F3017C
:10100000608D718D828D938D0E949313F80166839C
:101010007783808791873B96718260823296D182F6
:10102000C0823296F182E082359781E080832D96EE
:101030000FB6F894DEBF0FBECDBFDF91CF911F91E9
:101040000F91FF90EF90DF90CF90BF90AF909F9067
:101050008F907F906F905F904F903F902F9008956A
:10106000CF93DF931F92CDB7DEB76983DC01ED919B
:10107000FC910280F381E02D41E050E0BE016F5F02
:101080007F4F09950F90DF91CF91089583E0809372
:10109000E9008091F200882319F08AE38093E80048
:1010A0000895FC018485958597FD0BC09FB7F89442
:1010B00082E08093E9008091F2009FBF90E001966A
:1010C00008959FB7F89482E08093E9008091F20040
:1010D0009FBF90E008958F929F92AF92BF92CF9260
:1010E000DF92EF92FF920F931F93CF93DF935C01F8
:1010F0006B017A0180910B01882309F45BC0809118
:10110000D101882309F456C08091CE0180FF05C02B
:101110008091E00082608093E000E70110E00AEF38
:1011200083E0882E9AE3992E2097D9F10E94170F19
:1011300081110AC0015009F43DC061E070E080E017
:1011400090E00E949502F0CF282F30E0C217D3071D
:101150000CF48C2F4FB7F8948092E9009091E8003E
:1011600095FF1DC0282F30E0C21BD30BF601982F2E
:10117000915020F081918093F100FACFC20ED31EDE
:10118000112319F09092E80009C08091E80085FDD4
:1011900006C09092E80011E0209709F010E04FBFE0
:1011A000C3CF1111C3CF5D9A84E68093CF011E1483
:1011B0001F0444F081E090E0F5019383828380E096
:1011C00090E001C0C701DF91CF911F910F91FF9077
:1011D000EF90DF90CF90BF90AF909F908F90089549
:1011E0000E94170F90E008950F931F93CF93DF9302
:1011F0001F92CDB7DEB78C01FC018485958597FFE2
:101200000EC0CE0101960E94ED0E019719F42981BE
:1012100030E002C02FEF3FEFF80135872487F80157
:10122000848595850F90DF91CF911F910F9108953F
:10123000CF93DF931F92CDB7DEB7FC0184859585F0
:1012400097FD05C02FEF3FEF358724870BC0CE01F8
:1012500001960E94ED0E019719F4898190E002C079
:101260008FEF9FEF0F90DF91CF910895CF92DF9294
:10127000EF92FF920F931F93CF93DF931F92CDB7FF
:10128000DEB7182F062FE42E862F880F8E5F9983E6
:101290000E945A0283E00E945A02F12EC12E9981C7
:1012A000D92E8C2D8F19801798F4F601E7FE02C015
:1012B000849101C080810E945A02182F80E00E9410
:1012C0005A028123FFEFCF1ADF0A8111EACF01C052
:1012D00081E00F90DF91CF911F910F91FF90EF90E0
:1012E000DF90CF900895DF92EF92FF920F931F93BC
:1012F000CF93DF93D82E8A017B01E40EF51EEB011C
:10130000CE15DF0571F0D7FE03C0FE01849101C048
:1013100088810E945A0221968111F2CF8FEF9FEFB0
:1013200001C0C801DF91CF911F910F91FF90EF9005
:10133000DF9008950F931F93CF93DF931F92CDB744
:10134000DEB782E0898342E450E064E271E080E845
:101350000E9473090E94280FDC0112960D911C91C6
:1013600013970115110569F0D801ED91FC910280E8
:10137000F381E02DBE016F5F7F4FC801099597FF94
:1013800007C089810F90DF91CF911F910F91089530
:10139000F80100851185E5CF1F920F920FB60F92CD
:1013A00011248F939F938091E1009091E100937FAE
:1013B0009093E10083FF0FC01092E90091E09093B9
:1013C000EB001092EC0092E39093ED001092D101AB
:1013D00098E09093F00082FF20C093E09093E900A2
:1013E0009091F200992319F09AE39093E80090917C
:1013F000CF01992339F09091CF0191509093CF0173
:10140000992389F19091D001992339F09091D001DD
:1014100091509093D001992341F184FF10C08091A5
:10142000E2008E7E81608093E2008091E1008F7EF9
:101430008093E1008091CE018E7E806111C080FF9B
:1014400016C08091E2008E7E80618093E2008091E0
:10145000E1008E7E8093E1008091CE018E7E8160DE
:101460008093CE0104C05D98CDCF2898D6CF9F91B0
:101470008F910F900FBE0F901F9018951F920F9293
:101480000FB60F921124CF92DF92EF92FF920F933B
:101490001F932F933F934F935F936F937F938F93FC
:1014A0009F93AF93BF93EF93FF93CF93DF93CDB70A
:1014B000DEB76C97DEBFCDBF1092E9008091E800E7
:1014C00083FFEDC168E0CE0145960E94880282EF5D
:1014D0008093E8008D8987FF05C09091E80090FF18
:1014E000FCCF03C09EEF9093E800982F907609F010
:1014F000C6C09E892F89188D91110CC0803829F49F
:101500008091CD018093F10002C01092F100109201
:10151000F10048C1422F50E0512B913051F481111C
:1015200041C14130510509F03DC18091CD018D7F10
:101530000BC0933061F4811135C14130510509F080
:1015400031C18091CD0182608093CD012BC1953056
:1015500041F48091E80080FFFCCF20682093E300F5
:1015600021C1963009F05FC0EB8CFC8C1092E90031
:101570001092CB011092CA01123091F51092C9015C
:101580001092C8010E949A0999E0BE016F5F7F4FD7
:10159000DB01E92F1D92EA95E9F799831A8391E01F
:1015A0009E8390EA98879AEF99872091CA0130919B
:1015B000CB01275F3F4F3C832B838D831092E90043
:1015C0001092CB011092CA01F092C901E092C801B9
:1015D00049E050E080E00E9473090E949A09E2C04D
:1015E000F092C901E092C8010E94280FDC01129616
:1015F000ED90FC901397E114F10409F4C0C0D701F9
:10160000ED91FC910480F581E02DBE016B5E7F4F72
:10161000C7010995009719F00CF0C4C0C7C0F701C5
:10162000E084F184E8CF973009F4C0C0983021F409
:1016300081E08093F100B6C0993009F0B3C08370A7
:1016400009F0B4C0E9E1F1E081E021E036E3908106
:10165000992361F08093E9002093EB00919190939E
:10166000EC003093ED008F5F873089F78EE7809331
:10167000EA001092EA008F898093D10193C08B8D8C
:101680009C8D1092E9001092CB011092CA019093A8
:10169000C9018093C801898D811156C08E899D89A9
:1016A000913A59F4813209F081C047E050E064E09A
:1016B00071E080E00E94730975C0913209F076C034
:1016C000833289F4888D90E0982F88272F89822B88
:1016D000A0E0B0E08093000190930101A09302018B
:1016E000B09303015FC0803269F48091E80082FF0B
:1016F000FCCF67E084E091E00E9488028BEF80934A
:10170000E80006C0823209F04DC08F8980930B013A
:101710008091CC01882319F0EEEFFAE002C0E0E0FE
:10172000F8E08091040190910501A0910601B0912B
:101730000701803B9440A105B10509F07BC0809171
:101740000B0180FF93C076C00E94280FDC01129627
:101750000D911C9113970115110541F1D801ED91DF
:10176000FC910190F081E02DBE016B5E7F4FC801BE
:101770000995811117C0F80100851185ECCF113052
:1017800009F44EC0133091F48F89882309F445C0C1
:10179000823081F440E86DE088E891E00E943609EB
:1017A000882321F08EEF8093E80079C081E2809356
:1017B000EB0075C0813029F440E86BE08CE791E0E4
:1017C000EDCF833099F70E94280FDC011296ED903F
:1017D000FC9013978E010F5F1F4F6801E114F10415
:1017E00079F0D701ED91FC910680F781E02DB801E9
:1017F000C7010995080F111DF701E084F184EECFB0
:10180000D8011C92F60101900020E9F73197BF0141
:101810006C197D0940E0C601C1CF66E671E002C0E7
:101820006AE671E06115710509F2FB01449150E02F
:1018300080E840CF0FB6F894A89580916000886149
:1018400080936000109260000FBEA895EE3F2AE0E2
:10185000F20739F08091FE0A9091FF0A918380830C
:10186000A1CF1092FF0A1092FE0A9CCFEE3F8AE0B1
:10187000F80731F0808191819093FF0A8093FE0AEE
:1018800087E797E7918380839BE088E10FB6F89420
:10189000A895809360000FBE9093600083CF6C96F4
:1018A0000FB6F894DEBF0FBECDBFDF91CF91FF9191
:1018B000EF91BF91AF919F918F917F916F915F91C8
:1018C0004F913F912F911F910F91FF90EF90DF90DB
:1018D000CF900F900FBE0F901F901895382F20912A
:1018E0001C0290911B02213208F049C08091F8013E
:1018F0008111FCCF42E04093F8013093F7013FEFB4
:101900003093F6011092F5012093F401ABEFB1E0B2
:1019100044ED51E0FA013E2F341B321718F43D918B
:101920003193F9CF1092D3012091D301990F922BCB
:101930009093D3019091D201913061F41092D20131
:101940009091D3019093BB009091BC0093FDF8CF90
:1019500095EC01C095EE9093BC009091F801923007
:10196000E1F39091F6019F3F79F08091F60180328A
:1019700041F08091F601803331F084E005C081E0D0
:1019800003C082E001C083E01092FA0110921C02B1
:101990001092F9010895682F8DE192E00C940E02E7
:1019A000CF93C62F9091B90421E02093F901909331
:1019B0001B021092FA0110921C02682F8DE192E036
:1019C0000E940E026C2F8DE192E00E940E0281E0D7
:1019D000CF910C946E0C90E0FC01EE51FE4F4491BF
:1019E000FC01ED53FE4F2491FC01EC55FE4F849118
:1019F000882309F44CC04423E1F150E0FA01319707
:101A0000EF30F105B0F5EA5AFF4F0C94ED169091C6
:101A100080009F7707C0909180009F7D03C09091C8
:101A20008000977F9093800024C094B59F7702C078
:101A300094B59F7D94BD1DC0909190009F7707C085
:101A4000909190009F7D03C090919000977F90931C
:101A500090000FC09091C0009F7703C09091C0008C
:101A60009F7D9093C00005C09091C200977F909396
:101A7000C200E82FF0E0EE0FFF1FEA56FE4FA591DF
:101A8000B4918FB7F894EC912E2B2C938FBF0895BF
:101A9000AF92BF92CF92DF92EF92FF920F931F937C
:101AA000CF93DF9305E610E09BEFC92E99EFD92E77
:101AB0008AE4E82E87E0F82EF70181919191DC010C
:101AC000A256BF4F8C559F4FCD91DD913CA52BA5C4
:101AD000321304C0A817B907B9F74BC00150110958
:101AE00009F44CC0D701CD91DD917D015E01BEE9C5
:101AF000AB0EB11CCC55DF4FD501ED91FD915D01D1
:101B000083A564A5681302C015A626C095A5690F14
:101B1000673A24F06B351CF06AE501C066EA062ED0
:101B2000000C770B191644F4282F082E000C330BE9
:101B30002617370754F00DC0992359F0282F082E87
:101B4000000C330B6217730724F4682F880F770B90
:101B500015A6CF010E940C05AC16BD0669F6B2E5CC
:101B6000EB16B7E0FB0609F0BDCFC6010197F1F710
:101B70009FCF87E0E235F80709F09FCF62E370E07E
:101B800080E090E0DF91CF911F910F91FF90EF9057
:101B9000DF90CF90BF90AF900C949502CF92DF92E0
:101BA000EF92FF920F931F93CF93DF93EC01FC0111
:101BB000ED56FF4F0190F081E02D21EE3EE245E62B
:101BC00052E464897589868997890E941D166B0184
:101BD0007C0120E030E0A9010E94181620E030E0EE
:101BE00040E05FE387FD05C0C701B6010E94931383
:101BF00004C0C701B6010E9492130E949614162FCA
:101C0000FE01EB56FF4F0190F081E02D21EE3EE208
:101C100045E652E464897589868997890E941D1674
:101C20006B017C0120E030E0A9010E94181620E041
:101C300030E040E05FE387FD05C0C701B6010E94C8
:101C4000931304C0C701B6010E9492130E94961418
:101C5000062FFE01E956FF4F0190F081E02D21EEA5
:101C60003EE245E652E464897589868997890E9437
:101C70001D166B017C0120E030E0A9010E941816BE
:101C800020E030E040E05FE387FD05C0C701B6011A
:101C90000E94931304C0C701B6010E9492130E94D0
:101CA0009614FE01E356FF4F808183300CF41195AA
:101CB00022E0412F502FCE010E946E04DF91CF9180
:101CC0001F910F91FF90EF90DF90CF9008950F93A9
:101CD0001F93CF93DF938C01EC01CD56DF4F8A81A8
:101CE0009B810E94C105EA81FB81448955896689EF
:101CF00077898C819D810E947305C801DF91CF9106
:101D00001F910F910C94CE0D4F925F926F927F9224
:101D10008F929F92AF92BF92CF92DF92EF92FF92FB
:101D20000F931F93CF93DF93CDB7DEB7A4970FB672
:101D3000F894DEBF0FBECDBF6C014A015B017C0190
:101D400083E9E80EF11CD701ED91FC91119740A0B9
:101D500051A062A073A012968D919C911397DC0103
:101D600050962D913D914D915C915397608D718D61
:101D7000828D938D0E949313AB01BC01930182016C
:101D8000CE0101960E940507B501A401CE0101967E
:101D90000E94C1054D895E896F89788DF701808128
:101DA00091810E947305C6010E94CE0DA4960FB6C4
:101DB000F894DEBF0FBECDBFDF91CF911F910F9181
:101DC000FF90EF90DF90CF90BF90AF909F908F905B
:101DD0007F906F905F904F900895FC018091D101AA
:101DE000811103C08FEF9FEF08959FB7F89482E0B1
:101DF0008093E9002091F20030E01216130614F4EB
:101E000021E030E02115310559F0289A84E68093CD
:101E1000D0018091F10080838091F200882319F035
:101E20009FBFC90108958BE68093E800F9CF2FB7D3
:101E3000F89483E08093E9009091E800892F807204
:101E400095FF04C09091F20080E4891B2FBF089594
:101E50008091620781110DC082E080935E0784E06B
:101E600080935F07109261071092600781E0809372
:101E700062078EE597E00895CF93DF93CDB7DEB785
:101E8000A4970FB6F894DEBF0FBECDBF789484B58B
:101E9000826084BD84B5816084BD85B5826085BD66
:101EA00085B5816085BD80916E00816080936E00F4
:101EB00010928100809181008260809381008091E6
:101EC0008100816080938100809180008160809397
:101ED00080008091910082608093910080919100B8
:101EE0008160809391008091900081608093900048
:101EF0008091C10084608093C1008091C1008260A4
:101F00008093C1008091C10081608093C100809165
:101F1000C30081608093C3008091C0008260809381
:101F2000C0008091C20081608093C20080917A00DD
:101F3000846080937A0080917A00826080937A0036
:101F400080917A00816080937A0080917A00806825
:101F500080937A001092D1011092CD011092CE019F
:101F60008091D70081608093D70080EA8093D80069
:101F700089B5806189BD89B5826089BD09B400FEDB
:101F8000FDCF61E070E080E090E00E9495028091DA
:101F9000D8008F7C80618093D8008091E000807FA2
:101FA0008093E0008091E1008E7E8093E1008DE0DF
:101FB0008093E200559A209A5D982898EEEFFFE70B
:101FC000859194918B3F9C4D19F481E08093CC01D5
:101FD0008CE0ECE0F1E0DE01599601900D928A95DB
:101FE000E1F79AE4E92E97E0F92E670100E010E0AE
:101FF000B801CE0149960E943D02F601219131912E
:102000006F01F901E256FF4F0190F081E02D62A7C8
:10201000F901E056FF4F0190F081E02D72A7F90120
:10202000EE55FF4F0190F081E02D82A70F5F1F4F0B
:1020300004301105E9F68CE0E2E5F7E0DE011D96DB
:1020400001900D928A95E1F78CE0FE013D96DE014C
:10205000119601900D928A95E1F78AE4C82E87E0E7
:10206000D82E00E010E0B801CE0101960E943D029A
:10207000AB01682F22E3F601819191916F010E94DB
:102080006E040F5F1F4F0430110569F7AAE4B7E033
:102090008D919D91FC01E256FF4F0190F081E02D62
:1020A00023A524A3FC01E056FF4F0190F081E02D11
:1020B00023A524A3FC01EE55FF4F0190F081E02DF4
:1020C00083A584A3F7E0A235BF0711F71092BE01E4
:1020D0001092BD011092FA0110921C021092F801A8
:1020E00011E01093F7011092D20182E00E94EB0CF4
:1020F00083E00E94EB0C8091B9008E7F8093B90041
:102100008091B9008D7F8093B90088E48093B800F6
:1021100085E48093BC0060E080E00E94D00C809158
:10212000B9041093F90180931B021092FA011092E6
:102130001C0260E08DE192E00E940E0281E00E94AC
:102140006E0C8091B9049091F8019111FCCF91E04F
:102150009093F8019093F7012FEF2093F6011092DE
:10216000F5011092F4019093D3019091D301880F5F
:10217000892B8093D3018091D201813061F4109238
:10218000D2018091D3018093BB008091BC0083FD7C
:10219000F8CF85EC01C085EE8093BC008091F801FA
:1021A0008130E1F38091F501811103C08091F50147
:1021B00001C081E0A4EDB1E02DE931E0F9019E2FED
:1021C000921B981718F49D919193F9CF1092BE012C
:1021D0008093BD018DE192E00E948C01182F682F41
:1021E0006F76606180E00E94D00C67E88EEF0E94FD
:1021F000D00C612F80E00E94D00C65E070E080E0A0
:1022000090E00E949502612F616A80E00E94D00CEC
:10221000F701819191917F016C01FEE9CF0ED11CF4
:102220008C010C551F4FF601819191916F01FC01BA
:1022300063A50E940C05C016D106A9F7F2E5EF16BA
:10224000F7E0FF0629F760ED77E080E090E00E947C
:1022500095028DB79EB7845A91090FB6F8949EBF28
:102260000FBE8DBFADB7BEB7119684EAEDECF2E0BC
:1022700001900D928A95E1F7EDB7FEB7E45AF109A6
:102280000FB6F894FEBF0FBEEDBFADB7BEB7119647
:1022900084EAE9E2F2E001900D928A95E1F78DB7C8
:1022A0009EB7845A91090FB6F8949EBF0FBE8DBF9A
:1022B000ADB7BEB7119684EAE1E7F3E001900D9265
:1022C0008A95E1F7EDB7FEB7E45AF1090FB6F89435
:1022D000FEBF0FBEEDBFADB7BEB7119684EAE5E114
:1022E000F4E001900D928A95E1F70E9433060FB653
:1022F000F894DEBF0FBECDBFEDB7FEB7E45AF109CB
:102300000FB6F894FEBF0FBEEDBFADB7BEB71196C6
:1023100084EAE1E7F3E001900D928A95E1F78DB749
:102320009EB7845A91090FB6F8949EBF0FBE8DBF19
:10233000ADB7BEB7119684EAE5E1F4E001900D92E5
:102340008A95E1F7EDB7FEB7E45AF1090FB6F894B4
:10235000FEBF0FBEEDBFADB7BEB7119684EAEDEC80
:10236000F2E001900D928A95E1F78DB79EB7845AFD
:1023700091090FB6F8949EBF0FBE8DBFADB7BEB723
:10238000119684EAE9E2F2E001900D928A95E1F774
:102390000E9433060FB6F894DEBF0FBECDBF00E03B
:1023A00010E001151105E9F30E940000FACF6F92C9
:1023B0007F928F929F92AF92BF92CF92DF92EF92D5
:1023C000FF920F931F93CF93DF93CDB7DEB7EC97B8
:1023D0000FB6F894DEBF0FBECDBFEAE6F7E013827A
:1023E000128288EE93E0A0E0B0E084839583A68318
:1023F000B78323E231E0318320832FEF3FEF35872E
:102400002487EDE1F2E01382128284839583A68310
:10241000B78385E391E091838083E2E5F7E0108262
:1024200011821282138214821582168217821086FC
:10243000118612861386EAEEF7E010828EE1818320
:1024400082831382848385831682878380871186A3
:1024500082878387EAEBF7E000E010E020E732E4D0
:10246000008311832283338340E050E060E572E40F
:10247000448355836683778380E090E0A2EBB2E4E7
:1024800080879187A287B387048715872687378738
:10249000408B518B628B738B848B958BA68BB78B08
:1024A000008F118F228F338F448F558F668F778FD8
:1024B00080A391A3A2A3B3A304A315A326A337A328
:1024C00040A751A762A773A784A795A7A6A7B7A7F8
:1024D0008CE0E3E4F1E0DE01D19601900D928A9563
:1024E000E1F780E3EAEBF7E0DE01119601900D924F
:1024F0008A95E1F789EB682E84E0782E80E4F30179
:10250000808349A95AA96BA97F926F9289809A808A
:10251000AB80BC80CD80DE80EF80F88409851A8591
:102520002B853C858AEB94E00E9463074CA95DA94A
:102530006EA97F926F928D849E84AF84B888C9887B
:10254000DA88EB88FC880D891E892F89388D8EE505
:1025500095E00E9463074FA958AD69AD7F926F92D5
:10256000898C9A8CAB8CBC8CCD8CDE8CEF8CF8A0DB
:1025700009A11AA12BA13CA182E096E00E94630769
:102580004AAD5BAD6CAD7F926F928DA09EA0AFA067
:10259000B8A4C9A4DAA4EBA4FCA40DA51EA52FA57C
:1025A00038A986EA96E00E9463078AEB94E090934C
:1025B0004B0780934A078EE595E090934D078093F3
:1025C0004C0782E096E090934F0780934E0786EA8F
:1025D00096E0909351078093500781E080935705D0
:1025E00082E08093FB0583E080939F0684E08093E4
:1025F000430784EAEAEBF4E0A5E1B4E001900D9230
:102600008A95E1F784EAEEE5F5E0A1E7B3E0019011
:102610000D928A95E1F784EAE2E0F6E0ADECB2E0F3
:1026200001900D928A95E1F784EAE6EAF6E0A9E2E4
:10263000B2E001900D928A95E1F70FB6F894DEBFF3
:102640000FBECDBFEC960FB6F894DEBF0FBECDBF68
:10265000DF91CF911F910F91FF90EF90DF90CF907E
:10266000BF90AF909F908F907F906F900895052EB0
:1026700097FB1EF400940E944E1357FD07D00E9452
:10268000611307FC03D04EF40C944E135095409503
:10269000309521953F4F4F4F5F4F0895909580950E
:1026A000709561957F4F8F4F9F4F08950E948313C0
:1026B000A59F900DB49F900DA49F800D911D112496
:1026C0000895A1E21A2EAA1BBB1BFD010DC0AA1F73
:1026D000BB1FEE1FFF1FA217B307E407F50720F08B
:1026E000A21BB30BE40BF50B661F771F881F991F06
:1026F0001A9469F760957095809590959B01AC014F
:10270000BD01CF010895A29FB001B39FC001A39F57
:10271000700D811D1124911DB29F700D811D11241A
:10272000911D08955058BB27AA270E94AA130C9404
:10273000CA150E94911538F00E94981520F039F4BE
:102740009F3F19F426F40C9453150EF4E095E7FB23
:102750000C944D15E92F0E94EF1558F3BA17620734
:1027600073078407950720F079F4A6F50C941116E9
:102770000EF4E0950B2EBA2FA02D0B01B90190019C
:102780000C01CA01A0011124FF27591B99F0593FE0
:1027900050F4503E68F11A16F040A22F232F342F28
:1027A0004427585FF3CF469537952795A795F04076
:1027B0005395C9F77EF41F16BA0B620B730B840B8B
:1027C000BAF09150A1F0FF0FBB1F661F771F881F43
:1027D000C2F70EC0BA0F621F731F841F48F487959B
:1027E00077956795B795F7959E3F08F0B0CF93958D
:1027F000880F08F09927EE0F9795879508959F9376
:102800009F77EEE389379E0728F4EAECF0E00E9418
:102810007D150CC00E9409159058A2EA2AED3FE0F0
:1028200049EC5FE30E94AA130E94CA150F9007FCAF
:10283000905808950E94291508F481E008950E9497
:10284000A115E3950C94DB150E9438140C94CA155D
:102850000E94981558F00E94911540F029F45F3FAE
:1028600029F00C944D1551110C9412160C9453151B
:102870000E94EF1568F39923B1F3552391F3951B4B
:10288000550BBB27AA2762177307840738F09F5F91
:102890005F4F220F331F441FAA1FA9F335D00E2EFE
:1028A0003AF0E0E832D091505040E695001CCAF76B
:1028B0002BD0FE2F29D0660F771F881FBB1F26172E
:1028C00037074807AB07B0E809F0BB0B802DBF0105
:1028D000FF2793585F4F3AF09E3F510578F00C94D4
:1028E0004D150C9412165F3FE4F3983ED4F3869591
:1028F00077956795B795F7959F5FC9F7880F911DF5
:102900009695879597F90895E1E0660F771F881FE0
:10291000BB1F621773078407BA0720F0621B730B93
:10292000840BBA0BEE1F88F7E09508950E949D1462
:102930006894B1110C94121608950E94F71588F04E
:102940009F5798F0B92F9927B751B0F0E1F0660F73
:10295000771F881F991F1AF0BA95C9F714C0B130B4
:1029600091F00E941116B1E008950C941116672F92
:10297000782F8827B85F39F0B93FCCF386957795E3
:102980006795B395D9F73EF49095809570956195CC
:102990007F4F8F4F9F4F0895E89409C097FB3EF4F7
:1029A00090958095709561957F4F8F4F9F4F99239C
:1029B000A9F0F92F96E9BB279395F695879577951A
:1029C0006795B795F111F8CFFAF4BB0F11F460FFDA
:1029D0001BC06F5F7F4F8F4F9F4F16C0882311F032
:1029E00096E911C0772321F09EE8872F762F05C046
:1029F000662371F096E8862F70E060E02AF09A95E1
:102A0000660F771F881FDAF7880F9695879597F9D5
:102A10000895DF93CF931F930F938B01EC01EEED9D
:102A2000F0E00E9456150E94CA159801AE018B0174
:102A3000EC0160E070E080E89FE30E9492130E9446
:102A400098169801AE010F911F91CF91DF910C94D0
:102A50003016990F0008550FAA0BE0E8FEEF161686
:102A60001706E807F907C0F012161306E407F50782
:102A700098F0621B730B840B950B39F40A2661F0F6
:102A8000232B242B252B21F408950A2609F4A14099
:102A9000A6958FEF811D811D089597F99F6780E8A6
:102AA00070E060E008959FEF80EC0895DF93CF938E
:102AB0001F930F93FF92EF92DF927B018C0168943A
:102AC00006C0DA2EEF010E943016FE01E894A591AF
:102AD0002591359145915591A6F3EF010E94AA13D6
:102AE000FE019701A801DA9469F7DF90EF90FF905B
:102AF0000F911F91CF91DF9108959F938F937F93B3
:102B00006F93FF93EF939B01AC010E941D16EF9111
:102B1000FF910E9456152F913F914F915F910C9418
:102B20001D1600240A94161617061806090608959D
:102B300000240A94121613061406050608950C9430
:102B400053150E94F715D8F3E894E0E0BB279F5790
:102B5000F0F02AED3FE049EC06C0EE0FBB0F661F18
:102B6000771F881F28F0B23A62077307840728F09E
:102B7000B25A620B730B840BE3959A9572F7803807
:102B800030F49A95BB0F661F771F881FD2F79048C5
:102B90000C94DA16092E0394000C11F4882352F0D9
:102BA000BB0F40F4BF2B11F460FF04C06F5F7F4F79
:102BB0008F4F9F4F0895EF93E0FF07C0A2EA2AEDE1
:102BC0003FE049EC5FEB0E94AA130E94CA150F90E8
:102BD000039401FC9058E6E0F1E00C947D1557FD5C
:102BE0009058440F551F59F05F3F71F04795880F7B
:102BF00097FB991F61F09F3F79F087950895121612
:102C000013061406551FF2CF4695F1DF08C01616BD
:102C100017061806991FF1CF86957105610508946E
:102C20000895E894BB2766277727CB0197F9089585
:102C30000E94291508F48FEF08950E9430160C9415
:102C4000CA150E94911538F00E94981520F095231E
:102C500011F00C944D150C94531511240C9412166C
:102C60000E94EF1570F3959FC1F3950F50E0551F2B
:102C7000629FF001729FBB27F00DB11D639FAA27D1
:102C8000F00DB11DAA1F649F6627B00DA11D661F20
:102C9000829F2227B00DA11D621F739FB00DA11D41
:102CA000621F839FA00D611D221F749F3327A00DFB
:102CB000611D231F849F600D211D822F762F6A2F97
:102CC00011249F5750409AF0F1F088234AF0EE0FFC
:102CD000FF1FBB1F661F771F881F91505040A9F729
:102CE0009E3F510580F00C944D150C9412165F3FD9
:102CF000E4F3983ED4F3869577956795B795F79565
:102D0000E7959F5FC1F7FE2B880F911D96958795DC
:102D100097F908959F930E94A1150F9007FCEE5F0D
:102D20000C94DB1519F416F40C9453150C94D81666
:102D30000E94F715B8F39923C9F3B6F39F57550BC3
:102D400087FF0E94E6160024A0E640EA9001805822
:102D50005695979528F4805C660F771F881F20F0A2
:102D600026173707480730F4621B730B840B2029A2
:102D700031294A2BA69517940794202531254A27F7
:102D800058F7660F771F881F20F026173707480768
:102D900030F4620B730B840B200D311D411DA09587
:102DA00081F7B901842F9158880F969587950895DA
:102DB0009F3F31F0915020F4879577956795B795AF
:102DC000880F911D9695879597F9089591505040D9
:102DD000660F771F881FD2F70895EE0FFF1F05902B
:102DE000F491E02D09940E948313B7FF0895821B8C
:102DF000930B089581E090E0F8940C94FF16F894FA
:022E0000FFCF02
:102E0200FFFFFFFF00E100000000000000000500DE
:102E1200FB0000000800000000C1808100000000EB
:102E220000000030086B08F008460851081809F441
:102E320008000000000E02DE01A9017C01A0018C45
:102E4200017D0100040801050902060A03070B00BF
:00000001FF
