:100000000C9410010C9438010C9438010C943801B4
:100010000C9438010C9438010C9438010C9438017C
:100020000C9438010C9438010C9447040C94B904D6
:100030000C9438010C9438010C9438010C9438015C
:100040000C9438010C9438010C9438010C9438014C
:100050000C9438010C9438010C9438010C94441021
:100060000C9438010C9438010C9438010C9438012C
:100070000C9438010C9438010C9438010C9438011C
:100080000C9438010C9438010C9438010C9438010C
:100090000C9410070C9438010C9438010C9438011E
:1000A0000C9438010C94E9060C9438013511381180
:1000B00027112B112F115911591159113C114011B0
:1000C00044114A114E1159115411036EDB363D9AF9
:1000D0009999993DABAAAA2A3E000000803F072CBF
:1000E0007AA5BA6CC590DA3B9365FC8BBC53F810CB
:1000F000FD3C5692834DBD879D3AB63DCBC9BF5B53
:10010000BE73DA0FC93F05A84CCDB2D44EB938360C
:10011000A9020C50B9918688083CA6AAAA2ABE005A
:100120000000803F080B00020202010009040000E9
:100130000102020000052400100105240101010450
:10014000240206052406000107058103100040096A
:10015000040100020A000000070502024000000737
:100160000583024000000403090412010002EF02AB
:10017000014041233780000101020301417264758F
:10018000696E6F204C4C430041726475696E6F203C
:100190004D6963726F000000000200090F00000348
:1001A0000401000C0000000000000000000000003E
:1001B000000000000000000000240027002A002D9D
:1001C000003000000000002300260029002C002F32
:1001D0000000000000250028002B002E0031000444
:1001E00004040404030405020202020403020202DE
:1001F00002060606060606040402020204040408B7
:10020000020110408040102040804080080204011C
:100210008040201002011080102040402000601417
:1002200011241FBECFEFDAE0DEBFCDBF11E0A0E0AA
:10023000B1E0E2ECF3E302C005900D92A036B10705
:10024000D9F727E0A0E6B1E001C01D92A437B207BC
:10025000E1F711E0C0E1D1E004C02197FE010E9466
:10026000CD19CF30D107C9F70E9463120C94DF1962
:100270000C9400004091AF015091B0012091AD016C
:100280003091AE0142175307B4F49091E800957095
:10029000E1F39091E80092FD19C08093F100809104
:1002A000AF019091B00101968F739927892B19F4B2
:1002B0008EEF8093E8008091AF019091B00101969C
:1002C0009093B0018093AF0181E0089580E008959C
:1002D000CF92DF92EF92FF920F931F93CF93DF9312
:1002E0001F92CDB7DEB7182F062FE42E862F880F6A
:1002F0008E5F99830E943A0183E00E943A01F12EB9
:10030000C12E9981D92E8C2D8F19801798F4F60162
:10031000E7FE02C0849101C080810E943A01182F3B
:1003200080E00E943A018123FFEFCF1ADF0A81119A
:10033000EACF01C081E00F90DF91CF911F910F9123
:10034000FF90EF90DF90CF900895DF92EF92FF92B1
:100350000F931F93CF93DF93D82E8A017B01E40E76
:10036000F51EEB01CE15DF0571F0D7FE03C0FE01CF
:10037000849101C088810E943A0121968111F2CFB7
:100380008FEF9FEF01C0C801DF91CF911F910F91B7
:10039000FF90EF90DF900895615030F02091F100D0
:1003A000FC0120830196F8CF289A84E68093D70138
:1003B0000895CF92DF92EF92FF920F931F93CF9306
:1003C000DF936C017A018B01C0E0D0E0CE15DF0530
:1003D00089F0D8016D918D01D601ED91FC910190CC
:1003E000F081E02DC6010995892B11F47E0102C030
:1003F0002196ECCFC701DF91CF911F910F91FF9014
:10040000EF90DF90CF900895CF93DF931F92CDB7F9
:10041000DEB76983DC01ED91FC910280F381E02D70
:1004200041E050E0BE016F5F7F4F09950F90DF9173
:10043000CF91089583E08093E9008091F2008823B2
:1004400019F08AE38093E8000895FC01848595857E
:1004500097FD0BC09FB7F89482E08093E9008091EC
:10046000F2009FBF90E0019608959FB7F89482E054
:100470008093E9008091F2009FBF90E00895089575
:10048000E091D6018091D501E81730F4F0E0EB540B
:10049000FE4F808190E008958FEF9FEF0895909137
:1004A000D6018091D501981750F4E92FF0E0EB5474
:1004B000FE4F208130E09F5F9093D60102C02FEF66
:1004C0003FEFC90108958091D50190E02091D601B8
:1004D000821B91090895089580E090E0089585EDCC
:1004E0008093BC008091BC0084FDFCCF109214026C
:1004F000089540918601262F30E0240F311D2132CE
:100500003105DCF4209114022430C9F4FC0180E0B0
:1005100090E0861758F4309186012191DC01AC59A6
:10052000BE4FA30FB11D2C930196F3CF809186018E
:10053000680F6093860180E0089581E0089582E06D
:100540000895CF92DF92EF92FF920F931F93CF9374
:10055000DF937C01262F972F8A0180911502882333
:1005600091F0C62FD72F6E01C40ED51ECC15DD0518
:1005700071F06991D701ED91FC910190F081E02D2E
:10058000C7010995F3CF642F822F0E947902C80119
:10059000DF91CF911F910F91FF90EF90DF90CF905F
:1005A0000895CF93DF931F92CDB7DEB76983209173
:1005B00015022223D1F020913802203240F021E0B0
:1005C00030E0FC013383228380E090E015C080910D
:1005D0001602E82FF0E0E95EFD4F998190838F5F6E
:1005E000809316028093380205C061E0CE01019627
:1005F0000E94790281E090E00F90DF91CF91089501
:100600000F931F93CF93DF931F92CDB7DEB782E096
:10061000898342E450E064E271E080E80E94A50131
:100620000E940E0DDC0112960D911C91139701157D
:10063000110569F0D801ED91FC910280F381E02D64
:10064000BE016F5F7F4FC801099597FF07C0898181
:100650000F90DF91CF911F910F910895F8010085C0
:100660001185E5CF8F929F92AF92BF92CF92DF928A
:10067000EF92FF920F931F93CF93DF935C016B0177
:100680007A0180910B01882309F45BC08091D80125
:10069000882309F456C08091B30180FF05C0809182
:1006A000E00082608093E000E70110E00AEF83E061
:1006B000882E9AE3992E2097D9F10E94FD0C811182
:1006C0000AC0015009F43DC061E070E080E090E0B4
:1006D0000E94220DF0CF282F30E0C217D3070CF470
:1006E0008C2F4FB7F8948092E9009091E80095FF25
:1006F0001DC0282F30E0C21BD30BF601982F91505C
:1007000020F081918093F100FACFC20ED31E112305
:1007100019F09092E80009C08091E80085FD06C0BC
:100720009092E80011E0209709F010E04FBFC3CF8E
:100730001111C3CF5D9A84E68093B1011E141F048A
:1007400044F081E090E0F5019383828380E090E0C3
:1007500001C0C701DF91CF911F910F91FF90EF90E2
:10076000DF90CF90BF90AF909F908F9008950E94A0
:10077000FD0C90E008950F931F93CF93DF931F928A
:10078000CDB7DEB78C01FC018485958597FF0EC03F
:10079000CE0101960E94D30C019719F4298130E013
:1007A00002C02FEF3FEFF80135872487F8018485D9
:1007B00095850F90DF91CF911F910F910895CF9361
:1007C000DF931F92CDB7DEB7FC018485958597FD39
:1007D00005C02FEF3FEF358724870BC0CE01019670
:1007E0000E94D30C019719F4898190E002C08FEF29
:1007F0009FEF0F90DF91CF9108958F929F92AF92CC
:10080000BF92CF92DF92EF92FF920F931F93CF93FD
:10081000DF93EC014A015B0168017901488F598F30
:100820006A8F7B8F0C8B1D8B2E8B3F8B08871987D4
:100830002A873B87C901B8010E946A19A501940162
:100840000E94FD186C877D878E879F8768837983D8
:100850008A839B83C701B6010E94FF16A5019401FC
:100860000E94FD18688B798B8A8B9B8B6C837D83B0
:100870008E839F83DF91CF911F910F91FF90EF9017
:10088000DF90CF90BF90AF909F908F9008951F9270
:100890000F920FB60F9211248F939F938091E100D6
:1008A0009091E100937F9093E10083FF0FC010923D
:1008B000E90091E09093EB001092EC0092E39093AA
:1008C000ED001092D80198E09093F00082FF20C0D4
:1008D00093E09093E9009091F200992319F09AE344
:1008E0009093E8009091B101992339F09091B10172
:1008F00091509093B101992389F19091D701992357
:1009000039F09091D70191509093D701992341F1FB
:1009100084FF10C08091E2008E7E81608093E200AF
:100920008091E1008F7E8093E1008091B3018E7E03
:10093000806111C080FF16C08091E2008E7E8061D0
:100940008093E2008091E1008E7E8093E1008091AF
:10095000B3018E7E81608093B30104C05D98CDCFDA
:100960002898D6CF9F918F910F900FBE0F901F9018
:1009700018951F920F920FB60F921124CF92DF920B
:10098000EF92FF920F931F932F933F934F935F9399
:100990006F937F938F939F93AF93BF93EF93FF9347
:1009A000CF93DF93CDB7DEB76C97DEBFCDBF10928C
:1009B000E9008091E80083FFEDC168E0CE01459633
:1009C0000E94CC0182EF8093E8008D8987FF05C0EB
:1009D0009091E80090FFFCCF03C09EEF9093E80059
:1009E000982F907609F0C6C09E892F89188D911195
:1009F0000CC0803829F48091B4018093F10002C0CA
:100A00001092F1001092F10048C1422F50E0512B9A
:100A1000913051F4811141C14130510509F03DC17E
:100A20008091B4018D7F0BC0933061F4811135C189
:100A30004130510509F031C18091B4018260809349
:100A4000B4012BC1953041F48091E80080FFFCCFC8
:100A500020682093E30021C1963009F05FC0EB8C41
:100A6000FC8C1092E9001092B0011092AF0112308C
:100A700091F51092AE011092AD010E94000399E031
:100A8000BE016F5F7F4FDB01E92F1D92EA95E9F709
:100A900099831A8391E09E8390EA98879AEF9987C9
:100AA0002091AF013091B001275F3F4F3C832B83F2
:100AB0008D831092E9001092B0011092AF01F09274
:100AC000AE01E092AD0149E050E080E00E94A50156
:100AD0000E940003E2C0F092AE01E092AD010E94DC
:100AE0000E0DDC011296ED90FC901397E114F104C9
:100AF00009F4C0C0D701ED91FC910480F581E02D8F
:100B0000BE016B5E7F4FC7010995009719F00CF08D
:100B1000C4C0C7C0F701E084F184E8CF973009F47E
:100B2000C0C0983021F481E08093F100B6C09930C4
:100B300009F0B3C0837009F0B4C0EDE0F1E081E0EA
:100B400021E036E39081992361F08093E9002093BE
:100B5000EB0091919093EC003093ED008F5F873024
:100B600089F78EE78093EA001092EA008F898093DC
:100B7000D80193C08B8D9C8D1092E9001092B0012A
:100B80001092AF019093AE018093AD01898D8111D8
:100B900056C08E899D89913A59F4813209F081C0FD
:100BA00047E050E064E071E080E00E94A50175C07C
:100BB000913209F076C0833289F4888D90E0982FC5
:100BC00088272F89822BA0E0B0E0809300019093CA
:100BD0000101A0930201B09303015FC0803269F468
:100BE0008091E80082FFFCCF67E084E091E00E9402
:100BF000CC018BEF8093E80006C0823209F04DC033
:100C00008F8980930B018091B201882319F0EEEF58
:100C1000FAE002C0E0E0F8E0809104019091050163
:100C2000A0910601B0910701803B9440A105B10558
:100C300009F07BC080910B0180FF93C076C00E94B9
:100C40000E0DDC0112960D911C91139701151105E3
:100C500041F1D801ED91FC910190F081E02DBE01B0
:100C60006B5E7F4FC8010995811117C0F80100859F
:100C70001185ECCF113009F44EC0133091F48F89F7
:100C8000882309F445C0823081F440E86DE088E8AB
:100C900091E00E946801882321F08EEF8093E800A4
:100CA00079C081E28093EB0075C0813029F440E87F
:100CB0006BE08CE791E0EDCF833099F70E940E0D49
:100CC000DC011296ED90FC9013978E010F5F1F4F81
:100CD0006801E114F10479F0D701ED91FC910680EF
:100CE000F781E02DB801C7010995080F111DF70123
:100CF000E084F184EECFD8011C92F601019000202F
:100D0000E9F73197BF016C197D0940E0C601C1CFF9
:100D100066E671E002C06AE671E06115710509F2EC
:100D2000FB01449150E080E840CF0FB6F894A895BD
:100D300080916000886180936000109260000FBE17
:100D4000A895EE3F2AE0F20739F08091FE0A9091D3
:100D5000FF0A91838083A1CF1092FF0A1092FE0AAE
:100D60009CCFEE3F8AE0F80731F08081918190932B
:100D7000FF0A8093FE0A87E797E7918380839BE0D1
:100D800088E10FB6F894A895809360000FBE909309
:100D9000600083CF6C960FB6F894DEBF0FBECDBF58
:100DA000DF91CF91FF91EF91BF91AF919F918F9183
:100DB0007F916F915F914F913F912F911F910F9173
:100DC000FF90EF90DF90CF900F900FBE0F901F908D
:100DD00018951F920F920FB60F9211242F933F93E5
:100DE0004F935F936F937F938F939F93AF93BF9333
:100DF000EF93FF93E091AB01F091AC010995FF9166
:100E0000EF91BF91AF919F918F917F916F915F9182
:100E10004F913F912F910F900FBE0F901F901895FB
:100E20001F920F920FB60F9211242F933F934F935F
:100E30005F936F937F938F939F93AF93BF93EF9342
:100E4000FF938091B900887F803609F49CC068F5D3
:100E5000883209F45BC090F4803109F454C038F44E
:100E6000882309F4F6C0883009F44DC0F6C08831F3
:100E700009F44CC0803209F45DC0EFC0803409F43D
:100E800068C048F4803309F455C0883309F0E5C0E0
:100E900080931202D8C0803509F44FC0883509F418
:100EA0005DC0883409F0D9C0D6C0883909F4C7C0FC
:100EB000A8F4883709F467C038F4883609F463C0A9
:100EC000803709F460C0C9C0883809F4B8C08039D7
:100ED00009F45FC0803809F0C0C05BC0803B09F4F2
:100EE00086C038F4803A09F466C0883A09F47FC0B5
:100EF000B4C0803C09F4A7C0883C09F4A4C0883B76
:100F000009F48AC0AAC08091EF0110C0909111022B
:100F100080911002981770F5E091110281E08E0F18
:100F200080931102F0E0E051FE4F80818093BB007E
:100F300085EC86C0809312028EC0E091110281E0A0
:100F40008E0F809311028091BB00F0E0E051FE4FC4
:100F5000808390911102809110026EC0E091110285
:100F600081E08E0F809311028091BB00F0E0E05190
:100F7000FE4F80838091130281116DC081E08093C8
:100F8000EE0184EA61C083E0809314021092AA010A
:100F9000CFCF8091AA01803208F051C0E091AA0120
:100FA00081E08E0F8093AA018091BB00F0E0E657AC
:100FB000FE4F8083BDCF85EC8093BC00109214025D
:100FC0008091AA01803230F4E091AA01F0E0E65766
:100FD000FE4F10826091AA0170E0E0918801F091CB
:100FE00089018AE891E009951092AA0136C084E04F
:100FF000809314021092870110928601E09184017F
:10100000F0918501099580918601811105C081E0EB
:101010008093860110926401E091870181E08E0F38
:1010200080938701F0E0EC59FE4F80818093BB00F4
:101030009091870180918601981708F479CF85E80F
:101040008093BC000AC085EC8093BC00109214020F
:1010500004C0109212020E946F02FF91EF91BF91A3
:10106000AF919F918F917F916F915F914F913F9140
:101070002F910F900FBE0F901F901895FC016130BB
:10108000710549F06230710551F0672B61F4808180
:101090009181A2810BC083819481A58107C0868143
:1010A0009781A08503C081859285A385BC018A2F85
:1010B00008952F923F924F925F926F927F928F92FC
:1010C0009F92AF92BF92CF92DF92EF92FF920F93D7
:1010D0001F93CF93DF9300D000D0CDB7DEB71C01B4
:1010E000D52EC62E922F253608F094E6211101C088
:1010F00090E029E8220E311C00E010E0E92FF0E03A
:10110000FA83E98324E6422E512C612C712CF101E3
:10111000E190F1901F01473A34F04B834B352CF0AE
:10112000FAE5FB8302C026EA2B832B81F70123A378
:1011300034A13C83A22F220FBB0BA31BB10937FDA7
:10114000B395B7FD07C0812C912C90E8A92E9FE3A1
:10115000B92E06C0812C912C80E8A82E8FEBB82EDA
:10116000B7FF03C0B195A195B10929813A810E94C9
:10117000D319A30192010E941716CA01B9010E9456
:10118000AE17A50194010E94FD180E947617611503
:10119000710541F4EB81FC81EF1721F0C501B40129
:1011A0000E947617F70165A30F5F1F4F03301105EB
:1011B00039F00130110511F44D2DA9CF4C2DA7CFD9
:1011C0000F900F900F900F90DF91CF911F910F9183
:1011D000FF90EF90DF90CF90BF90AF909F908F9057
:1011E0007F906F905F904F903F902F9008952F9237
:1011F0003F924F925F926F927F928F929F92AF92A7
:10120000BF92CF92DF92EF92FF920F931F93CF93F3
:10121000DF931F92CDB7DEB77C013B0169014983A3
:101220004C0182E0880E911C4E895F89688D798D12
:1012300000E010E09801C4010E94FD03F70114A230
:1012400015A216A217A210A68BA19CA192A781A7F6
:10125000C78E212C312C88E4482E82E4582E20A2FF
:1012600031A242A253A2168E5701FBE2AF0EB11C6F
:101270004A8D5B8D6C8D7D8D00E010E09801C5017D
:101280000E94FD03F701E35BFF4F1082319610824D
:1012900031961082319610823196108231968BA150
:1012A0009CA1918380833A97D082319620823182AB
:1012B0004282538232971082670194E5C90ED11C95
:1012C0004E8D5F8D68A179A100E010E09801C60104
:1012D0000E94FD03F60112A213A214A215A216A2E7
:1012E0008BA19CA190A787A39981958F268E378E7D
:1012F00040A251A2148E2701FDE74F0E511CF201AE
:1013000091828082B382A282D582C482F70123AD0A
:1013100034AD45AD56AD628D738D848D958D0E9433
:101320007316F2016683778380879187F701718254
:101330006082E757FF4F918280823296B182A0820D
:101340003296D182C08236978AA18083319680837B
:101350000F90DF91CF911F910F91FF90EF90DF9051
:10136000CF90BF90AF909F908F907F906F905F9045
:101370004F903F902F9008958F929F92AF92BF927F
:10138000CF92DF92EF92FF92CF93DF937C01DC014B
:10139000CD91DC9121EE3EE245E652E463307105E9
:1013A000B4F46C897D898E899F890E94FD184B0158
:1013B0005C0120E030E0A9010E94FA161816FCF04A
:1013C000A501940160E070E080E09FE332C06C8989
:1013D0007D898E899F890E94FD184B015C0120E068
:1013E00030E0A9010E94F81887FD15C020E030E028
:1013F00040E05FE3C501B4010E9473161CC021EEFA
:101400003EE245E652E46C897D898E899F890E947F
:10141000FD1890580AC021EE3EE245E652E46C8980
:101420007D898E899F890E94FD1820E030E040E090
:101430005FE30E9472160E947617C62FD70112969C
:10144000ED91FC91139721EE3EE245E652E464896A
:101450007589868997890E94FD184B015C0120E0FF
:1014600030E0A9010E94F81820E030E040E05FE39E
:1014700087FD05C0C501B4010E94731604C0C501F3
:10148000B4010E9472160E947617D62FD7011496C7
:10149000ED91FC91159721EE3EE245E652E4648918
:1014A0007589868997890E94FD186B017C0120E06F
:1014B00030E0A9010E94F81820E030E040E05FE34E
:1014C00087FD05C0C701B6010E94731604C0C7019D
:1014D000B6010E9472160E947617862FBE01DF9118
:1014E000CF91FF90EF90DF90CF90BF90AF909F9003
:1014F0008F900895CF92DF92EF92FF921F93CF9338
:10150000DF93EC01673A2CF0162F6B351CF01AE5CF
:1015100001C016EA2AA1210F273A24F02B351CF02E
:101520002AE501C026EA822F220F990BAA0BBB0BDA
:101530009C01AD01265A3F4F4F4F5F4FA8E4B1E0E9
:101540000E94361624EB30E040E050E00E9417166F
:1015500069017A018FE8C80ED11CE11CF11C6D8D68
:10156000EFA1F8A5808191E0909315028093370256
:10157000109216021092380284E0689FB001112484
:101580006A5F7F4F89E892E00E94D10280E090E09C
:101590000E94EB1080E090E00E94EB10C6010E94D8
:1015A000EB108D2D90E00E94EB1081E00E948E10D8
:1015B0001CA3DF91CF911F91FF90EF90DF90CF9010
:1015C00008956F927F928F929F92AF92BF92CF9227
:1015D000DF92EF92FF920F931F93CF93DF934B0114
:1015E0005C0105E610E09BEF692E99EF792E82ED04
:1015F000E82E84E0F82ED7018D919D91EC01C7571C
:10160000DF4F81579F4FE991F99134A123A1321304
:1016100004C0C817D907B9F74BC00150110909F424
:101620004CC0D701CD91DD917D016E01B9E8CB0EA3
:10163000D11CC157DF4FD601ED91FD916D0143A142
:1016400024A1241302C015A226C085A1280F273A81
:1016500024F02B351CF02AE501C026EA622F220F68
:10166000770B181644F4842F042E000C990B861760
:10167000970754F00DC0882359F0842F042E000CD6
:10168000990B6817790724F4642F440F770B15A280
:10169000CF010E947A0ACC16DD0669F6BAEDEB1688
:1016A000B4E0FB0609F0BDCFC3010197F1F79FCF6E
:1016B000E4E0AA3DBE0709F09FCFC501B401DF9168
:1016C000CF911F910F91FF90EF90DF90CF90BF903F
:1016D000AF909F908F907F906F900C94220D8F927F
:1016E0009F92AF92BF92CF92DF92EF92FF92CF93F1
:1016F000DF93EC016A017B014C8B5D8B6E8B7F8BE2
:10170000888C998CAA8CBB8CCB01BA010E946A1977
:10171000A50194010E94FD186C877D878E879F87A5
:10172000C701B6010E94FF16A50194010E94FD1891
:10173000688B798B8A8B9B8BDF91CF91FF90EF9099
:10174000DF90CF90BF90AF909F908F9008958F9231
:101750009F92AF92BF92CF92DF92EF92FF920F9340
:101760001F93CF93DF93EC016A017B0120E030E00F
:10177000A901C701B6010E94FA1687FF04C0C7017C
:10178000B601905802C0C701B601A88CB98C0A8D69
:101790001B8D9501A8010E94F818181624F0460127
:1017A000FE2DEF2D03C04501F02FE12FC401AF2F17
:1017B000BE2F8C879D87AE87BF879501A801B40196
:1017C0008F2F9E2F0E9404170E94DF166C8B7D8B3B
:1017D0008E8B9F8B0E94FF169501A8010E94FD1819
:1017E000688B798B8A8B9B8BDF91CF911F910F91A7
:1017F000FF90EF90DF90CF90BF90AF909F908F9031
:101800000895EF92FF920F931F93CF93DF931F9250
:10181000CDB7DEB78C017C018DE7E80EF11CD70156
:1018200012968D919C91139729830E94A70BD70143
:101830001296ED91FC9113974489558966897789B1
:1018400014968D919C9115970E946F0BF801E957A2
:10185000FF4F6081062E000C770BC7010E94BC0968
:10186000AB01682F2981C8010E9459080F90DF91B0
:10187000CF911F910F91FF90EF9008954F925F923B
:101880006F927F92BF92CF92DF92EF92FF920F936F
:101890001F93CF93DF93CDB7DEB76C970FB6F89455
:1018A000DEBF0FBECDBF6C012A013B01B22E7C0111
:1018B0008DE7E80EF11CD7018D919C91119712963E
:1018C0000D90BC91A02D50962D913D914D915C9124
:1018D0005397FC01608D718D828D938D0E947316DC
:1018E000AB01BC0100E010E09801CE0101960E941E
:1018F000FD03B301A201CE0101960E94A70B4D8901
:101900005E896F89788DD7018D919C910E946F0BB4
:10191000F601E957FF4F6081062E000C770BC701D7
:101920000E94BC09AB01682F2B2DC6010E945908EB
:101930006C960FB6F894DEBF0FBECDBFDF91CF918E
:101940001F910F91FF90EF90DF90CF90BF907F900D
:101950006F905F904F9008953FB7F8948091DE01AB
:101960009091DF01A091E001B091E10126B5A89B23
:1019700005C02F3F19F00196A11DB11D3FBFBA2F21
:10198000A92F982F8827820F911DA11DB11DBC0181
:10199000CD0142E0660F771F881F991F4A95D1F746
:1019A00008950E94DA19FC018091D801811103C0C9
:1019B0008FEF9FEF08959FB7F89482E08093E9003E
:1019C0002091F20030E01216130614F421E030E00A
:1019D0002115310559F0289A84E68093D70180912A
:1019E000F10080838091F200882319F09FBFC90124
:1019F00008958BE68093E800F9CF2FB7F89483E041
:101A00008093E9009091E800892F807295FF04C0CF
:101A10009091F20080E4891B2FBF08958091E60128
:101A200081110DC082E08093E20184E08093E301A4
:101A30001092E5011092E40181E08093E60182EECC
:101A400091E008958F929F92AF92BF92CF92DF92D2
:101A5000EF92FF926B017C010E94AC0C4B015C0188
:101A6000C114D104E104F104F1F00E94AC0CDC01DA
:101A7000CB0188199909AA09BB09883E9340A105A1
:101A8000B10570F321E0C21AD108E108F10888EE2F
:101A9000880E83E0981EA11CB11CC114D104E1047E
:101AA000F10419F7DDCFFF90EF90DF90CF90BF905A
:101AB000AF909F908F9008952F923F924F925F9298
:101AC0006F927F928F929F92AF92BF92CF92DF924E
:101AD000EF92FF920F931F93CF93DF93CDB7DEB7B3
:101AE000C055D2400FB6F894DEBF0FBECDBF88E020
:101AF000E3E1F1E0DE01A75BBD4F01900D928A9515
:101B0000E1F7E12CF12C7BE0272E312CE3E28E2E45
:101B1000912CF9E34F2E512C612C712C9BE0C92E96
:101B2000D12CE091E404F091E50490818091DE04F1
:101B3000892B8083E091E004F091E1049081809111
:101B4000DE04809589238083C1010197F1F7E0913C
:101B5000E004F091E10490818091DE04892B808380
:101B6000C4010197F1F7E091E004F091E104908164
:101B70008091DE04809589238083E091E404F091D4
:101B8000E50490818091DE04809589238083E09133
:101B9000E204F091E30490818091DF04892309F04D
:101BA00075C00E94AC0C2091E6043091E7048901D5
:101BB00020E030E00855194E2F4F3F4FDC01CB019C
:101BC000800F911FA21FB31F8093E8049093E90434
:101BD000A093EA04B093EB04E091E204F091E304F3
:101BE00090818091DF04892381F40E94AC0C0091E4
:101BF000E8041091E9042091EA043091EB040617FF
:101C000017072807390740F741C00E94AC0C209104
:101C1000E6043091E704DC01CB01820F931FA11D84
:101C2000B11D8093E8049093E904A093EA04B09373
:101C3000EB04E091E204F091E30490818091DF04F1
:101C4000892381F00E94AC0C0091E8041091E90412
:101C50002091EA043091EB0406171707280739078B
:101C600040F714C00E94AC0C2091E6043091E704C8
:101C7000A901455051092091E8043091E904FA0185
:101C8000E21BF30BAF01460F571F02C040E050E0CC
:101C9000BA0180E090E0A30192010E944116211553
:101CA00031054105510511F424EF31E03093ED0485
:101CB0002093EC048091EE049091EF048217930737
:101CC00028F0F1E0CF1AD10809F08FC1E114F10436
:101CD00049F4C75BDD4F88819981AA81BB81C954D2
:101CE000D24008C0C35BDD4F88819981AA81BB8146
:101CF000CD54D240880F991FFC01EE52FB4F01904A
:101D0000F081E02D8FE8DE01A255BE4F01900D92CB
:101D10008A95E1F7C255DE4FE881F981CE5AD1406C
:101D200082E0E827EE0FFF1FEE52FB4F0190F0819B
:101D3000E02D8FE8DE01A15EBE4F01900D928A95E5
:101D4000E1F7E114F10449F4C75BDD4F8881998123
:101D5000AA81BB81C954D24008C0C35BDD4F8881D2
:101D60009981AA81BB81CD54D240FD01EE0FFF1FA6
:101D7000EE52FB4F0190F081E02D8FE8DE01A0577D
:101D8000BF4F01900D928A95E1F7C057DF4FE88170
:101D9000F981C059D04082E0E827EE0FFF1FEE52D4
:101DA000FB4F0190F081E02D8FE8DE01119601904C
:101DB0000D928A95E1F720E140E050E060E270EC9E
:101DC000CE0182559E4F0E94010C20E140E050E080
:101DD00060E270E4CE01815E9E4F0E94010C20E122
:101DE00040E050E060E070ECCE0180579F4F0E94D1
:101DF0003E0C20E140E050E060E070ECCE01019646
:101E00000E943E0C6AE070E080E090E00E94E10AEF
:101E100028E040E050E060E870E4CE0182559E4F3B
:101E20000E94010C6AE070E080E090E00E94E10A0C
:101E300028E040E050E060E071E4CE0182559E4F22
:101E40000E943E0C6AE070E080E090E00E94E10AAF
:101E500028E040E050E060E270ECCE0182559E4FF9
:101E60000E94010C6AE070E080E090E00E94E10ACC
:101E700028E040E050E060E270E4CE0180579F4FE0
:101E80000E94010C40E050E060EA70ECCF5EDE4F53
:101E900088819981C151D1400E94A70BC95EDE4F54
:101EA0006881C751D140062E000C770BCE01835FAD
:101EB0009E4F0E94BC09AB01682F28E0CE018057DD
:101EC0009F4F0E9459086AE070E080E090E00E9415
:101ED000E10A28E040E050E060E270E4CE01805783
:101EE0009F4F0E943E0C40E050E060EA70ECCF5EF5
:101EF000DE4F88819981C151D1400E94A70BC95EF4
:101F0000DE4F6881C751D140062E000C770BCE0101
:101F1000835F9E4F0E94BC09AB01682F28E0CE0171
:101F200080579F4F0E94590828E040E050E060E051
:101F300070ECCE0101960E94010C28E040E050E0D8
:101F400060EA7FEBCE0182559E4F0E94010C28E093
:101F500040E050E060EA7FEBCE01815E9E4F0E9440
:101F6000010C28E040E050E060E070E8CE018255CE
:101F70009E4F0E943E0C6AE070E080E090E00E947C
:101F8000E10A28E040E050E060E070E4CE018057D4
:101F90009F4F0E94010C28E040E050E060E270ECAE
:101FA000CE0101960E94010C28E040E050E060E084
:101FB00070E8CE0182559E4F0E94010C28E040E05F
:101FC00050E060E070E8CE01815E9E4F0E94010CFF
:101FD0006AE070E080E090E00E94E10AEA94EF2875
:101FE000C1F1EE24E394F12C99CDE0EFF4E0DE01B1
:101FF000A35CBD4F8CE001900D928A95E1F782EDD4
:10200000A82E84E0B82E00E010E0B801CE01835C79
:102010009D4F0E943E08AB01682F25E0F50181919C
:1020200091915F010E9459080F5F1F4F0430110505
:1020300061F760E070E0CB010E94E10A0E94681144
:102040000E94681164E670E080E090E00E94220D3A
:1020500068CD81E0C05BDD4F0FB6F894DEBF0FBEE8
:10206000CDBFDF91CF911F910F91FF90EF90DF9047
:10207000CF90BF90AF909F908F907F906F905F9028
:102080004F903F902F9008951F920F920FB60F928E
:1020900011242F933F938F939F93AF93BF9380917E
:1020A000DA019091DB01A091DC01B091DD0130916A
:1020B000D90123E0230F2D3720F40196A11DB11D76
:1020C00005C026E8230F0296A11DB11D2093D9015A
:1020D0008093DA019093DB01A093DC01B093DD01E2
:1020E0008091DE019091DF01A091E001B091E101CA
:1020F0000196A11DB11D8093DE019093DF01A09395
:10210000E001B093E101BF91AF919F918F913F9119
:102110002F910F900FBE0F901F901895382F209180
:10212000380290913702213208F049C080911402A0
:102130008111FCCF42E040931402309313023FEF31
:10214000309312021092110220931002A7E1B2E024
:1021500040EF51E0FA013E2F341B321718F43D9145
:102160003193F9CF1092EF012091EF01990F922B4B
:102170009093EF019091EE01913061F41092EE0195
:102180009091EF019093BB009091BC0093FDF8CF2C
:1021900095EC01C095EE9093BC00909114029230A2
:1021A000E1F3909112029F3F79F080911202803208
:1021B00041F080911202803331F084E005C081E06B
:1021C00003C082E001C083E0109216021092380230
:1021D000109215020895682F89E892E00C94D102BC
:1021E000CF93C62F9091950221E0209315029093F2
:1021F00037021092160210923802682F89E892E096
:102200000E94D1026C2F89E892E00E94D10281E005
:10221000CF910C948E1090E0FC01EA56FE4F449151
:10222000FC01E250FE4F2491FC01E152FE4F8491EB
:10223000882309F44CC04423E1F150E0FA013197BE
:10224000EF30F105B0F5EA5AFF4F0C94CD1990919B
:1022500080009F7707C0909180009F7D03C0909180
:102260008000977F9093800024C094B59F7702C030
:1022700094B59F7D94BD1DC0909190009F7707C03D
:10228000909190009F7D03C090919000977F9093D4
:1022900090000FC09091C0009F7703C09091C00044
:1022A0009F7D9093C00005C09091C200977F90934E
:1022B000C200E82FF0E0EE0FFF1FEF52FE4FA59196
:1022C000B4918FB7F894EC912E2B2C938FBF089577
:1022D0002F923F924F925F926F927F928F929F9236
:1022E000AF92BF92CF92DF92EF92FF920F931F9324
:1022F000CF93DF93CDB7DEB728970FB6F894DEBF44
:102300000FBECDBF88E0E7E2F1E0DE01119601905B
:102310000D928A95E1F79E012F5F3F4F79011E01D3
:1023200039E0230E311CF701019111917F01023038
:1023300011054CF052E9452E5AE0552E56E0652E17
:102340005FE3752E08C042E9442E4AE0542E46E071
:10235000642E4FEB742EC801880F991F9C012E52DA
:102360003B4F690124E140E050E060EF71ECF60181
:10237000808191810E94010CF2E00F27000F111F54
:102380000E521B4F24E140E050E060EF71E4F80191
:10239000808191810E94010C60E070E0CB010E947D
:1023A000E10A24E140E050E060EF71E4F601808151
:1023B00091810E94010C60E070E0CB010E94E10A73
:1023C000F601A080B1804501FDE78F0E911CB3019D
:1023D000A201F401808191810E946F0BF501E95700
:1023E000FF4F6081062E000C770BC4010E94BC09D0
:1023F000AB01682F24E1C5010E94590860E070E03C
:10240000CB010E94E10A24E140E050E060E070E886
:10241000F601808191810E94010C24E140E050E0AE
:1024200060E070E8F801808191810E94010C60E019
:1024300070E0CB010E94E10AE214F30409F073CFCB
:1024400002ED14E0F801E190F1908F016701FDE7E2
:10245000CF0ED11C40E050E0BA01F601808191819D
:102460000E946F0BF701E957FF4F6081062E000CA9
:10247000770BC6010E94BC09AB01682F24E1C7019C
:102480000E945908F4E00A3D1F07E1F660E070E0A1
:10249000CB0128960FB6F894DEBF0FBECDBFDF91FB
:1024A000CF911F910F91FF90EF90DF90CF90BF9051
:1024B000AF909F908F907F906F905F904F903F90E4
:1024C0002F900C94E10ACF93DF93CDB7DEB7A4979A
:1024D0000FB6F894DEBF0FBECDBF789484B582608E
:1024E00084BD84B5816084BD85B5826085BD85B5B8
:1024F000816085BD80916E00816080936E00109236
:1025000081008091810082608093810080918100B0
:102510008160809381008091800081608093800041
:102520008091910082608093910080919100816000
:1025300080939100809190008160809390008091C1
:10254000C10084608093C1008091C100826080934B
:10255000C1008091C10081608093C1008091C3005F
:1025600081608093C3008091C00082608093C0002E
:102570008091C20081608093C20080917A00846063
:1025800080937A0080917A00826080937A008091B3
:102590007A00816080937A0080917A0080688093CD
:1025A0007A001092D8011092B4011092B301809178
:1025B000D70081608093D70080EA8093D80089B5E6
:1025C000806189BD89B5826089BD09B400FEFDCFF7
:1025D00061E070E080E090E00E94220D8091D800E0
:1025E0008F7C80618093D8008091E000807F809311
:1025F000E0008091E1008E7E8093E1008DE0809389
:10260000E200559A209A5D982898EEEFFFE78591B1
:1026100094918B3F9C4D19F481E08093B2018FEF30
:102620009FEF90934602809345028CE0EBE1F1E04E
:10263000DE01599601900D928A95E1F792EDE92E0F
:1026400094E0F92E670100E010E0B801CE01499650
:102650000E943E08F601219131916F01F901E7577F
:10266000FF4F0190F081E02D62A3F901E557FF4F84
:102670000190F081E02D72A3F901E357FF4F019023
:10268000F081E02D82A30F5F1F4F04301105E9F6A2
:102690008CE0E0EFF4E0DE011D9601900D928A954A
:1026A000E1F78CE0FE013D96DE01119601900D925E
:1026B0008A95E1F782EDC82E84E0D82E00E010E084
:1026C000B801CE0101960E943E08AB01682F22E3BB
:1026D000F601819191916F010E9459080F5F1F4F80
:1026E0000430110569F7A2EDB4E08D919D91FC01D4
:1026F000E757FF4F0190F081E02D23A1248FFC01CB
:10270000E557FF4F0190F081E02D23A1248FFC01BC
:10271000E357FF4F0190F081E02D83A1848FF4E017
:10272000AA3DBF0711F71092D6011092D501109261
:102730001602109238021092140211E01093130244
:102740001092EE0182E00E940B1183E00E940B11B7
:102750008091B9008E7F8093B9008091B9008D7F00
:102760008093B90088E48093B80085E48093BC002E
:1027700060E080E00E94F0108091950210931502B5
:1027800080933702109216021092380260E089E8B6
:1027900092E00E94D10281E00E948E108091950209
:1027A000909114029111FCCF91E0909314029093B8
:1027B00013022FEF209312021092110210921002B6
:1027C0009093EF019091EF01880F892B8093EF0197
:1027D0008091EE01813061F41092EE018091EF0161
:1027E0008093BB008091BC0083FDF8CF85EC01C0D5
:1027F00085EE8093BC00809114028130E1F38091DA
:102800001102811103C08091110201C081E0A0EF8B
:10281000B1E025EB31E0F9019E2F921B981718F4D7
:102820009D919193F9CF1092D6018093D50189E8BB
:1028300092E00E944F02182F682F6F76606180E04F
:102840000E94F01067E88EEF0E94F010612F80E088
:102850000E94F01065E070E080E090E00E94220DA0
:10286000612F616A80E00E94F010F70181919191DF
:102870007F016C01F9E8CF0ED11C8C0101571F4F6D
:10288000F601819191916F01FC0163A10E947A0A86
:10289000C016D106A9F7FAEDEF16F4E0FF0629F706
:1028A00060ED77E080E090E00E94220D0E945C0DD8
:1028B00000E010E001151105E9F30E940000FACFD5
:1028C0000F931F93CF93DF93CDB7DEB7EC970FB67F
:1028D000F894DEBF0FBECDBFE9E3F2E013821282AF
:1028E00088EE93E0A0E0B0E084839583A683B7836D
:1028F00023E331E0318320832FEF3FEF35872487B7
:10290000E9E8F2E01382128284839583A683B78379
:1029100085E491E091838083E0EFF4E010821182FE
:1029200012821382148215821682178210861186F3
:1029300012861386E8E6F7E010828EE181838283B7
:10294000138284838583168287838087118682879A
:102950008387E8E3F7E000E010E020EC30E4008358
:1029600011832283338346E656E666EA70E44483A5
:1029700055836683778386E696E6AEE0B1E480878A
:102980009187A287B3870487158726873787408B6F
:10299000518B628B738B848B958BA68BB78B008F3F
:1029A000118F228F338F448F558F668F778F80A33F
:1029B00091A3A2A3B3A304A315A326A337A340A75F
:1029C00051A762A773A784A795A7A6A7B7A7E7E013
:1029D000F2E0E491AAEDB4E01496EC931497E6E0EB
:1029E000F2E0E4911596EC93159788EE91E0FC01E6
:1029F0002491E22FF0E0EE0FFF1FEF52FE4F2591E2
:102A0000349117963C932E931697E7EEF1E0E491FC
:102A1000F0E0EE0FFF1FED53FE4F25913491199614
:102A20003C932E931897FC018491E82FF0E0EE0F71
:102A3000FF1FEB54FE4F859194911B969C938E93B0
:102A40001A978DE89FE61D969C938E931C9784EFB2
:102A500091E053969C938E93529784E290E0559622
:102A60009C938E9354978CE0E3E5F1E0DE01D196E0
:102A700001900D928A95E1F780E3E8E3F7E0DE014B
:102A8000119601900D928A95E1F705E912E080E434
:102A9000F801808329A93AA94BA91F930F9381E0DC
:102AA0008F938DB79EB70C970FB6F8949EBF0FBE4D
:102AB0008DBFADB7BEB711968CE0FE013196019087
:102AC0000D928A95E1F760E070E086E992E00E945D
:102AD000F7082CA93DA94EA91F930F9382E08F936D
:102AE000EDB7FEB73C970FB6F894FEBF0FBEEDBF33
:102AF000ADB7BEB711968CE0FE013D9601900D92E8
:102B00008A95E1F761E070E085E293E00E94F708C2
:102B10002FA938AD49AD1F930F9383E08F938DB7E5
:102B20009EB70C970FB6F8949EBF0FBE8DBFADB782
:102B3000BEB711968CE0FE01799601900D928A95B0
:102B4000E1F762E070E084EB93E00E94F7080FB6D3
:102B5000F894DEBF0FBECDBF2AAD3BAD4CAD1F9389
:102B60000F9384E08F938DB79EB70C970FB6F894B0
:102B70009EBF0FBE8DBFADB7BEB711968CE0FE01F4
:102B8000B59601900D928A95E1F763E070E083E4D9
:102B900094E00E94F70886E992E09093D304809332
:102BA000D20485E293E09093D5048093D40484EB1F
:102BB00093E09093D7048093D60483E494E09093B9
:102BC000D9048093D8048FE8E6E9F2E0A9EAB6E0F8
:102BD00001900D928A95E1F78FE8E5E2F3E0AAE132
:102BE000B6E001900D928A95E1F78FE8E4EBF3E00F
:102BF000ABE8B5E001900D928A95E1F78FE8E3E448
:102C0000F4E0ACEFB4E001900D928A95E1F70FB6D5
:102C1000F894DEBF0FBECDBFEC960FB6F894DEBFC2
:102C20000FBECDBFDF91CF911F910F910895052E5B
:102C300097FB1EF400940E942E1657FD07D00E94A9
:102C4000411607FC03D04EF40C942E165095409577
:102C5000309521953F4F4F4F5F4F08959095809548
:102C6000709561957F4F8F4F9F4F08950E94631617
:102C7000A59F900DB49F900DA49F800D911D1124D0
:102C80000895A1E21A2EAA1BBB1BFD010DC0AA1FAD
:102C9000BB1FEE1FFF1FA217B307E407F50720F0C5
:102CA000A21BB30BE40BF50B661F771F881F991F40
:102CB0001A9469F760957095809590959B01AC0189
:102CC000BD01CF010895A29FB001B39FC001A39F92
:102CD000700D811D1124911DB29F700D811D112455
:102CE000911D08955058BB27AA270E948A160C945C
:102CF000AA180E94711838F00E94781820F039F450
:102D00009F3F19F426F40C9433180EF4E095E7FB7A
:102D10000C942D18E92F0E94CF1858F3BA176207A8
:102D200073078407950720F079F4A6F50C94F11841
:102D30000EF4E0950B2EBA2FA02D0B01B9019001D6
:102D40000C01CA01A0011124FF27591B99F0593F1A
:102D500050F4503E68F11A16F040A22F232F342F62
:102D60004427585FF3CF469537952795A795F040B0
:102D70005395C9F77EF41F16BA0B620B730B840BC5
:102D8000BAF09150A1F0FF0FBB1F661F771F881F7D
:102D9000C2F70EC0BA0F621F731F841F48F48795D5
:102DA00077956795B795F7959E3F08F0B0CF9395C7
:102DB000880F08F09927EE0F9795879508959F93B0
:102DC0009F77EEE389379E0728F4EAECF0E00E9453
:102DD0005D180CC00E94E9179058A2EA2AED3FE066
:102DE00049EC5FE30E948A160E94AA180F9007FC24
:102DF000905808950E94091808F481E008950E94EF
:102E00008118E3950C94BB180E9418170C94AA180B
:102E10000E94781858F00E94711840F029F45F3F22
:102E200029F00C942D1851110C94F2180C943318AD
:102E30000E94CF1868F39923B1F3552391F3951BA2
:102E4000550BBB27AA2762177307840738F09F5FCB
:102E50005F4F220F331F441FAA1FA9F335D00E2E38
:102E60003AF0E0E832D091505040E695001CCAF7A5
:102E70002BD0FE2F29D0660F771F881FBB1F261768
:102E800037074807AB07B0E809F0BB0B802DBF013F
:102E9000FF2793585F4F3AF09E3F510578F00C940E
:102EA0002D180C94F2185F3FE4F3983ED4F3869506
:102EB00077956795B795F7959F5FC9F7880F911D2F
:102EC0009695879597F90895E1E0660F771F881F1B
:102ED000BB1F621773078407BA0720F0621B730BCE
:102EE000840BBA0BEE1F88F7E09508950E947D17BA
:102EF0006894B1110C94F21808950E94D71888F0C4
:102F00009F5798F0B92F9927B751B0F0E1F0660FAD
:102F1000771F881F991F1AF0BA95C9F714C0B130EE
:102F200091F00E94F118B1E008950C94F118672F08
:102F3000782F8827B85F39F0B93FCCF3869577951D
:102F40006795B395D9F73EF4909580957095619506
:102F50007F4F8F4F9F4F0895E89409C097FB3EF431
:102F600090958095709561957F4F8F4F9F4F9923D6
:102F7000A9F0F92F96E9BB279395F6958795779554
:102F80006795B795F111F8CFFAF4BB0F11F460FF14
:102F90001BC06F5F7F4F8F4F9F4F16C0882311F06C
:102FA00096E911C0772321F09EE8872F762F05C080
:102FB000662371F096E8862F70E060E02AF09A951B
:102FC000660F771F881FDAF7880F9695879597F910
:102FD0000895DF93CF931F930F938B01EC01EEEDD8
:102FE000F0E00E9436180E94AA189801AE018B01E9
:102FF000EC0160E070E080E89FE30E9472160E949E
:1030000078199801AE010F911F91CF91DF910C9427
:103010001019990F0008550FAA0BE0E8FEEF1616DD
:103020001706E807F907C0F012161306E407F507BC
:1030300098F0621B730B840B950B39F40A2661F030
:10304000232B242B252B21F408950A2609F4A140D3
:10305000A6958FEF811D811D089597F99F6780E8E0
:1030600070E060E008959FEF80EC0895DF93CF93C8
:103070001F930F93FF92EF92DF927B018C01689474
:1030800006C0DA2EEF010E941019FE01E894A59106
:103090002591359145915591A6F3EF010E948A162D
:1030A000FE019701A801DA9469F7DF90EF90FF9095
:1030B0000F911F91CF91DF9108959F938F937F93ED
:1030C0006F93FF93EF939B01AC010E94FD18EF916A
:1030D000FF910E9436182F913F914F915F910C9470
:1030E000FD1800240A9416161706180609060895F6
:1030F00000240A94121613061406050608950C946B
:1031000033180E94D718D8F3E894E0E0BB279F5704
:10311000F0F02AED3FE049EC06C0EE0FBB0F661F52
:10312000771F881F28F0B23A62077307840728F0D8
:10313000B25A620B730B840BE3959A9572F7803841
:1031400030F49A95BB0F661F771F881FD2F79048FF
:103150000C94BA19092E0394000C11F4882352F030
:10316000BB0F40F4BF2B11F460FF04C06F5F7F4FB3
:103170008F4F9F4F0895EF93E0FF07C0A2EA2AED1B
:103180003FE049EC5FEB0E948A160E94AA180F905C
:10319000039401FC9058E6E0F1E00C945D1857FDB3
:1031A0009058440F551F59F05F3F71F04795880FB5
:1031B00097FB991F61F09F3F79F08795089512164C
:1031C00013061406551FF2CF4695F1DF08C01616F8
:1031D00017061806991FF1CF8695710561050894A9
:1031E0000895E894BB2766277727CB0197F90895C0
:1031F0000E94091808F48FEF08950E9410190C948A
:10320000AA180E94711838F00E94781820F09523AF
:1032100011F00C942D180C94331811240C94F218FE
:103220000E94CF1870F3959FC1F3950F50E0551F82
:10323000629FF001729FBB27F00DB11D639FAA270B
:10324000F00DB11DAA1F649F6627B00DA11D661F5A
:10325000829F2227B00DA11D621F739FB00DA11D7B
:10326000621F839FA00D611D221F749F3327A00D35
:10327000611D231F849F600D211D822F762F6A2FD1
:1032800011249F5750409AF0F1F088234AF0EE0F36
:10329000FF1FBB1F661F771F881F91505040A9F763
:1032A0009E3F510580F00C942D180C94F2185F3F4E
:1032B000E4F3983ED4F3869577956795B795F7959F
:1032C000E7959F5FC1F7FE2B880F911D9695879517
:1032D00097F908959F930E9481180F9007FCEE5F65
:1032E0000C94BB1819F416F40C9433180C94B819F8
:1032F0000E94D718B8F39923C9F3B6F39F57550B1B
:1033000087FF0E94C6190024A0E640EA9001805879
:103310005695979528F4805C660F771F881F20F0DC
:1033200026173707480730F4621B730B840B2029DC
:1033300031294A2BA69517940794202531254A2731
:1033400058F7660F771F881F20F0261737074807A2
:1033500030F4620B730B840B200D311D411DA095C1
:1033600081F7B901842F9158880F96958795089514
:103370009F3F31F0915020F4879577956795B795E9
:10338000880F911D9695879597F908959150504013
:10339000660F771F881FD2F70895EE0FFF1F059065
:1033A000F491E02D09940E946316B7FF0895821BE3
:1033B000930B089581E090E0F8940C94DF19F89451
:0233C000FFCF3D
:1033C200FFFFFFFF00E100000000000000C180815C
:1033D200000000010000000200030000FB0A0000E0
:1033E20000000000000000000002000100030000D5
:1033F20000000004023203B7031A022502DF03BBF6
:103402000300000000D102A1026C023F0263024FDE
:1034120002400200040801050902060A03070B0024
:00000001FF
