:100000000C94D5000C94FD000C94FD000C94FD00A4
:100010000C94FD000C94FD000C94FD000C94FD006C
:100020000C94FD000C94FD000C9455070C94C7072C
:100030000C94FD000C94FD000C94FD000C94FD004C
:100040000C94FD000C94FD000C94FD000C94FD003C
:100050000C94FD000C94FD000C94FD000C943B03EB
:100060000C94FD000C94FD000C94FD000C94FD001C
:100070000C94FD000C94FD000C94FD000C94FD000C
:100080000C94FD000C94FD000C94FD000C94FD00FC
:100090000C94AC030C94FD000C94FD000C94FD003A
:1000A0000C94FD000C9485030C94FD00F30BF60BEF
:1000B000E50BE90BED0B170C170C170CFA0BFE0BED
:1000C000020C080C0C0C170C120C080B000202029C
:1000D00001000904000001020200000524001001D3
:1000E0000524010101042402060524060001070578
:1000F000810310004009040100020A000000070506
:1001000002024000000705830240000004030904C6
:1001100012010002EF020140412337800001010279
:10012000030141726475696E6F204C4C430041724B
:100130006475696E6F204D6963726F000000000086
:10014000250028002B002E003100040404040403C1
:100150000405020202020403020202020606060667
:10016000060604040202020404040802011040808E
:10017000401020408040800802040180402010028E
:1001800001108010204040200000000200090F00F4
:1001900000030401000C000000000000000000004B
:1001A0000000000000000000E10E11241FBECFEF90
:1001B000DAE0DEBFCDBF11E0A0E0B1E0EAEAF3E2B1
:1001C00002C005900D92AC35B107D9F727E0ACE538
:1001D000B1E001C01D92A23CB207E1F710E0C5ED0D
:1001E000D0E004C02197FE010E94C111C43DD10797
:1001F000C9F70E94640C0C94D3110C940000CF92A8
:10020000DF92EF92FF920F931F93CF93DF936C01D6
:100210007A018B01C0E0D0E0CE15DF0589F0D8016E
:100220006D918D01D601ED91FC910190F081E02D51
:10023000C6010995892B11F47E0102C02196ECCFED
:10024000C701DF91CF911F910F91FF90EF90DF9049
:10025000CF9008950895E091CA018091C901E817EF
:1002600030F4F0E0E755FE4F808190E008958FEF85
:100270009FEF08959091CA018091C901981750F499
:10028000E92FF0E0E755FE4F208130E09F5F90932B
:10029000CA0102C02FEF3FEFC90108958091C90143
:1002A00090E02091CA01821B91090895089580E091
:1002B00090E0089585ED8093BC008091BC0084FDA2
:1002C000FCCF10920402089540918201262F30E065
:1002D000240F311D21323105DCF420910402243039
:1002E000C9F4FC0180E090E0861758F43091820157
:1002F0002191DC01A05ABE4FA30FB11D2C93019692
:10030000F3CF80918201680F6093820180E00895AD
:1003100081E0089582E00895CF92DF92EF92FF92FC
:100320000F931F93CF93DF937C01262F972F8A0182
:1003300080910502882391F0C62FD72F6E01C40E3D
:10034000D51ECC15DD0571F06991D701ED91FC91B9
:100350000190F081E02DC7010995F3CF642F822F22
:100360000E946401C801DF91CF911F910F91FF900E
:10037000EF90DF90CF900895CF93DF931F92CDB78A
:10038000DEB76983209105022223D1F02091280253
:10039000203240F021E030E0FC013383228380E012
:1003A00090E015C080910602E82FF0E0E95FFD4F74
:1003B000998190838F5F809306028093280205C005
:1003C00061E0CE0101960E94640181E090E00F900F
:1003D000DF91CF9108950E94CE11CF92DF92EF92DC
:1003E000FF921F93CF93DF93EC01673A2CF0162F07
:1003F0006B351CF01AE501C016EA2BA5210F8AA562
:10040000289F202D1124273A24F02B351CF02AE5B3
:1004100001C026EA822F220F990BAA0BBB0B9C016D
:10042000AD01265A3F4F4F4F5F4FA8E4B1E00E9405
:10043000541024EB30E040E050E00E943510690198
:100440007A018FE8C80ED11CE11CF11C6DA1E8A94E
:10045000F9A9808191E09093050280932702109280
:1004600006021092280284E0689FB00111246A5F9E
:100470007F4F89E292E00E94BC0180E090E00E9400
:10048000490B80E090E00E94490BC6010E94490B95
:100490008D2D90E00E94490B81E00E94EC0A1DA77F
:1004A000DF91CF911F91FF90EF90DF90CF90089553
:1004B0006F927F928F929F92AF92BF92CF92DF9274
:1004C000EF92FF920F931F93CF93DF934B015C0149
:1004D00005E610E09BEF692E99EF792E86EAE82E6B
:1004E00084E0F82ED7018D919D91EC01CA56DF4F23
:1004F00084569F4FE991F99135A524A5321304C084
:10050000C817D907B9F74BC00150110909F44CC0FD
:10051000D701CD91DD917D016E01B6E9CB0ED11CE5
:10052000C456DF4FD601ED91FD916D0125A544A57F
:10053000241302C016A626C086A5280F273A24F049
:100540002B351CF02AE501C026EA622F220F770B1B
:10055000181644F4842F042E000C990B8617970765
:1005600054F00DC0882359F0842F042E000C990BF1
:100570006817790724F4642F440F770B16A6CF0170
:100580000E94ED01CC16DD0669F6BEEAEB16B4E07A
:10059000FB0609F0BDCFC3010197F1F79FCFE4E05F
:1005A000AE3ABE0709F09FCFC501B401DF91CF91EC
:1005B0001F910F91FF90EF90DF90CF90BF90AF9081
:1005C0009F908F907F906F900C94F709BF92CF927D
:1005D000DF92EF92FF920F931F93CF93DF93EC0183
:1005E000B62E69017A01288F398F4A8F5B8F1C8A5A
:1005F0001D8A1E8A1F8A188619861A861B8620E085
:1006000030E0A901C701B6010E942C116C877D87DB
:100610008E879F87688379838A839B83C88AD98AD8
:10062000EA8AFB8ACC82DD82EE82FF8218A219A2BE
:100630001AA21BA21C8E1D8E1E8E1F8E1BA61CA610
:100640001DA61EA61FA619AB08ABBDA281E08AA7F6
:1006500080E090E0A8E4B2E48EA39FA3A8A7B9A786
:100660001CA2DF91CF911F910F91FF90EF90DF902F
:10067000CF90BF9008951F920F920FB60F92112442
:100680002F933F938F939F93AF93BF938091CC0110
:100690009091CD01A091CE01B091CF013091CB01CD
:1006A00023E0230F2D3720F40196A11DB11D05C0B5
:1006B00026E8230F0296A11DB11D2093CB01809344
:1006C000CC019093CD01A093CE01B093CF01809146
:1006D000D0019091D101A091D201B091D3010196A6
:1006E000A11DB11D8093D0019093D101A093D2019F
:1006F000B093D301BF91AF919F918F913F912F9173
:100700000F900FBE0F901F9018951F920F920FB66B
:100710000F9211242F933F934F935F936F937F9387
:100720008F939F93AF93BF93EF93FF93E091A701B4
:10073000F091A8010995FF91EF91BF91AF919F9121
:100740008F917F916F915F914F913F912F910F907A
:100750000FBE0F901F9018951F920F920FB60F9219
:1007600011242F933F934F935F936F937F938F93B6
:100770009F93AF93BF93EF93FF938091B900887FCE
:10078000803609F49CC068F5883209F45BC090F4A7
:10079000803109F454C038F4882309F4F6C0883055
:1007A00009F44DC0F6C0883109F44CC0803209F418
:1007B0005DC0EFC0803409F468C048F4803309F4A8
:1007C00055C0883309F0E5C080930202D8C0803557
:1007D00009F44FC0883509F45DC0883409F0D9C0E8
:1007E000D6C0883909F4C7C0A8F4883709F467C0AF
:1007F00038F4883609F463C0803709F460C0C9C092
:10080000883809F4B8C0803909F45FC0803809F02D
:10081000C0C05BC0803B09F486C038F4803A09F45C
:1008200066C0883A09F47FC0B4C0803C09F4A7C010
:10083000883C09F4A4C0883B09F48AC0AAC080910E
:10084000DF0110C09091010280910002981770F5AD
:10085000E091010281E08E0F80930102F0E0E0520E
:10086000FE4F80818093BB0085EC86C0809302029E
:100870008EC0E091010281E08E0F80930102809191
:10088000BB00F0E0E052FE4F808390910102809126
:1008900000026EC0E091010281E08E0F80930102A0
:1008A0008091BB00F0E0E052FE4F80838091030214
:1008B00081116DC081E08093DE0184EA61C083E034
:1008C000809304021092A601CFCF8091A6018032BE
:1008D00008F051C0E091A60181E08E0F8093A6013F
:1008E0008091BB00F0E0EA57FE4F8083BDCF85ECDE
:1008F0008093BC00109204028091A601803230F4F3
:10090000E091A601F0E0EA57FE4F10826091A60147
:1009100070E0E0918401F091850186E891E009950D
:100920001092A60136C084E08093040210928301E5
:1009300010928201E0918001F091810109958091EE
:100940008201811105C081E08093820110926001D3
:10095000E091830181E08E0F80938301F0E0E05A03
:10096000FE4F80818093BB00909183018091820132
:10097000981708F479CF85E88093BC000AC085EC0D
:100980008093BC001092040204C0109202020E94E4
:100990005A01FF91EF91BF91AF919F918F917F91FC
:1009A0006F915F914F913F912F910F900FBE0F90DC
:1009B0001F9018954F925F926F927F928F929F92A5
:1009C000AF92BF92CF92DF92EF92FF920F931F935D
:1009D000CF93DF93CDB7DEB72C970FB6F894DEBF79
:1009E0000FBECDBF3C01842F452E562E89829A82A0
:1009F000AB82BC82CD82DE82EF82F88609871A87BD
:100A00002B873C8729813A814B815C810F8D18A10E
:100A1000682FC3010E94E602630122E3C20ED11CCB
:100A20002D813E814F8158850F8D18A1642DC601FF
:100A30000E94E602730134E6E30EF11C29853A8533
:100A40004B855C850F8D18A1652DC7010E94E602BC
:100A5000F301EA56FF4F718260823296D182C082E2
:100A60003296F182E0822C960FB6F894DEBF0FBE6C
:100A7000CDBFDF91CF911F910F91FF90EF90DF904D
:100A8000CF90BF90AF909F908F907F906F905F902E
:100A90004F900895CF92DF92EF92FF920F931F93A2
:100AA000CF93DF938C01442329F0242F453618F08F
:100AB00024E601C020E0673A2CF0C62F6B351CF00D
:100AC000CAE501C0C6EAF801C4A7D5A5AC2F0C2E13
:100AD000000CBB0BAD1BB109D7FDB395B7FD07C02B
:100AE000C12CD12C90E8E92E9FE3F92E06C0C12C31
:100AF000D12C80E8E82E8FEBF82EB7FF03C0B1951C
:100B0000A195B10930E00E94C71124E630E040E031
:100B100050E00E943510CA01B9010E94C810A70117
:100B200096010E942C110E9490106115710531F4FC
:100B3000CD1721F0C701B6010E949010F80166A7F9
:100B4000DF91CF911F910F91FF90EF90DF90CF90A9
:100B50000895CF92DF92EF92FF920F931F93CF935E
:100B6000DF9300D0CDB7DEB7F42EE62E8C010A5607
:100B70001F4FC12CD12CC114D10431F081E0C81613
:100B8000D10421F4352F03C03F2D01C03E2DD801E3
:100B9000ED91FD918D0194A1632F690F422FCF013B
:100BA00029835A830E944A05BFEFCB1ADB0A2981A9
:100BB0005A8183E0C816D104F1F60F900F90DF91AF
:100BC000CF911F910F91FF90EF90DF90CF900895FC
:100BD000FC016130710549F06230710551F0672BFD
:100BE00061F480819181A2810BC083819481A58170
:100BF00007C086819781A08503C081859285A385E2
:100C0000BC018A2F0895FC018485958597FD0BC052
:100C10009FB7F89482E08093E9008091F2009FBF33
:100C200090E0019608959FB7F89482E08093E900E0
:100C30008091F2009FBF90E008954091D8015091BB
:100C4000D9012091D6013091D70142175307B4F44E
:100C50009091E8009570E1F39091E80092FD19C041
:100C60008093F1008091D8019091D90101968F7302
:100C70009927892B19F48EEF8093E8008091D80191
:100C80009091D90101969093D9018093D80181E088
:100C9000089580E00895CF92DF92EF92FF920F9334
:100CA0001F93CF93DF931F92CDB7DEB7182F062F78
:100CB000E42E862F880F8E5F99830E941D0683E0A5
:100CC0000E941D06F12EC12E9981D92E8C2D8F19CF
:100CD000801798F4F601E7FE02C0849101C080817C
:100CE0000E941D06182F80E00E941D068123FFEF41
:100CF000CF1ADF0A8111EACF01C081E00F90DF91A6
:100D0000CF911F910F91FF90EF90DF90CF900895BA
:100D1000DF92EF92FF920F931F93CF93DF93D82E22
:100D20008A017B01E40EF51EEB01CE15DF0571F0A3
:100D3000D7FE03C0FE01849101C088810E941D0678
:100D400021968111F2CF8FEF9FEF01C0C801DF9193
:100D5000CF911F910F91FF90EF90DF900895615018
:100D600030F02091F100FC0120830196F8CF289A01
:100D700084E68093DC0108953FB7F8948091D00118
:100D80009091D101A091D201B091D30126B5A89B39
:100D900005C02F3F19F00196A11DB11D3FBFBA2F0D
:100DA000A92F982F8827820F911DA11DB11DBC016D
:100DB000CD0142E0660F771F881F991F4A95D1F732
:100DC0000895CF93DF931F92CDB7DEB7FC018485E2
:100DD000958597FD05C02FEF3FEF358724870BC022
:100DE000CE0101960E94260C019719F4898190E0AA
:100DF00002C08FEF9FEF0F90DF91CF9108950F9377
:100E00001F93CF93DF931F92CDB7DEB78C01FC0108
:100E10008485958597FF0EC0CE0101960E94260C11
:100E2000019719F4298130E002C02FEF3FEFF8015C
:100E300035872487F801848595850F90DF91CF91C0
:100E40001F910F9108950F931F93CF93DF931F92DC
:100E5000CDB7DEB782E0898342E450E06AEC70E00F
:100E600080E80E9488060E94500CDC0112960D91C9
:100E70001C9113970115110569F0D801ED91FC91B2
:100E80000280F381E02DBE016F5F7F4FC80109959D
:100E900097FF07C089810F90DF91CF911F910F912C
:100EA0000895F80100851185E5CF1F920F920FB6C6
:100EB0000F9211248F939F938091E1009091E10014
:100EC000937F9093E10083FF0FC01092E90091E0BF
:100ED0009093EB001092EC0092E39093ED0010924F
:100EE000DD0198E09093F00082FF20C093E09093A2
:100EF000E9009091F200992319F09AE39093E800A9
:100F00009091DA01992339F09091DA019150909300
:100F1000DA01992389F19091DC01992339F09091BC
:100F2000DC0191509093DC01992341F184FF10C0C2
:100F30008091E2008E7E81608093E2008091E100EA
:100F40008F7E8093E1008091DB018E7E806111C0F5
:100F500080FF16C08091E2008E7E80618093E20067
:100F60008091E1008E7E8093E1008091DB018E7E96
:100F700081608093DB0104C05D98CDCF2898D6CFE7
:100F80009F918F910F900FBE0F901F9018951F92F9
:100F90000F920FB60F921124CF92DF92EF92FF9231
:100FA0000F931F932F933F934F935F936F937F9371
:100FB0008F939F93AF93BF93EF93FF93CF93DF9361
:100FC000CDB7DEB76C97DEBFCDBF1092E900809140
:100FD000E80083FFEDC168E0CE0145960E94AF06B0
:100FE00082EF8093E8008D8987FF05C09091E8002B
:100FF00090FFFCCF03C09EEF9093E800982F90766F
:1010000009F0C6C09E892F89188D91110CC08038B7
:1010100029F48091D5018093F10002C01092F10073
:101020001092F10048C1422F50E0512B913051F401
:10103000811141C14130510509F03DC18091D50177
:101040008D7F0BC0933061F4811135C14130510562
:1010500009F031C18091D50182608093D5012BC107
:10106000953041F48091E80080FFFCCF2068209308
:10107000E30021C1963009F05FC0EB8CFC8C10922C
:10108000E9001092D9011092D801123091F5109216
:10109000D7011092D6010E94230799E0BE016F5F2D
:1010A0007F4FDB01E92F1D92EA95E9F799831A83B7
:1010B00091E09E8390EA98879AEF99872091D801D2
:1010C0003091D901275F3F4F3C832B838D83109252
:1010D000E9001092D9011092D801F092D701E09264
:1010E000D60149E050E080E00E9488060E94230774
:1010F000E2C0F092D701E092D6010E94500CDC01D0
:101100001296ED90FC901397E114F10409F4C0C01D
:10111000D701ED91FC910480F581E02DBE016B5E5D
:101120007F4FC7010995009719F00CF0C4C0C7C0E4
:10113000F701E084F184E8CF973009F4C0C098301B
:1011400021F481E08093F100B6C0993009F0B3C07A
:10115000837009F0B4C0E5E2F1E081E021E036E31C
:101160009081992361F08093E9002093EB009191A5
:101170009093EC003093ED008F5F873089F78EE716
:101180008093EA001092EA008F898093DD0193C07A
:101190008B8D9C8D1092E9001092D9011092D8018C
:1011A0009093D7018093D601898D811156C08E8985
:1011B0009D89913A59F4813209F081C047E050E0AD
:1011C00064E071E080E00E94880675C0913209F009
:1011D00076C0833289F4888D90E0982F88272F89F4
:1011E000822BA0E0B0E08093000190930101A093D6
:1011F0000201B09303015FC0803269F48091E8007E
:1012000082FFFCCF67E084E091E00E94AF068BEFA5
:101210008093E80006C0823209F04DC08F89809328
:101220000B018091D401882319F0EEEFFAE002C09F
:10123000E0E0F8E08091040190910501A0910601A1
:10124000B0910701803B9440A105B10509F07BC036
:1012500080910B0180FF93C076C00E94500CDC018E
:1012600012960D911C9113970115110541F1D801AA
:10127000ED91FC910190F081E02DBE016B5E7F4FFE
:10128000C8010995811117C0F80100851185ECCFBF
:10129000113009F44EC0133091F48F89882309F47A
:1012A00045C0823081F440E86DE08EE291E00E941A
:1012B0004B06882321F08EEF8093E80079C081E20D
:1012C0008093EB0075C0813029F440E86BE082E246
:1012D00091E0EDCF833099F70E94500CDC0112961B
:1012E000ED90FC9013978E010F5F1F4F6801E11482
:1012F000F10479F0D701ED91FC910680F781E02DA2
:10130000B801C7010995080F111DF701E084F184A8
:10131000EECFD8011C92F60101900020E9F7319739
:10132000BF016C197D0940E0C601C1CF6CE071E0DE
:1013300002C060E171E06115710509F2FB014491A1
:1013400050E080E840CF0FB6F894A89580916000F7
:10135000886180936000109260000FBEA895EE3FF8
:101360002AE0F20739F08091FE0A9091FF0A9183FA
:101370008083A1CF1092FF0A1092FE0A9CCFEE3F0D
:101380008AE0F80731F0808191819093FF0A809381
:10139000FE0A87E797E7918380839BE088E10FB699
:1013A000F894A895809360000FBE9093600083CF5F
:1013B0006C960FB6F894DEBF0FBECDBFDF91CF9114
:1013C000FF91EF91BF91AF919F918F917F916F911D
:1013D0005F914F913F912F911F910F91FF90EF904F
:1013E000DF90CF900F900FBE0F901F9018958F92A7
:1013F0009F92AF92BF92CF92DF92EF92FF926B01DA
:101400007C010E94BC064B015C01C114D104E104C3
:10141000F104F1F00E94BC06DC01CB0188199909A6
:10142000AA09BB09883E9340A105B10570F321E0EC
:10143000C21AD108E108F10888EE880E83E0981EF0
:10144000A11CB11CC114D104E104F10419F7DDCFD2
:10145000FF90EF90DF90CF90BF90AF909F908F90D4
:1014600008952FB7F89483E08093E9009091E80005
:10147000892F807295FF04C09091F20080E4891B4F
:101480002FBF0895CF93DF931F92CDB7DEB7698347
:10149000DC01ED91FC910280F381E02D41E050E010
:1014A000BE016F5F7F4F09950F90DF91CF91089537
:1014B00083E08093E9008091F200882319F08AE3A9
:1014C0008093E80008950E94310A90E008958F9279
:1014D0009F92AF92BF92CF92DF92EF92FF920F93C3
:1014E0001F93CF93DF935C016B017A0180910B0115
:1014F000882309F45BC08091DD01882309F456C07C
:101500008091DB0180FF05C08091E00082608093C4
:10151000E000E70110E00AEF83E0882E9AE3992EBD
:101520002097D9F10E94310A81110AC0015009F4B3
:101530003DC061E070E080E090E00E94F709F0CFEC
:10154000282F30E0C217D3070CF48C2F4FB7F89434
:101550008092E9009091E80095FF1DC0282F30E0AF
:10156000C21BD30BF601982F915020F081918093EC
:10157000F100FACFC20ED31E112319F09092E800A9
:1015800009C08091E80085FD06C09092E80011E056
:10159000209709F010E04FBFC3CF1111C3CF5D9A60
:1015A00084E68093DA011E141F0444F081E090E089
:1015B000F5019383828380E090E001C0C701DF9151
:1015C000CF911F910F91FF90EF90DF90CF90BF9040
:1015D000AF909F908F900895382F2091280290917E
:1015E0002702213208F049C0809104028111FCCF0A
:1015F00042E040930402309303023FEF3093020233
:101600001092010220930002A7E0B2E040EE51E008
:10161000FA013E2F341B321718F43D913193F9CF64
:101620001092DF012091DF01990F922B9093DF013F
:101630009091DE01913061F41092DE019091DF0112
:101640009093BB009091BC0093FDF8CF95EC01C046
:1016500095EE9093BC00909104029230E1F390914A
:1016600002029F3F79F080910202803241F0809126
:101670000202803331F084E005C081E003C082E0E3
:1016800001C083E010920602109228021092050217
:101690000895682F89E292E00C94BC01BF92CF922A
:1016A000DF92EF92FF920F931F93CF93DF93CDB70B
:1016B000DEB72D970FB6F894DEBF0FBECDBFE9821F
:1016C000FA820B831C832D833E834F83588769875F
:1016D0007A878B879C8786EAC82E84E0D82EE12CF7
:1016E000F12CB701CE0101960E94E805B82EF60153
:1016F000019111916F01F801EA56FF4F42E3808199
:1017000091817D870E944A05F801E856FF4F42E328
:101710007D85672F808191810E944A05F801E656F8
:10172000FF4F42E36B2D808191810E944A05FFEFBC
:10173000EF1AFF0A84E0E816F10499F62D960FB629
:10174000F894DEBF0FBECDBFDF91CF911F910F91F7
:10175000FF90EF90DF90CF90BF900895CF93C62F6A
:101760009091350221E02093050290932702109278
:10177000060210922802682F89E292E00E94BC01C2
:101780006C2F89E292E00E94BC0181E0CF910C9421
:10179000EC0A90E0FC01E857FE4F4491FC01E75948
:1017A000FE4F2491FC01E65BFE4F8491882309F4EF
:1017B0004CC04423E1F150E0FA013197EF30F105DC
:1017C000B0F5EA5AFF4F0C94C111909180009F77B9
:1017D00007C0909180009F7D03C090918000977F0B
:1017E0009093800024C094B59F7702C094B59F7DEC
:1017F00094BD1DC0909190009F7707C0909190007C
:101800009F7D03C090919000977F909390000FC0B0
:101810009091C0009F7703C09091C0009F7D9093EE
:10182000C00005C09091C200977F9093C200E82F3E
:10183000F0E0EE0FFF1FE45CFE4FA591B4918FB76F
:10184000F894EC912E2B2C938FBF0895FC0180917E
:10185000DD01811103C08FEF9FEF08959FB7F894CA
:1018600082E08093E9002091F20030E01216130626
:1018700014F421E030E02115310559F0289A84E66E
:101880008093DC018091F10080838091F2008823B5
:1018900019F09FBFC90108958BE68093E800F9CF46
:1018A0008091BE0481110DC082E08093BA0484E06F
:1018B0008093BB041092BD041092BC0481E080931D
:1018C000BE048AEB94E00895CF93DF93CDB7DEB7E3
:1018D000C854D1090FB6F894DEBF0FBECDBF7894BF
:1018E00084B5826084BD84B5816084BD85B5826025
:1018F00085BD85B5816085BD80916E0081608093D6
:101900006E0010928100809181008260809381003E
:10191000809181008160809381008091800081604E
:1019200080938000809191008260809391008091EB
:1019300091008160809391008091900081608093FC
:1019400090008091C10084608093C1008091C100AB
:1019500082608093C1008091C10081608093C1004A
:101960008091C30081608093C3008091C000826039
:101970008093C0008091C20081608093C2008091FA
:101980007A00846080937A0080917A0082608093EC
:101990007A0080917A00816080937A0080917A0049
:1019A000806880937A001092DD011092D501109228
:1019B000DB018091D70081608093D70080EA80931B
:1019C000D80089B5806189BD89B5826089BD09B4B7
:1019D00000FEFDCF61E070E080E090E00E94F7093A
:1019E0008091D8008F7C80618093D8008091E00046
:1019F000807F8093E0008091E1008E7E8093E10003
:101A00008DE08093E200559A209A5D982898EEEF39
:101A1000FFE7859194918B3F9C4D19F481E0809371
:101A2000D4018CE0E8E1F1E0DE01D19601900D9265
:101A30008A95E1F726EAC22E24E0D22E760100E054
:101A400010E0B801CE01C1960E94E805F70121918E
:101A500031917F01F901EA56FF4F0190F081E02DAD
:101A600063A7F901E856FF4F0190F081E02D73A7BD
:101A7000F901E656FF4F0190F081E02D83A70F5F3B
:101A80001F4F04301105E9F68CE0EEEAF4E0DE01C8
:101A9000959601900D928A95E1F7EDA0FEA00FA119
:101AA00018A529A53AA54BA55CA56DA57EA58FA572
:101AB00098A90E944E0BA6EAB4E08D919D91FC017D
:101AC000EA56FF4F0190F081E02D24A524A3FC01EC
:101AD000E856FF4F0190F081E02D24A524A3FC01DE
:101AE000E656FF4F0190F081E02D84A584A3F4E039
:101AF000AE3ABF0711F71092CA011092C9011092B5
:101B00000602109228021092040211E010930302C0
:101B10001092DE0182E00E94C90B83E00E94C90B93
:101B20008091B9008E7F8093B9008091B9008D7F3C
:101B30008093B90088E48093B80085E48093BC006A
:101B400060E080E00E94AE0B8091350210930502A8
:101B500080932702109206021092280260E089E228
:101B600092E00E94BC0181E00E94EC0A8091350263
:101B7000909104029111FCCF91E090930402909314
:101B800003022FEF20930202109201021092000232
:101B90009093DF019091DF01880F892B8093DF0103
:101BA0008091DE01813061F41092DE018091DF01CD
:101BB0008093BB008091BC0083FDF8CF85EC01C011
:101BC00085EE8093BC00809104028130E1F3809126
:101BD0000102811103C08091010201C081E0A0EEE9
:101BE000B1E029EA31E0F9019E2F921B981718F411
:101BF0009D919193F9CF1092CA018093C90189E216
:101C000092E00E943A01182F682F6F76606180E0A1
:101C10000E94AE0B67E88EEF0E94AE0B612F80E052
:101C20000E94AE0B65E070E080E090E00E94F70952
:101C3000612F616A80E00E94AE0B96EAE92E94E083
:101C4000F92EF701819191917F015C01F6E9AF0EC8
:101C5000B11C8C0104561F4FF501819191915F01D8
:101C6000FC0164A50E94ED01A016B106A9F7FEEAE9
:101C7000EF16F4E0FF0629F768EE73E080E090E0ED
:101C80000E94F7098CE0ECE0F1E0DE01DD960190C6
:101C90000D928A95E1F78CE0FE01FD96DE015996E2
:101CA00001900D928A95E1F786EAE82E84E0F82EFD
:101CB00000E010E0B801CE0149960E94E805AB01B2
:101CC000682F29E1F701819191917F010E94A90577
:101CD0000F5F1F4F0430110569F768EE73E080E075
:101CE00090E00E94580222E342EE5DE263ED86E35B
:101CF00092E00E94A90568EE73E080E090E00E9407
:101D0000580222E342EE53ED63ED86E392E00E9437
:101D1000A90568EE73E080E090E00E94580282EE30
:101D20008D871E861F86188A198A1A8A1B8A1C8A22
:101D30001D8A1E8A1F8A188E00E010E0B801CE01AD
:101D40000D960E94E805AB01682F29E1F60181910B
:101D500091916F010E94A9050F5F1F4F043011057B
:101D600069F768EE73E080E090E00E94580260E15D
:101D700077E280E090E00E94F7098CE0EEEAF4E080
:101D8000DE01119601900D928A95E1F7E980FA80C3
:101D90000B811C812D813E814F81588569857A8513
:101DA0008B859C850E944E0B60E070E0CB010E9409
:101DB000580200E010E001151105E9F30E9400004F
:101DC000FACF6F927F928F929F92AF92BF92CF92F3
:101DD000DF92EF92FF920F931F93CF93DF93CDB7D4
:101DE000DEB7EC970FB6F894DEBF0FBECDBFE6ECC2
:101DF000F4E01382128288EE93E0A0E0B0E08483E6
:101E00009583A683B7832FE231E0318320832FEFC0
:101E10003FEF35872487E9E2F2E013821282848360
:101E20009583A683B78381E491E091838083E6EB79
:101E3000F7E01082118212821382148215821682B8
:101E400017821086118612861386EEEAF4E010825D
:101E50008EE18183828313828483858316828783C4
:101E60008087118682878387E6E8F7E000E010E04C
:101E700020E732E4008311832283338340E050E083
:101E800060E572E4448355836683778380E090E065
:101E9000A2EBB2E480879187A287B3870487158776
:101EA00026873787408B518B628B738B848B958B06
:101EB000A68BB78B008F118F228F338F448F558F56
:101EC000668F778F80A391A3A2A3B3A304A315A3C6
:101ED00026A337A340A751A762A773A784A795A7F6
:101EE000A6A7B7A78CE0EFE4F1E0DE01D196019060
:101EF0000D928A95E1F780E3E6E8F7E0DE011196BE
:101F000001900D928A95E1F785E3682E82E0782EA4
:101F100080E4F301808349A95AA96BA97F926F924B
:101F200089809A80AB80BC80CD80DE80EF80F88491
:101F300009851A852B853C8586E392E00E94DA04A8
:101F40004CA95DA96EA97F926F928D849E84AF8407
:101F5000B888C988DA88EB88FC880D891E892F89A2
:101F6000388D82ED92E00E94DA044FA958AD69AD38
:101F70007F926F92898C9A8CAB8CBC8CCD8CDE8CD2
:101F8000EF8CF8A009A11AA12BA13CA18EE693E049
:101F90000E94DA044AAD5BAD6CAD7F926F928DA06A
:101FA0009EA0AFA0B8A4C9A4DAA4EBA4FCA40DA57C
:101FB0001EA52FA538A98AE094E00E94DA0486E3E2
:101FC00092E09093A7048093A60482ED92E0909310
:101FD000A9048093A8048EE693E09093AB048093C9
:101FE000AA048AE094E09093AD048093AC048CE959
:101FF000E6E3F2E0AAEEB6E001900D928A95E1F7F1
:102000008CE9E2EDF2E0AEE4B6E001900D928A9543
:10201000E1F78CE9EEE6F3E0A2EBB5E001900D927A
:102020008A95E1F78CE9EAE0F4E0A6E1B5E00190F9
:102030000D928A95E1F70FB6F894DEBF0FBECDBFC3
:10204000EC960FB6F894DEBF0FBECDBFDF91CF91F7
:102050001F910F91FF90EF90DF90CF90BF90AF90C6
:102060009F908F907F906F900895052E97FB1EF4A0
:1020700000940E944C1057FD07D00E945F1007FC8F
:1020800003D04EF40C944C1050954095309521950A
:102090003F4F4F4F5F4F0895909580957095619594
:1020A0007F4F8F4F9F4F08950E948110A59F900DE5
:1020B000B49F900DA49F800D911D11240895A1E25D
:1020C0001A2EAA1BBB1BFD010DC0AA1FBB1FEE1FB2
:1020D000FF1FA217B307E407F50720F0A21BB30BFD
:1020E000E40BF50B661F771F881F991F1A9469F779
:1020F00060957095809590959B01AC01BD01CF01D5
:102100000895A29FB001B39FC001A39F700D811DD0
:102110001124911DB29F700D811D1124911D0895F0
:102120000E9497106894B1110C94261108950E9492
:102130000B1188F09F5798F0B92F9927B751B0F03D
:10214000E1F0660F771F881F991F1AF0BA95C9F73B
:1021500014C0B13091F00E942511B1E008950C94A3
:102160002511672F782F8827B85F39F0B93FCCF356
:10217000869577956795B395D9F73EF490958095B8
:10218000709561957F4F8F4F9F4F0895E89409C0D8
:1021900097FB3EF490958095709561957F4F8F4F9A
:1021A0009F4F9923A9F0F92F96E9BB279395F695B0
:1021B000879577956795B795F111F8CFFAF4BB0F2E
:1021C00011F460FF1BC06F5F7F4F8F4F9F4F16C092
:1021D000882311F096E911C0772321F09EE8872F1C
:1021E000762F05C0662371F096E8862F70E060E0D8
:1021F0002AF09A95660F771F881FDAF7880F969551
:10220000879597F9089557FD9058440F551F59F039
:102210005F3F71F04795880F97FB991F61F09F3FD3
:1022200079F087950895121613061406551FF2CFFC
:102230004695F1DF08C0161617061806991FF1CF4C
:1022400086957105610508940895E894BB27662773
:102250007727CB0197F908950E943F110C94B01194
:102260000E94A21138F00E94A91120F0952311F0CC
:102270000C9499110C949F1111240C9426110E9416
:10228000031170F3959FC1F3950F50E0551F629FA6
:10229000F001729FBB27F00DB11D639FAA27F00DBF
:1022A000B11DAA1F649F6627B00DA11D661F829FE6
:1022B0002227B00DA11D621F739FB00DA11D621FCB
:1022C000839FA00D611D221F749F3327A00D611DE8
:1022D000231F849F600D211D822F762F6A2F1124CA
:1022E0009F5750409AF0F1F088234AF0EE0FFF1FFD
:1022F000BB1F661F771F881F91505040A9F79E3F54
:10230000510580F00C9499110C9426115F3FE4F371
:10231000983ED4F3869577956795B795F795E795A9
:102320009F5FC1F7FE2B880F911D9695879597F9B2
:10233000089597F99F6780E870E060E008959FEF47
:1023400080EC089500240A9416161706180609064C
:10235000089500240A94121613061406050608951B
:10236000092E0394000C11F4882352F0BB0F40F4A3
:10237000BF2B11F460FF04C06F5F7F4F8F4F9F4FE3
:102380000895EE0FFF1F0590F491E02D09940E942F
:102390008110B7FF0895821B930B089581E090E0B0
:0A23A000F8940C94D311F894FFCFC9
:1023AA00FFFFFFFF00E100000000000000D3D3D8C8
:1023BA000000002D2DD8000000000500FB000000E1
:1023CA000800000000C180810000000000000042F7
:1023DA000A670A630A580A0306E106FF06000000B4
:1023EA0000BC018C0157012A014E013A012B010060
:0C23FA00040801050902060A03070B0095
:00000001FF
