:100000000C9410010C9438010C9438010C943801B4
:100010000C9438010C9438010C9438010C9438017C
:100020000C9438010C9438010C949F0A0C94110B19
:100030000C9438010C9438010C9438010C9438015C
:100040000C9438010C9438010C9438010C9438014C
:100050000C9438010C9438010C9438010C94550A16
:100060000C9438010C9438010C9438010C9438012C
:100070000C9438010C9438010C9438010C9438011C
:100080000C9438010C9438010C9438010C9438010C
:100090000C9486030C9438010C9438010C943801AC
:1000A0000C9438010C945F030C943801140E170E55
:1000B000060E0A0E0E0E380E380E380E1B0E1F0ED0
:1000C000230E290E2D0E380E330E036EDB363D9AAD
:1000D0009999993DABAAAA2A3E000000803F072CBF
:1000E0007AA5BA6CC590DA3B9365FC8BBC53F810CB
:1000F000FD3C5692834DBD879D3AB63DCBC9BF5B53
:10010000BE73DA0FC93F05A84CCDB2D44EB938360C
:10011000A9020C50B9918688083CA6AAAA2ABE005A
:100120000000803F080B00020202010009040000E9
:100130000102020000052400100105240101010450
:10014000240206052406000107058103100040096A
:10015000040100020A000000070502024000000737
:100160000583024000000403090412010002EF02AB
:10017000014041233780000101020301417264758F
:10018000696E6F204C4C430041726475696E6F203C
:100190004D6963726F000000000200090F00000348
:1001A0000401000C0000000000000000000000003E
:1001B000000000000000000000240027002A002D9D
:1001C000003000000000002300260029002C002F32
:1001D0000000000000250028002B002E0031000444
:1001E00004040404030405020202020403020202DE
:1001F00002060606060606040402020204040408B7
:10020000020110408040102040804080080204011C
:100210008040201002011080102040402000151264
:1002200011241FBECFEFDAE0DEBFCDBF11E0A0E0AA
:10023000B1E0E4E3FFE202C005900D92A035B10702
:10024000D9F728E0A0E5B1E001C01D92AC31B207BA
:10025000E1F711E0C0E1D1E004C02197FE010E9466
:100260008617CF30D107C9F70E9412100C94981747
:100270000C940000CF93DF931F92CDB7DEB7698354
:10028000DC01ED91FC910280F381E02D41E050E032
:10029000BE016F5F7F4F09950F90DF91CF91089559
:1002A00083E08093E9008091F200882319F08AE3CB
:1002B0008093E8000895FC018485958597FD0BC027
:1002C0009FB7F89482E08093E9008091F2009FBF8D
:1002D00090E0019608959FB7F89482E08093E9003A
:1002E0008091F2009FBF90E008950895E091C001D1
:1002F0008091BF01E81730F4F0E0E156FE4F8081B5
:1003000090E008958FEF9FEF08959091C001809144
:10031000BF01981750F4E92FF0E0E156FE4F20811D
:1003200030E09F5F9093C00102C02FEF3FEFC90103
:1003300008958091BF0190E02091C001821B910936
:100340000895089580E090E0089585ED8093BC00C5
:100350008091BC0084FDFCCF1092F801089540917B
:100360007601262F30E0240F311D21323105DCF4D7
:100370002091F8012430C9F4FC0180E090E0861758
:1003800058F4309176012191DC01AC5ABE4FA30F95
:10039000B11D2C930196F3CF80917601680F609385
:1003A000760180E0089581E0089582E00895CF927B
:1003B000DF92EF92FF920F931F93CF93DF937C0115
:1003C000262F972F8A018091F901882391F0C62F5B
:1003D000D72F6E01C40ED51ECC15DD0571F06991C5
:1003E000D701ED91FC910190F081E02DC7010995B5
:1003F000F3CF642F822F0E94AF01C801DF91CF910C
:100400001F910F91FF90EF90DF90CF900895CF93C1
:10041000DF931F92CDB7DEB769832091F9012223C4
:10042000D1F020911C02203240F021E030E0FC01AC
:100430003383228380E090E015C08091FA01E82F99
:10044000F0E0E550FE4F998190838F5F8093FA0131
:1004500080931C0205C061E0CE0101960E94AF01AD
:1004600081E090E00F90DF91CF9108958F929F925D
:10047000AF92BF92CF92DF92EF92FF920F931F93B2
:10048000CF93DF935C016B017A0180910B0188238C
:1004900009F45BC08091D101882309F456C0809192
:1004A0009E0180FF05C08091E00082608093E000A3
:1004B000E70110E00AEF83E0882E9AE3992E209757
:1004C000D9F10E94B30F81110AC0015009F43DC057
:1004D00061E070E080E090E00E94D80FF0CF282F1C
:1004E00030E0C217D3070CF48C2F4FB7F8948092EA
:1004F000E9009091E80095FF1DC0282F30E0C21B55
:10050000D30BF601982F915020F081918093F10048
:10051000FACFC20ED31E112319F09092E80009C041
:100520008091E80085FD06C09092E80011E02097D8
:1005300009F010E04FBFC3CF1111C3CF5D9A84E61D
:1005400080939D011E141F0444F081E090E0F501AA
:100550009383828380E090E001C0C701DF91CF9157
:100560001F910F91FF90EF90DF90CF90BF90AF90D1
:100570009F908F9008950E94B30F90E00895CF93BD
:10058000DF931F92CDB7DEB7FC018485958597FD7B
:1005900005C02FEF3FEF358724870BC0CE010196B2
:1005A0000E94890F019719F4898190E002C08FEFB2
:1005B0009FEF0F90DF91CF9108950F931F93CF93EB
:1005C000DF931F92CDB7DEB78C01FC018485958542
:1005D00097FF0EC0CE0101960E94890F019719F472
:1005E000298130E002C02FEF3FEFF80135872487E3
:1005F000F801848595850F90DF91CF911F910F9120
:1006000008958F929F92AF92BF92CF92DF92EF9216
:10061000FF920F931F93CF93DF93EC014A015B018D
:1006200068017901488F598F6A8F7B8F0C8B1D8BE6
:100630002E8B3F8B088719872A873B87C901B80112
:100640000E942317A50194010E94B6166C877D872E
:100650008E879F87688379838A839B83C701B601CE
:100660000E94B814A50194010E94B616688B798B7C
:100670008A8B9B8B6C837D838E839F83A7019601DE
:10068000C701B6010E942B1468A379A38AA39BA378
:1006900021EE3EE245E652E40E94B6166C8F7D8F55
:1006A0008E8F9F8FDF91CF911F910F91FF90EF90D1
:1006B000DF90CF90BF90AF909F908F9008951F9242
:1006C0000F920FB60F9211242F933F934F935F9386
:1006D0006F937F938F939F93AF93BF93EF93FF930A
:1006E000E0919B01F0919C010995FF91EF91BF91E1
:1006F000AF919F918F917F916F915F914F913F91BA
:100700002F910F900FBE0F901F9018951F920F9270
:100710000FB60F9211242F933F934F935F936F93D4
:100720007F938F939F93AF93BF93EF93FF938091AA
:10073000B900887F803609F49CC068F5883209F4D6
:100740005BC090F4803109F454C038F4882309F474
:10075000F6C0883009F44DC0F6C0883109F44CC0A9
:10076000803209F45DC0EFC0803409F468C048F4F9
:10077000803309F455C0883309F0E5C08093F60151
:10078000D8C0803509F44FC0883509F45DC088347D
:1007900009F0D9C0D6C0883909F4C7C0A8F4883791
:1007A00009F467C038F4883609F463C0803709F467
:1007B00060C0C9C0883809F4B8C0803909F45FC086
:1007C000803809F0C0C05BC0803B09F486C038F4B3
:1007D000803A09F466C0883A09F47FC0B4C0803C0E
:1007E00009F4A7C0883C09F4A4C0883B09F48AC076
:1007F000AAC08091D30110C09091F5018091F401BD
:10080000981770F5E091F50181E08E0F8093F50166
:10081000F0E0EC52FE4F80818093BB0085EC86C0F7
:100820008093F6018EC0E091F50181E08E0F8093F8
:10083000F5018091BB00F0E0EC52FE4F8083909177
:10084000F5018091F4016EC0E091F50181E08E0F19
:100850008093F5018091BB00F0E0EC52FE4F808365
:100860008091F70181116DC081E08093D20184EA0B
:1008700061C083E08093F80110929A01CFCF8091FC
:100880009A01803208F051C0E0919A0181E08E0F08
:1008900080939A018091BB00F0E0E658FE4F808380
:1008A000BDCF85EC8093BC001092F80180919A0135
:1008B000803230F4E0919A01F0E0E658FE4F108269
:1008C00060919A0170E0E0917801F09179018AE7F6
:1008D00091E0099510929A0136C084E08093F80166
:1008E0001092770110927601E0917401F0917501F8
:1008F000099580917601811105C081E08093760190
:1009000010925401E091770181E08E0F809377017E
:10091000F0E0EC5AFE4F80818093BB00909177010C
:1009200080917601981708F479CF85E88093BC0010
:100930000AC085EC8093BC001092F80104C01092AC
:10094000F6010E94A501FF91EF91BF91AF919F9198
:100950008F917F916F915F914F913F912F910F9068
:100960000FBE0F901F901895FB0122E0E227EE0FBB
:10097000FF1FEE5EFA4F0190F081E02D26EADC01C8
:1009800001900D922A95E1F70895FC0161307105FF
:1009900049F06230710551F0672B61F480819181DB
:1009A000A2810BC083819481A58107C08681978134
:1009B000A08503C081859285A385BC018A2F0895F7
:1009C0002F923F924F925F926F927F928F929F925F
:1009D000AF92BF92CF92DF92EF92FF920F931F934D
:1009E000CF93DF9300D000D0CDB7DEB71C01D52E5A
:1009F000C62E922F253608F094E6211101C090E012
:100A000020EA220E311C00E010E0E92FF0E0FA832A
:100A1000E98324E6422E512C612C712CF101E190E6
:100A2000F1901F01473A34F04B834B352CF0FAE537
:100A3000FB8302C026EA2B832B81F70123A734A571
:100A40003C83A22F220FBB0BA31BB10937FDB3952B
:100A5000B7FD07C0812C912C90E8A92E9FE3B92EF9
:100A600006C0812C912C80E8A82E8FEBB82EB7FF02
:100A700003C0B195A195B10929813A810E948C17D3
:100A8000A30192010E94D013CA01B9010E94671507
:100A9000A50194010E94B6160E942F1561157105DB
:100AA00041F4EB81FC81EF1721F0C501B4010E94F4
:100AB0002F15F70165A70F5F1F4F0330110539F0A0
:100AC0000130110511F44D2DA9CF4C2DA7CF0F905A
:100AD0000F900F900F90DF91CF911F910F91FF908A
:100AE000EF90DF90CF90BF90AF909F908F907F90CE
:100AF0006F905F904F903F902F900895BF92CF924C
:100B0000DF92EF92FF920F931F93CF93DF93EC014D
:100B1000B62EFC01EB56FF4F0190F081E02D21EE47
:100B20003EE245E652E464897589868997890E9488
:100B3000B6166B017C0120E030E0A9010E94B116DD
:100B400020E030E040E05FE387FD05C0C701B6016B
:100B50000E942C1404C0C701B6010E942B140E94ED
:100B60002F15162FFE01E956FF4F0190F081E02D61
:100B700021EE3EE245E652E46489758986899789CB
:100B80000E94B6166B017C0120E030E0A9010E94B2
:100B9000B11620E030E040E05FE387FD05C0C7010B
:100BA000B6010E942C1404C0C701B6010E942B1488
:100BB0000E942F15062FFE01E756FF4F0190F0818E
:100BC000E02D21EE3EE245E652E46489758986898E
:100BD00097890E94B6166B017C0120E030E0A901E4
:100BE0000E94B11620E030E040E05FE387FD05C0E1
:100BF000C701B6010E942C1404C0C701B6010E94AF
:100C00002B140E942F15FE01E156FF4F9081933067
:100C10000CF411952B2D412F502FCE010E94E00492
:100C2000DF91CF911F910F91FF90EF90DF90CF90C8
:100C3000BF9008952F923F924F925F926F927F9252
:100C40008F929F92AF92BF92CF92DF92EF92FF92DC
:100C50000F931F93CF93DF931F92CDB7DEB77C0125
:100C60003B01690149834C0182E0880E911C4E8949
:100C70005F89688D798D00E010E09801C4010E94C1
:100C80000103F70114A615A616A617A610AA8AA195
:100C90009BA192AB81ABC7A2212C312C88E4482EBA
:100CA00082E4582E20A631A642A653A616A25701CA
:100CB000F3E3AF0EB11C4A8D5B8D6C8D7D8D00E032
:100CC00010E09801C5010E940103F701E35AFF4FAC
:100CD00010823196108231961082319610823196B0
:100CE000108231968AA19BA1918380833A97D0820A
:100CF000319620823182428253823297108267017C
:100D000094E6C90ED11C4E8D5F8D68A179A100E0DB
:100D100010E09801C6010E940103F60112A613A675
:100D200014A615A616A68AA19BA190AB87A79981A8
:100D300095A326A237A240A651A614A22701F5E941
:100D40004F0E511CF20191828082B382A282D58221
:100D5000C482E255F1092081318142815381F7013A
:100D6000628D738D848D958D0E942C14F2016683A3
:100D7000778380879187F70171826082E056FF4F09
:100D8000918280823296B182A0823296D182C082D4
:100D9000359781E080830F90DF91CF911F910F9164
:100DA000FF90EF90DF90CF90BF90AF909F908F908B
:100DB0007F906F905F904F903F902F900895CF92CB
:100DC000DF92EF92FF921F93CF93DF93EC01673A8C
:100DD0002CF0162F6B351CF01AE501C016EA2AA577
:100DE000210F273A24F02B351CF02AE501C026EA12
:100DF000822F220F990BAA0BBB0B9C01AD01265A27
:100E00003F4F4F4F5F4FA8E4B1E00E94EF1324EB38
:100E100030E040E050E00E94D01369017A018FE891
:100E2000C80ED11CE11CF11C6DA1EFA5F8A98081B1
:100E300091E09093F90180931B021092FA011092B5
:100E40001C0284E0689FB00111246A5F7F4F8DE629
:100E500092E00E94070280E090E00E94CA0D80E0CC
:100E600090E00E94CA0DC6010E94CA0D8D2D90E02F
:100E70000E94CA0D81E00E946D0D1CA7DF91CF91E9
:100E80001F91FF90EF90DF90CF9008956F927F9227
:100E90008F929F92AF92BF92CF92DF92EF92FF928A
:100EA0000F931F93CF93DF934B015C0105E610E096
:100EB0009BEF692E99EF792E82E1E82E85E0F82EDE
:100EC000D7018D919D91EC01C056DF4F8A559F4F00
:100ED000E991F99134A523A5321304C0C817D907A5
:100EE000B9F74BC00150110909F44CC0D701CD919D
:100EF000DD917D016E01B0EACB0ED11CCA55DF4FEA
:100F0000D601ED91FD916D0143A524A5241302C0E6
:100F100015A626C085A5280F273A24F02B351CF0EE
:100F20002AE501C026EA622F220F770B181644F437
:100F3000842F042E000C990B8617970754F00DC0D0
:100F4000882359F0842F042E000C990B6817790719
:100F500024F4642F440F770B15A6CF010E94DF06FF
:100F6000CC16DD0669F6BAE1EB16B5E0FB0609F032
:100F7000BDCFC3010197F1F79FCFE5E0AA31BE07CE
:100F800009F09FCFC501B401DF91CF911F910F915F
:100F9000FF90EF90DF90CF90BF90AF909F908F9099
:100FA0007F906F900C94D80F8F929F92AF92BF92C8
:100FB000CF92DF92EF92FF92CF93DF93EC016A0121
:100FC0007B014C8B5D8B6E8B7F8B888C998CAA8C74
:100FD000BB8CCB01BA010E942317A50194010E948A
:100FE000B6166C877D878E879F87C701B6010E94E2
:100FF000B814A50194010E94B616688B798B8A8B70
:101000009B8B288539854A855B85C701B6010E947F
:101010002B1468A379A38AA39BA321EE3EE245E6A5
:1010200052E40E94B6166C8F7D8F8E8F9F8FDF915A
:10103000CF91FF90EF90DF90CF90BF90AF909F90B7
:101040008F9008958F929F92AF92BF92CF92DF922E
:10105000EF92FF920F931F93CF93DF93EC016A01FE
:101060007B0120E030E0A901C701B6010E94B31462
:1010700087FF04C0C701B601905802C0C701B6017E
:10108000A88CB98C0A8D1B8D9501A8010E94B11600
:10109000181624F04601FE2DEF2D03C04501F02F58
:1010A000E12FC401AF2FBE2F8C879D87AE87BF87EE
:1010B0009501A801B4018F2F9E2F0E94BD140E949C
:1010C00098146B017C016C8B7D8B8E8B9F8B0E94A7
:1010D000B8149501A8010E94B616688B798B8A8B8B
:1010E0009B8B288539854A855B85C701B6010E949F
:1010F0002B1468A379A38AA39BA321EE3EE245E6C5
:1011000052E40E94B6166C8F7D8F8E8F9F8FDF9179
:10111000CF911F910F91FF90EF90DF90CF90BF90F4
:10112000AF909F908F900895EF92FF920F931F932F
:10113000CF93DF931F92CDB7DEB78C017C0185E999
:10114000E80EF11CD70112968D919C91139729837B
:101150000E942208D7011296ED91FC9113974489C1
:1011600055896689778914968D919C9115970E946F
:10117000D4072981622FC8010F90DF91CF911F9171
:101180000F91FF90EF900C947E053F924F925F92EB
:101190006F927F928F929F92AF92BF92CF92DF9287
:1011A000EF92FF920F931F93CF93DF93CDB7DEB7EC
:1011B000A4970FB6F894DEBF0FBECDBF6C012A0115
:1011C0003B01322E7C0185E9E80EF11CD701ED913F
:1011D000FC91119780A091A0A2A0B3A012968D912E
:1011E0009C911397DC0150962D913D914D915C910E
:1011F0005397608D718D828D938D0E942C14AB015D
:10120000BC0195018401CE0101960E940103B30146
:10121000A201CE0101960E9422084D895E896F8944
:10122000788DF701808191810E94D407632DC601DA
:101230000E947E05A4960FB6F894DEBF0FBECDBF08
:10124000DF91CF911F910F91FF90EF90DF90CF90A2
:10125000BF90AF909F908F907F906F905F904F90D6
:101260003F9008954091C3015091C4012091C10164
:101270003091C20142175307B4F49091E800957081
:10128000E1F39091E80092FD19C08093F100809104
:10129000C3019091C40101968F739927892B19F48A
:1012A0008EEF8093E8008091C3019091C401019674
:1012B0009093C4018093C30181E0089580E0089574
:1012C000CF92DF92EF92FF920F931F93CF93DF9312
:1012D0001F92CDB7DEB7182F062FE42E862F880F6A
:1012E0008E5F99830E94320983E00E943209F12EB9
:1012F000C12E9981D92E8C2D8F19801798F4F60163
:10130000E7FE02C0849101C080810E943209182F3B
:1013100080E00E9432098123FFEFCF1ADF0A81119A
:10132000EACF01C081E00F90DF91CF911F910F9123
:10133000FF90EF90DF90CF900895DF92EF92FF92B1
:101340000F931F93CF93DF93D82E8A017B01E40E76
:10135000F51EEB01CE15DF0571F0D7FE03C0FE01CF
:10136000849101C088810E94320921968111F2CFB7
:101370008FEF9FEF01C0C801DF91CF911F910F91B7
:10138000FF90EF90DF900895615030F02091F100D0
:10139000FC0120830196F8CF289A84E68093D0013F
:1013A0000895CF92DF92EF92FF920F931F93CF9306
:1013B000DF936C017A018B01C0E0D0E0CE15DF0530
:1013C00089F0D8016D918D01D601ED91FC910190CC
:1013D000F081E02DC6010995892B11F47E0102C030
:1013E0002196ECCFC701DF91CF911F910F91FF9014
:1013F000EF90DF90CF9008950E9493170F931F9363
:10140000CF93DF931F92CDB7DEB782E0898342E4AA
:1014100050E064E271E080E80E949D090E94C40FE0
:10142000DC0112960D911C9113970115110569F0BD
:10143000D801ED91FC910280F381E02DBE016F5F38
:101440007F4FC801099597FF07C089810F90DF91F1
:10145000CF911F910F910895F80100851185E5CF77
:101460003FB7F8948091CC019091CD01A091CE012D
:10147000B091CF0126B5A89B05C02F3F19F001966A
:10148000A11DB11D3FBFBA2FA92F982F8827820F0A
:10149000911DA11DB11DBC01CD0142E0660F771F5A
:1014A000881F991F4A95D1F708951F920F920FB682
:1014B0000F9211242F933F938F939F93AF93BF93DA
:1014C0008091C8019091C901A091CA01B091CB014E
:1014D0003091C70123E0230F2D3720F40196A11D81
:1014E000B11D05C026E8230F0296A11DB11D209352
:1014F000C7018093C8019093C901A093CA01B0931A
:10150000CB018091CC019091CD01A091CE01B09101
:10151000CF010196A11DB11D8093CC019093CD0107
:10152000A093CE01B093CF01BF91AF919F918F91C6
:101530003F912F910F900FBE0F901F9018951F9203
:101540000F920FB60F9211248F939F938091E10019
:101550009091E100937F9093E10083FF0FC0109280
:10156000E90091E09093EB001092EC0092E39093ED
:10157000ED001092D10198E09093F00082FF20C01E
:1015800093E09093E9009091F200992319F09AE387
:101590009093E80090919D01992339F090919D01DD
:1015A000915090939D01992389F19091D0019923B5
:1015B00039F09091D00191509093D001992341F14D
:1015C00084FF10C08091E2008E7E81608093E200F3
:1015D0008091E1008F7E8093E10080919E018E7E5C
:1015E000806111C080FF16C08091E2008E7E806114
:1015F0008093E2008091E1008E7E8093E1008091F3
:101600009E018E7E816080939E0104C05D98CDCF47
:101610002898D6CF9F918F910F900FBE0F901F905B
:1016200018951F920F920FB60F921124CF92DF924E
:10163000EF92FF920F931F932F933F934F935F93DC
:101640006F937F938F939F93AF93BF93EF93FF938A
:10165000CF93DF93CDB7DEB76C97DEBFCDBF1092CF
:10166000E9008091E80083FFEDC168E0CE01459676
:101670000E94C40982EF8093E8008D8987FF05C02E
:101680009091E80090FFFCCF03C09EEF9093E8009C
:10169000982F907609F0C6C09E892F89188D9111D8
:1016A0000CC0803829F48091C6018093F10002C0FB
:1016B0001092F1001092F10048C1422F50E0512BDE
:1016C000913051F4811141C14130510509F03DC1C2
:1016D0008091C6018D7F0BC0933061F4811135C1BB
:1016E0004130510509F031C18091C601826080937B
:1016F000C6012BC1953041F48091E80080FFFCCFFA
:1017000020682093E30021C1963009F05FC0EB8C84
:10171000FC8C1092E9001092C4011092C3011230A7
:1017200091F51092C2011092C1010E94FE0999E048
:10173000BE016F5F7F4FDB01E92F1D92EA95E9F74C
:1017400099831A8391E09E8390EA98879AEF99870C
:101750002091C3013091C401275F3F4F3C832B830D
:101760008D831092E9001092C4011092C301F0928F
:10177000C201E092C10149E050E080E00E949D0971
:101780000E94FE09E2C0F092C201E092C1010E94F3
:10179000C40FDC011296ED90FC901397E114F10454
:1017A00009F4C0C0D701ED91FC910480F581E02DD2
:1017B000BE016B5E7F4FC7010995009719F00CF0D1
:1017C000C4C0C7C0F701E084F184E8CF973009F4C2
:1017D000C0C0983021F481E08093F100B6C0993008
:1017E00009F0B3C0837009F0B4C0EDE0F1E081E02E
:1017F00021E036E39081992361F08093E900209302
:10180000EB0091919093EC003093ED008F5F873067
:1018100089F78EE78093EA001092EA008F8980931F
:10182000D10193C08B8D9C8D1092E9001092C40160
:101830001092C3019093C2018093C101898D8111DF
:1018400056C08E899D89913A59F4813209F081C040
:1018500047E050E064E071E080E00E949D0975C0BF
:10186000913209F076C0833289F4888D90E0982F08
:1018700088272F89822BA0E0B0E08093000190930D
:101880000101A0930201B09303015FC0803269F4AB
:101890008091E80082FFFCCF67E084E091E00E9445
:1018A000C4098BEF8093E80006C0823209F04DC076
:1018B0008F8980930B018091C501882319F0EEEF89
:1018C000FAE002C0E0E0F8E08091040190910501A7
:1018D000A0910601B0910701803B9440A105B1059C
:1018E00009F07BC080910B0180FF93C076C00E94FD
:1018F000C40FDC0112960D911C911397011511056F
:1019000041F1D801ED91FC910190F081E02DBE01F3
:101910006B5E7F4FC8010995811117C0F8010085E2
:101920001185ECCF113009F44EC0133091F48F893A
:10193000882309F445C0823081F440E86DE088E8EE
:1019400091E00E946009882321F08EEF8093E800E7
:1019500079C081E28093EB0075C0813029F440E8C2
:101960006BE08CE791E0EDCF833099F70E94C40FD4
:10197000DC011296ED90FC9013978E010F5F1F4FC4
:101980006801E114F10479F0D701ED91FC91068032
:10199000F781E02DB801C7010995080F111DF70166
:1019A000E084F184EECFD8011C92F6010190002072
:1019B000E9F73197BF016C197D0940E0C601C1CF3D
:1019C00066E671E002C06AE671E06115710509F230
:1019D000FB01449150E080E840CF0FB6F894A89501
:1019E00080916000886180936000109260000FBE5B
:1019F000A895EE3F2AE0F20739F08091FE0A909117
:101A0000FF0A91838083A1CF1092FF0A1092FE0AF1
:101A10009CCFEE3F8AE0F80731F08081918190936E
:101A2000FF0A8093FE0A87E797E7918380839BE014
:101A300088E10FB6F894A895809360000FBE90934C
:101A4000600083CF6C960FB6F894DEBF0FBECDBF9B
:101A5000DF91CF91FF91EF91BF91AF919F918F91C6
:101A60007F916F915F914F913F912F911F910F91B6
:101A7000FF90EF90DF90CF900F900FBE0F901F90D0
:101A800018950F931F93CF93DF938C01EC01CB56E6
:101A9000DF4FEA81FB8144895589668977898C818A
:101AA0009D810E94D4070C80DD81C02D20E030E0B4
:101AB00044EB52E46C857D858E859F850E942B14B6
:101AC000AB01BC01CE010E94220868E0C801DF9191
:101AD000CF911F910F910C947E05382F20911C02FD
:101AE00090911B02213208F049C08091F8018111C8
:101AF000FCCF42E04093F8013093F7013FEF309381
:101B0000F6011092F5012093F401ABEFB1E044ED42
:101B100051E0FA013E2F341B321718F43D913193F6
:101B2000F9CF1092D3012091D301990F922B90936A
:101B3000D3019091D201913061F41092D201909131
:101B4000D3019093BB009091BC0093FDF8CF95EC2E
:101B500001C095EE9093BC009091F8019230E1F3B2
:101B60009091F6019F3F79F08091F601803241F02B
:101B70008091F601803331F084E005C081E003C03C
:101B800082E001C083E01092FA0110921C021092D0
:101B9000F9010895682F8DE692E00C940702CF9327
:101BA000C62F9091790221E02093F90190931B02B6
:101BB0001092FA0110921C02682F8DE692E00E94AA
:101BC00007026C2F8DE692E00E94070281E0CF9120
:101BD0000C946D0D90E0FC01EA56FE4F4491FC011F
:101BE000E250FE4F2491FC01E152FE4F8491882384
:101BF00009F44CC04423E1F150E0FA013197EF3091
:101C0000F105B0F5EA5AFF4F0C94861790918000C9
:101C10009F7707C0909180009F7D03C090918000C6
:101C2000977F9093800024C094B59F7702C094B5AD
:101C30009F7D94BD1DC0909190009F7707C09091AB
:101C400090009F7D03C090919000977F90939000AB
:101C50000FC09091C0009F7703C09091C0009F7DFE
:101C60009093C00005C09091C200977F9093C200EE
:101C7000E82FF0E0EE0FFF1FEF52FE4FA591B49159
:101C80008FB7F894EC912E2B2C938FBF0895CF93A0
:101C9000DF93CDB7DEB7C25FD1400FB6F894DEBF99
:101CA0000FBECDBFE0911405F091150586EADE0167
:101CB000A35BBE4F01900D928A95E1F7E09112056A
:101CC000F091130586EADE01A955BF4F01900D92F0
:101CD0008A95E1F720E140E050E068EC71ECCE013C
:101CE000835B9E4F0E949408C35BDE4F68817981BD
:101CF000CD54D140CE0101960E94B40420E140E0D1
:101D000050E068EC71E4CE0101960E949408C95538
:101D1000DF4F68817981C75AD040CE0101960E9479
:101D2000B40420E140E050E060EA71ECCE0101969D
:101D30000E94C50820E140E050E060EA71ECCE016D
:101D400089559F4F0E94C50868E070E080E090E0F0
:101D50000E94460728E040E050E060E272E4CE01D5
:101D6000835B9E4F0E94940868E070E080E090E002
:101D70000E94460728E040E050E060EA72E4CE01AD
:101D8000835B9E4F0E94C50868E070E080E090E0B1
:101D90000E94460728E040E050E068EC71ECCE017C
:101DA000835B9E4F0E94940868E070E080E090E0C2
:101DB0000E94460728E040E050E068EC71E4CE0164
:101DC00089559F4F0E949408CE0189559F4F0E94CC
:101DD000410D68E070E080E090E00E94460728E056
:101DE00040E050E068EC71E4CE0189559F4F0E94BD
:101DF000C508CE0189559F4F0E94410DC955DF4F3F
:101E000068817981C75AD040CE0101960E94B404FE
:101E100028E040E050E060EA71ECCE0101960E94BB
:101E2000940828E040E050E060EA71ECCE01835B6A
:101E30009E4F0E949408C35BDE4F68817981CD5428
:101E4000D140CE0101960E94B40428E040E050E069
:101E500060EA71ECCE0101960E94940828E040E00F
:101E600050E060E070E8CE01835B9E4F0E94C508A1
:101E700068E070E080E090E00E94460728E040E0E3
:101E800050E060EA71E4CE0189559F4F0E949408AA
:101E9000C955DF4F68817981C75AD040CE0101967C
:101EA0000E94B40428E040E050E068EC71ECCE0100
:101EB00001960E94940828E040E050E060E070E85D
:101EC000CE01835B9E4F0E949408C35BDE4F688106
:101ED0007981CD54D140CE0101960E94B40428E00E
:101EE00041E050E060EF71ECCE0101960E94940851
:101EF00068E070E080E090E00E94460781E0CE500C
:101F0000DE4F0FB6F894DEBF0FBECDBFDF91CF918D
:101F10000895FC018091D101811103C08FEF9FEFE3
:101F200008959FB7F89482E08093E9002091F20031
:101F300030E01216130614F421E030E021153105CB
:101F400059F0289A84E68093D0018091F100808333
:101F50008091F200882319F09FBFC90108958BE694
:101F60008093E800F9CF2FB7F89483E08093E900DD
:101F70009091E800892F807295FF04C09091F20043
:101F800080E4891B2FBF089580912A0581110DC01F
:101F900082E08093260584E080932705109229052E
:101FA0001092280581E080932A0586E295E0089545
:101FB0008F929F92AF92BF92CF92DF92EF92FF9259
:101FC0006B017C010E94300A4B015C01C114D104F9
:101FD000E104F104F1F00E94300ADC01CB01881920
:101FE0009909AA09BB09883E9340A105B10570F380
:101FF00021E0C21AD108E108F10888EE880E83E0DA
:10200000981EA11CB11CC114D104E104F10419F7FC
:10201000DDCFFF90EF90DF90CF90BF90AF909F907B
:102020008F900895CF93DF93CDB7DEB7A4970FB607
:10203000F894DEBF0FBECDBF789484B5826084BDB6
:1020400084B5816084BD85B5826085BD85B58160BC
:1020500085BD80916E00816080936E00109281003A
:1020600080918100826080938100809181008160F5
:1020700080938100809180008160809380008091B6
:1020800091008260809391008091910081608093A3
:102090009100809190008160809390008091C100B8
:1020A00084608093C1008091C10082608093C100F0
:1020B0008091C10081608093C1008091C3008160E4
:1020C0008093C3008091C00082608093C0008091A3
:1020D000C20081608093C20080917A008460809306
:1020E0007A0080917A00826080937A0080917A00F1
:1020F000816080937A0080917A00806880937A0072
:102100001092D1011092C60110929E018091D700C9
:1021100081608093D70080EA8093D80089B5806180
:1021200089BD89B5826089BD09B400FEFDCF61E03B
:1021300070E080E090E00E94D80F8091D8008F7C02
:1021400080618093D8008091E000807F8093E000E0
:102150008091E1008E7E8093E1008DE08093E2002B
:10216000559A209A5D982898EEEFFFE78591949113
:102170008B3F9C4D19F481E08093C5018FEF9FEF59
:1021800090932A02809329028CE0E3E1F1E0DE01E2
:10219000599601900D928A95E1F792E1E92E95E02A
:1021A000F92E670100E010E0B801CE0149960E94C7
:1021B000C504F601219131916F01F901E056FF4FFD
:1021C0000190F081E02D62A7F901EE55FF4F0190DB
:1021D000F081E02D72A7F901EC55FF4F0190F081DD
:1021E000E02D82A70F5F1F4F04301105E9F68CE048
:1021F000EAE1F5E0DE011D9601900D928A95E1F786
:102200008CE0FE013D96DE01119601900D928A95BB
:10221000E1F782E1C82E85E0D82E00E010E0B80199
:10222000CE0101960E94C504AB01682F22E3F6019E
:10223000819191916F010E94E0040F5F1F4F043064
:10224000110569F7A2E1B5E08D919D91FC01E05681
:10225000FF4F0190F081E02D23A524A3FC01EE5552
:10226000FF4F0190F081E02D23A524A3FC01EC5544
:10227000FF4F0190F081E02D83A584A3F5E0AA3102
:10228000BF0711F71092C0011092BF011092FA011E
:1022900010921C021092F80111E01093F7011092B5
:1022A000D20182E00E94EA0D83E00E94EA0D809153
:1022B000B9008E7F8093B9008091B9008D7F8093A3
:1022C000B90088E48093B80085E48093BC0060E0A6
:1022D00080E00E94CF0D809179021093F9018093E4
:1022E0001B021092FA0110921C0260E08DE692E04F
:1022F0000E94070281E00E946D0D80917902909109
:10230000F8019111FCCF91E09093F8019093F701BF
:102310002FEF2093F6011092F5011092F4019093A3
:10232000D3019091D301880F892B8093D3018091A1
:10233000D201813061F41092D2018091D301809357
:10234000BB008091BC0083FDF8CF85EC01C085EE19
:102350008093BC008091F8018130E1F38091F50118
:10236000811103C08091F50101C081E0A4EDB1E0CD
:102370002FE931E0F9019E2F921B981718F49D91D7
:102380009193F9CF1092C0018093BF018DE692E046
:102390000E948501182F682F6F76606180E00E948F
:1023A000CF0D67E88EEF0E94CF0D612F80E00E9475
:1023B000CF0D65E070E080E090E00E94D80F612FC3
:1023C000616A80E00E94CF0DF701819191917F01B8
:1023D0006C01F0EACF0ED11C8C010A551F4FF6019B
:1023E000819191916F01FC0163A50E94DF06C016E7
:1023F000D106A9F7FAE1EF16F5E0FF0629F760ED3F
:1024000077E080E090E00E94D80F0E94470E00E045
:1024100010E062E370E080E090E00E94D80F0115C8
:102420001105B9F30E940000F4CF0F931F93CF93CF
:10243000DF93CDB7DEB7EC970FB6F894DEBF0FBED3
:10244000CDBFEDE1F2E01382128288EE93E0A0E0CE
:10245000B0E084839583A683B78323E231E03183A0
:1024600020832FEF3FEF35872487EDE6F2E01382DC
:10247000128284839583A683B78385E391E0918359
:102480008083EAE1F5E010821182128213821482C5
:102490001582168217821086118612861386E0E155
:1024A000F8E010828EE181838283138284838583A6
:1024B000168287838087118682878387E0EEF7E024
:1024C00000E010E020E732E40083118322833383AD
:1024D00040E050E060E572E444835583668377838F
:1024E00080E090E0A2EBB2E480879187A287B38777
:1024F0000487158726873787408B518B628B738BB8
:10250000848B958BA68BB78B008F118F228F338F87
:10251000448F558F668F778F80A391A3A2A3B3A317
:1025200004A315A326A337A340A751A762A773A7A7
:1025300084A795A7A6A7B7A7E7E0F2E0E491AAECE5
:10254000B7E01496EC931497E6E0F2E0E491159668
:10255000EC93159788EE91E0FC012491E22FF0E0D6
:10256000EE0FFF1FEF52FE4F2591349117963C93CB
:102570002E931697E7EEF1E0E491F0E0EE0FFF1FE7
:10258000ED53FE4F2591349119963C932E93189755
:10259000FC018491E82FF0E0EE0FFF1FEB54FE4F9B
:1025A000859194911B969C938E931A978DE89FE644
:1025B0001D969C938E931C9784EF91E053969C9369
:1025C0008E9352978EE190E055969C938E935497FC
:1025D0008CE0E3E4F1E0DE01D19601900D928A9562
:1025E000E1F780E3E0EEF7E0DE01119601900D9255
:1025F0008A95E1F709E712E080E4F801808329A9D0
:102600003AA94BA91F930F938DB79EB70C970FB69E
:10261000F8949EBF0FBE8DBFADB7BEB711968CE0CC
:10262000FE01319601900D928A95E1F760E070E02D
:102630008AE792E00E941A062CA93DA94EA91F9391
:102640000F93EDB7FEB73C970FB6F894FEBF0FBEE1
:10265000EDBFADB7BEB711968CE0FE013D9601907F
:102660000D928A95E1F761E070E080E293E00E94CC
:102670001A062FA938AD49AD1F930F938DB79EB79A
:102680000C970FB6F8949EBF0FBE8DBFADB7BEB707
:1026900011968CE0FE01799601900D928A95E1F7F2
:1026A00062E070E086EC93E00E941A060FB6F894A0
:1026B000DEBF0FBECDBF2AAD3BAD4CAD1F930F9318
:1026C0008DB79EB70C970FB6F8949EBF0FBE8DBF07
:1026D000ADB7BEB711968CE0FE01B59601900D9294
:1026E0008A95E1F763E070E08CE694E00E941A06B8
:1026F0008AE792E0909313058093120580E293E0BD
:10270000909315058093140586EC93E0909317053C
:10271000809316058CE694E0909319058093180534
:1027200081E08093190382E08093BF0383E080936C
:10273000650484E080930B0586EAEAE7F2E0A4E210
:10274000B7E001900D928A95E1F786EAE0E2F3E0C6
:10275000AEE7B6E001900D928A95E1F786EAE6ECE5
:10276000F3E0A8EDB5E001900D928A95E1F786EAD5
:10277000ECE6F4E0A2E3B5E001900D928A95E1F772
:102780000FB6F894DEBF0FBECDBFEC960FB6F8942F
:10279000DEBF0FBECDBFDF91CF911F910F91089586
:1027A000052E97FB1EF400940E94E71357FD07D0F7
:1027B0000E94FA1307FC03D04EF40C94E7135095D3
:1027C0004095309521953F4F4F4F5F4F089590951D
:1027D0008095709561957F4F8F4F9F4F08950E9410
:1027E0001C14A59F900DB49F900DA49F800D911D6A
:1027F00011240895A1E21A2EAA1BBB1BFD010DC0D6
:10280000AA1FBB1FEE1FFF1FA217B307E407F507A0
:1028100020F0A21BB30BE40BF50B661F771F881F7C
:10282000991F1A9469F760957095809590959B0112
:10283000AC01BD01CF010895A29FB001B39FC001BB
:10284000A39F700D811D1124911DB29F700D811DDC
:102850001124911D08955058BB27AA270E944314A4
:102860000C9463160E942A1638F00E94311620F04C
:1028700039F49F3F19F426F40C94EC150EF4E0950E
:10288000E7FB0C94E615E92F0E94881658F3BA1757
:10289000620773078407950720F079F4A6F50C9476
:1028A000AA160EF4E0950B2EBA2FA02D0B01B9013C
:1028B00090010C01CA01A0011124FF27591B99F0B6
:1028C000593F50F4503E68F11A16F040A22F232FC2
:1028D000342F4427585FF3CF469537952795A79512
:1028E000F0405395C9F77EF41F16BA0B620B730BB9
:1028F000840BBAF09150A1F0FF0FBB1F661F771F2A
:10290000881FC2F70EC0BA0F621F731F841F48F4DE
:10291000879577956795B795F7959E3F08F0B0CF67
:102920009395880F08F09927EE0F9795879508954E
:102930009F939F77EEE389379E0728F4EAECF0E057
:102940000E9416160CC00E94A2159058A2EA2AED09
:102950003FE049EC5FE30E9443140E9463160F902E
:1029600007FC905808950E94C21508F481E008956C
:102970000E943A16E3950C9474160E94D1140C949C
:1029800063160E94311658F00E942A1640F029F46E
:102990005F3F29F00C94E61551110C94AB160C9482
:1029A000EC150E94881668F39923B1F3552391F32F
:1029B000951B550BBB27AA2762177307840738F0AE
:1029C0009F5F5F4F220F331F441FAA1FA9F335D00B
:1029D0000E2E3AF0E0E832D091505040E695001CBF
:1029E000CAF72BD0FE2F29D0660F771F881FBB1F79
:1029F000261737074807AB07B0E809F0BB0B802D57
:102A0000BF01FF2793585F4F3AF09E3F510578F082
:102A10000C94E6150C94AB165F3FE4F3983ED4F3A8
:102A2000869577956795B795F7959F5FC9F7880F56
:102A3000911D9695879597F90895E1E0660F771FA8
:102A4000881FBB1F621773078407BA0720F0621B39
:102A5000730B840BBA0BEE1F88F7E09508950E9464
:102A600036156894B1110C94AB1608950E94901617
:102A700088F09F5798F0B92F9927B751B0F0E1F03F
:102A8000660F771F881F991F1AF0BA95C9F714C0EF
:102A9000B13091F00E94AA16B1E008950C94AA16E4
:102AA000672F782F8827B85F39F0B93FCCF3869528
:102AB00077956795B395D9F73EF490958095709585
:102AC00061957F4F8F4F9F4F0895E89409C097FB02
:102AD0003EF490958095709561957F4F8F4F9F4FF5
:102AE0009923A9F0F92F96E9BB279395F695879539
:102AF00077956795B795F111F8CFFAF4BB0F11F4FC
:102B000060FF1BC06F5F7F4F8F4F9F4F16C08823A2
:102B100011F096E911C0772321F09EE8872F762FD8
:102B200005C0662371F096E8862F70E060E02AF019
:102B30009A95660F771F881FDAF7880F9695879505
:102B400097F90895DF93CF931F930F938B01EC01B7
:102B5000EEEDF0E00E94EF150E9463169801AE01C1
:102B60008B01EC0160E070E080E89FE30E942B1491
:102B70000E9431179801AE010F911F91CF91DF9103
:102B80000C94C916990F0008550FAA0BE0E8FEEF48
:102B900016161706E807F907C0F012161306E40721
:102BA000F50798F0621B730B840B950B39F40A261A
:102BB00061F0232B242B252B21F408950A2609F4F8
:102BC000A140A6958FEF811D811D089597F99F67FC
:102BD00080E870E060E008959FEF80EC0895DF9357
:102BE000CF931F930F93FF92EF92DF927B018C01A3
:102BF000689406C0DA2EEF010E94C916FE01E8941F
:102C0000A5912591359145915591A6F3EF010E942B
:102C10004314FE019701A801DA9469F7DF90EF9061
:102C2000FF900F911F91CF91DF9108959F938F9304
:102C30007F936F93FF93EF939B01AC010E94B616B5
:102C4000EF91FF910E94EF152F913F914F915F916E
:102C50000C94B61600240A941616170618060906D0
:102C6000089500240A941216130614060506089502
:102C70000C94EC150E949016D8F3E894E0E0BB2782
:102C80009F57F0F02AED3FE049EC06C0EE0FBB0F76
:102C9000661F771F881F28F0B23A62077307840700
:102CA00028F0B25A620B730B840BE3959A9572F776
:102CB000803830F49A95BB0F661F771F881FD2F7B4
:102CC00090480C947317092E0394000C11F4882378
:102CD00052F0BB0F40F4BF2B11F460FF04C06F5FD4
:102CE0007F4F8F4F9F4F0895EF93E0FF07C0A2EAF9
:102CF0002AED3FE049EC5FEB0E9443140E9463160B
:102D00000F90039401FC9058E6E0F1E00C94161645
:102D100057FD9058440F551F59F05F3F71F047958C
:102D2000880F97FB991F61F09F3F79F08795089571
:102D3000121613061406551FF2CF4695F1DF08C090
:102D4000161617061806991FF1CF869571056105AD
:102D500008940895E894BB2766277727CB0197F955
:102D600008950E94C21508F48FEF08950E94C916B5
:102D70000C9463160E942A1638F00E94311620F037
:102D8000952311F00C94E6150C94EC1511240C9479
:102D9000AB160E94881670F3959FC1F3950F50E013
:102DA000551F629FF001729FBB27F00DB11D639FFD
:102DB000AA27F00DB11DAA1F649F6627B00DA11DA3
:102DC000661F829F2227B00DA11D621F739FB00D49
:102DD000A11D621F839FA00D611D221F749F3327B9
:102DE000A00D611D231F849F600D211D822F762F52
:102DF0006A2F11249F5750409AF0F1F088234AF02F
:102E0000EE0FFF1FBB1F661F771F881F915050409A
:102E1000A9F79E3F510580F00C94E6150C94AB1673
:102E20005F3FE4F3983ED4F3869577956795B79521
:102E3000F795E7959F5FC1F7FE2B880F911D96953B
:102E4000879597F908959F930E943A160F9007FC73
:102E5000EE5F0C94741619F416F40C94EC150C94A3
:102E600071170E949016B8F39923C9F3B6F39F57D0
:102E7000550B87FF0E947F170024A0E640EA9001CF
:102E800080585695979528F4805C660F771F881FA9
:102E900020F026173707480730F4621B730B840BAA
:102EA000202931294A2BA6951794079420253125EE
:102EB0004A2758F7660F771F881F20F02617370715
:102EC000480730F4620B730B840B200D311D411D3C
:102ED000A09581F7B901842F9158880F9695879511
:102EE00008959F3F31F0915020F48795779567952D
:102EF000B795880F911D9695879597F908959150EC
:102F00005040660F771F881FD2F70895EE0FFF1FFE
:102F10000590F491E02D09940E941C14B7FF0895C8
:102F2000821B930B089581E090E0F8940C9498171D
:042F3000F894FFCF43
:102F3400FFFFFFFF00E100000000000000C18081EE
:102F440000000000FB0A0000000000000000000078
:102F54000000003A013602BB0250015B01BF02DDF2
:102F640002000000000702D701A201750199018542
:102F740001760100040801050902060A03070B0093
:00000001FF
